:020000040000fa
:0800000090350400000000002f
:020000040000fa
:1000080004300000083000000c3000001030000000
:1000180014300000183000001c30000020300000b0
:1000280024300000283000002c3000003030000060
:1000380034300000383000003c3000004030000010
:1000480044300000483000004c30000050300000c0
:1000580054300000583000005c3000006030000070
:1000680064300000683000006c3000007030000020
:1000780074300000783000007c30000080300000d0
:1000880084300000883000008c3000009030000080
:1000980094300000983000009c300000a030000030
:1000a800a4300000a8300000ac300000b0300000e0
:1000b800b4300000b8300000bc300000c030000090
:1000c800c4300000c8300000cc300000d030000040
:1000d800d4300000d8300000dc300000e0300000f0
:1000e800e4300000e8300000ec300000f0300000a0
:1000f800f4300000f8300000fc300000003100004f
:1001080004310000083100000c31000010310000fb
:1001180014310000183100001c31000020310000ab
:1001280024310000283100002c310000303100005b
:1001380034310000383100003c310000403100000b
:1001480044310000483100004c31000050310000bb
:1001580054310000583100005c310000603100006b
:1001680064310000683100006c310000703100001b
:1001780074310000783100007c31000080310000cb
:1001880084310000883100008c310000903100007b
:1001980094310000983100009c310000a03100002b
:1001a800a4310000a8310000ac310000b0310000db
:1001b800b4310000b8310000bc310000c03100008b
:1001c800c4310000c8310000cc310000d03100003b
:1001d800d4310000d8310000dc310000e0310000eb
:1001e800e4310000e8310000ec310000f03100009b
:0801f800f4310000f8310000b1
:020000040000fa
:10070000485700003d410000583600002c200000f2
:1007100052450000563d0000362e0000342c0000eb
:1007200020520000454c00003d340000360000001f
:020000040000fa
:106000009035040000000000d442040000000000ad
:10601000d442040000000000d4420400000000004c
:10602000d442040000000000d4420400000000003c
:10603000d442040000000000d4420400000000002c
:10604000d442040000000000d4420400000000001c
:10605000d442040000000000d4420400000000000c
:10606000b643040000000000d44204000000000019
:10607000d442040000000000d442040000000000ec
:10608000d442040000000000d442040000000000dc
:10609000d442040000000000d442040000000000cc
:1060a000d442040000000000d442040000000000bc
:1060b000d442040000000000d442040000000000ac
:1060c000d442040000000000d4420400000000009c
:1060d000d442040000000000d4420400000000008c
:1060e000d4420400000000006243040000000000ed
:1060f000d442040000000000d4420400000000006c
:10610000d442040000000000d4420400000000005b
:10611000d442040000000000d4420400000000004b
:10612000d442040000000000d4420400000000003b
:106130008c43040000000000d44204000000000072
:10614000d442040000000000d4420400000000001b
:10615000d442040000000000d4420400000000000b
:10616000d442040000000000d442040000000000fb
:10617000d442040000000000d442040000000000eb
:10618000d442040000000000d442040000000000db
:10619000d442040000000000d442040000000000cb
:1061a000d442040000000000d442040000000000bb
:1061b000d442040000000000d442040000000000ab
:1061c000d442040000000000d4420400000000009b
:1061d000d442040000000000d4420400000000008b
:1061e000d442040000000000d4420400000000007b
:1061f000d442040000000000d4420400000000006b
:10620000d442040000000000d4420400000000005a
:10621000d442040000000000d4420400000000004a
:10622000d442040000000000d4420400000000003a
:10623000d4420400000000000043040000000000fd
:10624000d442040000000000d4420400000000001a
:10625000d442040000000000d4420400000000000a
:10626000d442040000000000d442040000000000fa
:10627000d442040000000000d442040000000000ea
:10628000d442040000000000d442040000000000da
:10629000d442040000000000d442040000000000ca
:1062a000d442040000000000d442040000000000ba
:1062b000d442040000000000d442040000000000aa
:1062c000d442040000000000d4420400000000009a
:1062d000d442040000000000d4420400000000008a
:1062e000d442040000000000d4420400000000007a
:1062f000d442040000000000c83604000000000082
:10630000d442040000000000d44204000000000059
:10631000d442040000000000d44204000000000049
:10632000d442040000000000d44204000000000039
:10633000d442040000000000d44204000000000029
:10634000d442040000000000d44204000000000019
:10635000d442040000000000d44204000000000009
:10636000d442040000000000d442040000000000f9
:10637000d442040000000000d442040000000000e9
:10638000d442040000000000d442040000000000d9
:10639000d442040000000000d442040000000000c9
:1063a000d442040000000000d442040000000000b9
:1063b000d442040000000000d442040000000000a9
:1063c000d442040000000000d44204000000000099
:1063d000d442040000000000d44204000000000089
:1063e000d442040000000000d44204000000000079
:1063f000d442040000000000d44204000000000069
:020000040000fa
:086400009035040000000000cb
:020000040000fa
:10640800a2c0a90066a5ef0062a5ef008225ef00f3
:10641800620020008000eb0040582000e24c02009f
:106428000000000020002000f02b88008025ef00ed
:106438005e45a900f0092000402b8800202b880029
:106448006005a800068022004830de00802b880006
:10645800000beb0036137800640043000008eb00e3
:1064680030107800e8034300800beb00b713780086
:106478006c0043000008eb00301078006400400016
:106488000008eb0030107800640040000008eb00c2
:1064980030107800640040000008eb0030107800ed
:1064a800640040000008eb003010780064004000f1
:1064b8000008eb0030107800640040000008eb0092
:1064c80030107800640040000008eb0030107800bd
:1064d800640040000008eb003010780064004000c1
:1064e8000008eb0030107800640040000008eb0062
:1064f80030107800640040000008eb00301078008d
:10650800640040000008eb00301078006c25a800fb
:106518006e25ef006ca5a9006c25a9006265ab008b
:106528000e003200c4622100a36321008300e8004a
:106538000100e80082002000122b8800004aeb00ce
:106548008049eb00914278008048eb009042780047
:106558000048eb006265ab00f7ff3a00100020002e
:1065680060c5880070c588000000eb0040b1880055
:1065780020b1880090b18800016421008008eb00f8
:10658800218a21008048eb00618a21008048eb00c5
:10659800a16421008008eb00216421008008eb0041
:1065a800318a21008048eb00718a21008048eb0085
:1065b800c16421008008eb00416421008008eb00e1
:1065c800418a21008048eb00818a21008048eb0045
:1065d800e16421008008eb00616421008008eb0081
:1065e800518a21008048eb00918a21008048eb0005
:1065f80047b28800d1002000112c8800e1872100d3
:106608001140890081c0b300014b780042c8b30033
:106618001180220082487800616321008048eb00e5
:10662800a0b18800000006008181fb000338a300a8
:1066380012003a000080fb000328a3000b00320080
:10664800800140000301e8004311dd0004802200be
:106658000401410012f0a1008464210002b2790013
:1066680012e0a1006401410012e0a0000000400017
:106678002258200001717800000006000080fb000d
:1066880000024000c322dd00028022000281420095
:1066980012f0a1000564210082327a0012e0a10004
:1066a8006401410012e0a000e3ff37000104e000ac
:1066b800180032008082fb000580420084642100bb
:1066c800640278000000eb000400e00010003200d3
:1066d80012029800034a7800144090000044b20067
:1066e800104298001441900080c8b3000040710027
:1066f800104298000104e0000b003a008582420035
:1067080001642100818242001524a200040078005f
:10671800000006008082fb0005804200046421001e
:1067280064027800e7ff3700858242008164210017
:10673800818242001524a2000400780000000600af
:106748000004e000110032008180fb000080fb00a3
:1067580000004000008040004300dd00028022006d
:10676800820140001342900041c8b3000142720008
:1067780094419800640040000200400010419000dd
:1067880081407100114098000000060081c0b300ec
:10679800a0c4800001487800a0c48000e1872100df
:1067a80011009800c1c8b30011409800e8c050001b
:1067b80040b2800011409800000006006ca5ab00b4
:1067c800170032000080fb000000400081642100b7
:1067d80000804000100178001202be000104200071
:1067e800048260008002eb000489be001002780079
:1067f8001401be000260a200028abe001024a2009a
:1068080010017800924190000344b20013419800af
:1068180010007800104190008140690011409800f4
:10682800000006006c25ef006425ef000000eb0077
:10683800a0b1880000000600a0b180000000e000c0
:1068480011003a006c25ef006425ef0020002000bd
:10685800f02b88008025ef005e45a900f009200094
:10686800402b8800202b8800a2c0a8006c05ab0034
:1068780003003a006c05a8006c05ab00fdff320070
:1068880010002000a0b188000000060060c580004c
:106898000000e0000d003a001000200060c58800ec
:1068a80071c580000100e00008003a0070c588004a
:1068b8008289210023c0b30092cf11001500320055
:1068c80013c0b30092cf110001003200000006008f
:1068d80001c5880082c0b30091c480008248780056
:1068e80093c48000e18721009101980044c8b30057
:1068f8009441980000c58800a0c480000248780030
:10690800a0c480001100980001c8b300114098008d
:106918000000060040b280000048eb0081ccb300c4
:1069280040b2800011409800000006000000eb0013
:1069380040b1880020b188008089210021c0b300bf
:1069480090cf10004f003200418821001181fb00d8
:106958000100e8009081fb00c819dd008301710087
:1069680072b18000828f5100050031009180fb00d8
:106978001080fb004800dd000080700070b18800c6
:1069880070b18000e70f500020003e0070b1800019
:10699800618921001104e00031003a0012c0b300ff
:1069a800824878008080fb0072b18000810051002d
:1069b80071b1880041b28000804878006388210066
:1069c800d3c4880061b180000108a3001b003a000d
:1069d8000004e0000700320051b18000d2c48000fa
:1069e80031597800d2c4880051b188000040e900cc
:1069f800f9ff3a0040b280001300980081ccb30040
:106a080040b280001140980000000600810020007c
:106a18000140780072b180008100510071b1880096
:106a280041b280008048780063882100d3c4880080
:106a380061b180000108a300e5ff32000004e00016
:106a4800ecff320051b18000d2c480003159780087
:106a5800d2c4880051b188000040e900f7ff370030
:106a680012c0b300914f1100020032008080fb0079
:106a7800cdff370022c0b300824878008080fb0039
:106a8800c9ff370081c0b300a0c480000148780066
:106a9800a0c48000618821001100980081ccb30057
:086aa8001140980000000600f7
:020000040000fa
:106b0000485700003d410000583600002c2000008e
:106b100052450000563d0000362e000034000000b3
:020000040000fa
:106b2000af8422000eff27000e0188000000000045
:106b3000000020000000e000020032000001200000
:106b40002002880014000700420707000000e00050
:106b500003003a0020c82200210020000200370074
:106b60000000200001002000810f700001003200b1
:106b700014000700000020000000e00002003200c6
:106b80000000020000000000b68d020001000000bd
:106b90000040da000000fe004440a9002039210036
:106ba0000000e00003003200002020009001880077
:106bb0004440a800000006008a1f78008b1f780060
:106bc00000000600a1028800800478000000eb00ad
:106bd0001f003700e284440054a0b4009905ba00b5
:106be000e284440054a0b4009906ba00e284440050
:106bf00054a0b4000006eb00476fde00fd07b200b2
:106c0000ae018800636ce10003003a00eaff070070
:106c10000000eb000e003700606ce10008003a0055
:106c2000004deb000a05e800020039003420ec00ba
:106c30000af0a0008b05e900f9ff3e0004003700d0
:106c40006168e100010032000086eb000b000700e4
:106c500019c7ba001905ba000e04e00003003a0093
:106c60000a00e000dbff3a0000000600fe07b20069
:106c7000ae0288008a047800f5ff37000cd0a3002c
:106c8000e20f4d001c00390089027800354dba0032
:106c90000a05e800020039003420ec000af0a000e8
:106ca0008b05e9000f003200254dba000a05e80007
:106cb000020039003420ec000af0a0008b05e90046
:106cc000080032000c00e0000600320015cdba00ca
:106cd0000a05e800020039003420ec000af0a000a8
:106ce0008b05e9008984e80054a0b4000b00e000a3
:106cf000e2ff3a00000006009902ba00055d780044
:106d00008b05e900f7ff3200c82ade00055d780038
:106d10008b05e900f3ff32000c00e000f1ff3200c8
:106d200019ddba00eeff37004e300400020000000b
:106d3000463004000200000044300400020000005d
:106d40003a3004000200000090300400020000000d
:106d50004c30040002000000743004000200000007
:106d60006216040002000000a41a040002000000e1
:106d700078fc040001000000b605040002000000d9
:106d8000ee050400020000001606040002000000e8
:106d90003600f800809fbe00829fbe00849fbe0028
:106da000869fbe00889fbe008a9fbe008c9fbe004b
:106db0008e1f78003200f8003400f8001000200028
:106dc000a00188000020200090018800ec87470087
:106dd000a0b18000e10f5000390032005885ab00af
:106de000020032005a85ab00ee003a006025ab008d
:106df00025003a006205ab00020032006405ab00da
:106e0000f4003a006285ab00020032006485ab00fa
:106e1000fa003a006245ab00040032006445ab0062
:106e200004013a0040002000102b880062e5ab000e
:106e30000c00320064e5ab000a0032008225ab0092
:106e40000600320090c480001041900001c8b300d9
:106e5000814f51008d0132008225a90000082000d9
:106e6000102b88006225ab00020032006425ab00c5
:106e7000f8003a00a0b18000e30f50000200360095
:106e80006465ab0016003a0092c0a900cf00b100c3
:106e90003400f9003200f9004f0778004f06be00b9
:106ea0004f05be004f04be004f03be004f02be00a0
:106eb0004f01be004f00be003600f9000040060042
:106ec0006cc5ab00c5ff3a0062a5ef006405a800e1
:106ed0006485a80020002000a0b18800bfff370013
:106ee00048c0b300c9892100ea8921002b8a21000a
:106ef000ed8721000d0778006265ab00e2ff3200ec
:106f0000502b8000804c7800e1c48000c408de0073
:106f1000e08921006fcd600081002000112b8800e6
:106f200019417800e8406100d6003a001080fb006b
:106f3000618a210061417800614161000204a20080
:106f4000e14178000304a10002c171008270780061
:106f50001a04e000d5003a009981fb000320a1004b
:106f60000300e000d9003a001980fb00c00fb20016
:106f7000048022000000420090c48800a0c4880061
:106f8000418921001124a20002c0230010016100e8
:106f900001402300810f5100f3003a00900090005f
:106fa000914e7800900090008100e8001100980058
:106fb00010019000f18721009248780010019000a4
:106fc0000201e80012009800100190008102e80020
:106fd000924a7800100190000201e8001200980027
:106fe000100190000183e800124b7800100190001e
:106ff0000201e8001200980010019000e3834000b5
:10700000924b7800100190000201e80012009800f5
:1070100090029000648140001549780010019000b2
:107020000201e8001200980010019000e582400083
:10703000924a7800100190000201e80012009800c6
:107040001001900066834000124b78001001900000
:107050000201e800120098001e00980065892100d6
:10706000804aeb0033b1880043b1880023b1880027
:1070700003c588008c892100004eeb00806421004c
:1070800046b28000164190000274a100124398009d
:107090001024a20046b28000164190000274a100a4
:1070a000124398001024a200a6c48000164190004c
:1070b0000274a10012439800c26221000049eb0053
:1070c00073b18800a36321008049eb000303e8004b
:1070d00096437800004beb000383e800964378006a
:1070e000004beb0007c6b3001ec3630005003a0067
:1070f0001183fb008003eb00eb0f5300e08f5b007c
:10710000d50036000001eb008000eb0030002000cd
:10711000f3bf9f00e5bf9f000c1b020002000000b0
:107120006ca5a90060b18000ffb99700efba970085
:107130000078a30098003a001304e00091033d009a
:1071400020c0b300004e780020b180000000e000b5
:107150001e0132000000eb0070c5880060c5880089
:107160000844e90064ff3a0092c0a900cf00b100d2
:107170003400f9003200f9004f0778004f06be00d6
:107180004f05be004f04be004f03be004f02be00bd
:107190004f01be004f00be003600f900004006005f
:1071a00047ff370008012000c82a88000000eb00d4
:1071b00090b188000001eb008000eb004007200048
:1071c0000c1b0200020000005a85a900c82a880092
:1071d00006ff37000432020000000000a2c0a80031
:1071e00040002000a0b1880010002000102b880073
:1071f0006285ab0007ff320004ff37005a85a80004
:1072000008012000182b88001000200090b1880091
:107210000001eb008000eb00500720000c1b020077
:1072200002000000182b88006245ab00fffe320010
:10723000fafe3700120020008000eb00300720002b
:107240000c1b02000200000040002000102b8800f0
:10725000f6fe3700120020008000eb00f0ff270050
:107260000c1b02000200000066a5ef0020002000b9
:10727000102b8800a0b18000e30f500000ff3e00fb
:1072800001ff37001080fb00eb407800e1c0600098
:107290000104a2006b4178000204a100814071004a
:1072a000817578001a04e0002bff32000001eb002a
:1072b000c1892100200720000c1b020002000000f1
:1072c0000844e9000cff3a00a7ff37001940780096
:1072d0000024a100e84f5000a1ff3a008064210083
:1072e00041b2800091017800ce19de00e1c1610059
:1072f0001024a200a0b18000e80f5000a7003200c7
:107300008c8921009c407800e1cf5000eb003200d6
:10731000a36321001304e0000f003d00e38041005f
:107320001182fb00648041001081fb004811dd00e8
:1073300002017200070032009180fb001080fb0008
:107340004800dd0000807000f3bf9f0000000100d6
:10735000ffb997001374a100004eeb000844e90048
:10736000e5fe3a0080ff37008c89210021c0b30080
:107370009ccf10004e003200004eeb0000c5800094
:107380000000e0000d03320003c588000844e90056
:10739000d9fe3a0074ff37001e04e000c8023d0029
:1073a00010c0b300004e780040b180000000e00043
:1073b000eb0032000000eb0070c5880060c588005b
:1073c00030b180000000e00065ff3a0060c5800039
:1073d0000000e00062ff3a001000200060c5880055
:1073e00071c580000100e0005dff3a0070c58800b3
:1073f00024c0b3009c4f12008c033200828921000c
:1074000015c0b30092cf120055ff3a0001c58800a5
:1074100081c0b30092c480000149780092c480000a
:10742000e68721001601980043c8b3001341980075
:1074300000c58800a0c4800001487800a0c4800076
:107440001600980001c8b300114098000844e900f4
:10745000a9fe3a0044ff37000660010032023700ff
:10746000bf01370027ff3700bd01370025ff370078
:10747000a80137008a013700720137006501370023
:107480002201370005013700ee00370041b28000cd
:107490001141900041c8b300814f51006efe3a0087
:1074a000e8c04000114098008225a9006bfe37001b
:1074b000904178000380fb00b76321001781fb0037
:1074c0000702e8009480fb00c808dd00810071001d
:1074d000810f5000030036009781fb001480fb00f1
:1074e0000380fb001781fb00c56321009580fb0032
:1074f000c808dd00810071000080500097407800ce
:10750000804b78004800de0095407800804a780083
:107510000304e0000d0032000000eb00648821004d
:1075200064835200e38252001681fb009580fb00c9
:10753000c808dd0081007100e4587800c1b18800fe
:107540000000e80080cf5100f7ff3e009780fb006d
:10755000c66321001680fb004800dd00008070003b
:10756000a002320081c0b300a0c4800001487800ae
:10757000a0c48000648821001400980091c4800099
:1075800011e8a300db023a0081ccb300114098005f
:107590000844e90058fe3a00f3fe37000088210055
:1075a0001080fb00702b88006e05e200c7023200dd
:1075b00000012000a0b188008c8921009c40780047
:1075c000e1cf500052ff3a003c00370040b1880044
:1075d00020b188008089210027c0b30090cf13001c
:1075e000df023200418821001180fb000101e80028
:1075f0009280fb00c808dd008100700070b180003f
:10760000808f5000070031000200e9001080fb006d
:10761000820078009180fb00c808dd000100700046
:1076200070b1880070b18000e70f5000ae023e00dc
:1076300070b18000618921001504e000bf023a00aa
:1076400012c0b300824878008080fb0072b18000d5
:107650008100510071b1880041b2800080487800fb
:1076600064882100d4c4880061b180000108a300af
:10767000d8013a000004e0000700320051b1800058
:10768000d2c4800031597800d2c4880051b188003a
:107690000040e900f9ff3a0040b280001400980071
:1076a00081ccb30040b28000114098000000eb0094
:1076b00070c5880060c58800a9fe37006488210075
:1076c00040b280001400980070b18000e70f5000b5
:1076d0008d023e0070b18000658921001504e00034
:1076e000ab023a00814a78008080fb0072b18000d2
:1076f0008100510071b1880041b28000804878005b
:10770000d4c4880061b180000108a300ba013a0026
:107710000004e0000700320051b18000d2c48000b4
:1077200031597800d2c4880051b188000040e90086
:10773000f9ff3a0027c0b30095cf13009d02320035
:107740000304e00074023a0081ccb30040b2800030
:10775000114098000844e900e7fd3a0082fe370036
:1077600040b1880020b188008089210026c0b30084
:10777000904f1300cc023200478821001780fb0095
:107780000701e8009280fb00c808dd00810070005e
:1077900070b18000808f5000070031000700780032
:1077a0001080fb00820078009180fb00c808dd009b
:1077b0000100700070b1880070b18000e70f5000c8
:1077c0005b023e0070b18000618921001504e00079
:1077d000be023a0012c0b300824878008080fb00ed
:1077e00072b180008100510071b1880041b2800007
:1077f0008048780064882100d4c4880061b180008a
:107800000108a30091013a000004e00007003200e3
:1078100051b18000d2c4800031597800d2c48800b0
:1078200051b188000040e900f9ff3a0040b2800001
:107830001400980081ccb30040b280001140980041
:10784000dcfe370060b180000070a00060b18800ed
:10785000248821001480fb00e18821000483e900d2
:10786000967078000001eb008000eb0030002000f3
:10787000f3bf9f00e5bf9f000c1b02000200000049
:107880006ca5a90060b18000ffb99700efba97001e
:107890000078a300c0fe3a0027fe370022882100ae
:1078a0009280fb00e08821000080400050b18800f9
:1078b00060b180000000a00060b1880011c0b3007a
:1078c000e06221000148780060b180000070a000f3
:1078d00060b188000001eb008000eb003000200068
:1078e000f3bf9f00e5bf9f000c1b020002000000d9
:1078f0006ca5a90060b18000ffb99700efba9700ae
:107900000078a300a4fe3a000bfe370060b18000af
:107910000070a00060b18800620020008000eb00d1
:1079200040582000f3bf9f00c4bf9f00e5bf9f00e9
:10793000e24c020000000000020420008000eb0086
:1079400000802200e24c0200000000006c25a8002c
:10795000804deb00608a21000048eb00308a210056
:107960000048eb00708a21000048eb00408a2100ab
:107970000048eb00808a21000048eb00508a21007b
:107980000048eb00908a21000048eb003200200004
:107990008000eb00e0882100e24c020000000000c3
:1079a0006c25a9008080220040b288004fba970061
:1079b00094c48800a4c48800616321000088210069
:1079c00090487800ffb99700efba97001104e000e3
:1079d000fe013a0000012000a0b188000001eb0088
:1079e0008000eb0030002000f3bf9f00e5bf9f0048
:1079f0000c1b0200020000006ca5a90060b1800011
:107a0000ffb99700efba97000078a30062fe3a0032
:107a1000c9fd37006063210050b1880060b180006b
:107a20000000a00060b1880011c0b300e062210036
:107a30000148780060b180000070a00060b188004b
:107a4000a4ff37000001eb008000eb0020002000c5
:107a5000f3bf9f00e5bf9f000c1b02000200000067
:107a6000efba9700ffb997000001eb008000eb0030
:107a700030002000f3bf9f00e5bf9f000c1b0200f9
:107a8000020000006ca5a90060b18000ffb997005a
:107a9000efba97000078a3003ffe3a00a6fd37003a
:107aa00000c8b3009e4f100096fd3a00c16221004d
:107ab00000ccb30000497800128821001240780001
:107ac000e24f50002b023200e34f50000e02320012
:107ad000e14f5000e80032008048eb000001eb006d
:107ae0008000eb0030002000f3bf9f00e5bf9f0047
:107af0000c1b0200020000006ca5a90060b1800010
:107b0000ffb99700efba97000078a30022fe3a0071
:107b100089fd370060b180000070a00060b188006e
:107b200080002000a0b188000001eb008000eb0085
:107b300030002000f3bf9f00e5bf9f000c1b020038
:107b4000020000006ca5a90060b18000ffb9970099
:107b5000efba97000078a3000ffe3a0076fd3700d9
:107b600016c0b30004882100944f1300ab0032000c
:107b7000048821001404e00062fd3a001e437800ee
:107b80007f416300e24f51005efd3a000482e8004d
:107b9000944378006fc163005afd320014437800ab
:107ba0006f4163000281fb00e30f510055fd3c0073
:107bb000a6b1800002022000820f530051fd3a005e
:107bc00062b180000270a00062b188001404e0007d
:107bd00007023500944378006fc163000281fb0007
:107be000020341000264210062017b00b2bf9f00da
:107bf000144278006f4162000282fb00628a210019
:107c0000e2437a000708a3001a023a006a83570089
:107c10006ff197000224a100e2f79f002288210063
:107c20001204e0000c023500124178006f40610040
:107c30003fba97000080fb00000140000064210073
:107c40000430790030c0b300914f1000310232008f
:107c50001624a200bfb897001100e0001c023500f6
:107c6000114090000064a000904098001624a200eb
:107c70000718a300e9013200bfb89700208821004f
:107c80001004e00000023500104078006f426000f0
:107c90000482fb00628a210062407a000014a10085
:107ca00000717a0011409000b043b20090409800fb
:107cb0002200200050002000f3bf9f00e5bf9f007e
:107cc0000c1b020002000000ffb99700efba9700fa
:107cd00021882100914078006fc060000080fb0087
:107ce0000000400021582000010040001014a100b5
:107cf0000001eb008000eb0030002000f3bf9f008c
:107d0000e5bf9f000c1b0200020000006ca5a9004b
:107d100060b18000ffb99700efba97000078a30028
:107d20009dfd3a0004fd370064882100004aeb0005
:107d30008400e8008048eb001e417800ff406100ad
:107d40008180fb00e18f500053013200e28f500030
:107d50003e0132000100e00006003a0060b1800000
:107d60000070a00060b1880080b18000e10f500079
:107d70003f00320060b180000078a300e1fc3200d7
:107d800054b1880060b180000000a00060b188009c
:107d900021c0b300e0622100014878000001eb003f
:107da0008000eb0030002000f3bf9f00e5bf9f0084
:107db0000c1b0200020000006ca5a90060b180004d
:107dc000ffb99700efba97000078a30072fd3a0060
:107dd000d9fc37000004e0002ffe320051b18000d2
:107de000d2c4800031597800d2c4880051b18800d3
:107df0000040e900f7ff37000004e0004dfe3200cc
:107e000051b18000d2c4800031597800d2c48800ba
:107e100051b188000040e900f7ff37009e43780029
:107e20007fc1630052ff3a0062b180000270a0007f
:107e300062b1880032c0b300914f11006901320075
:107e40000001eb0082b1880049ff37000004e00028
:107e500076fe320051b18000d2c4800031597800e2
:107e6000d2c4880051b188000040e900f7ff370014
:107e70001414a000bfff370000f52d0050b188009a
:107e80002001200070b188000001eb008000eb00b1
:107e900030002000f3bf9f00e5bf9f000c1b0200d5
:107ea000020000006ca5a90060b18000ffb9970036
:107eb000efba97000078a30037fd3a009efc370028
:107ec0008389210020c0b300004e780081c0b30038
:107ed000a0c4800001487800a0c48000e78721008a
:107ee0001700980042c8b300124098000000eb0051
:107ef00070c5880060c5880030b180000000e000d7
:107f000097fc3a0060c580000000e00094fc3a0055
:107f10001000200060c5880074c580000400e000e7
:107f20008ffc3a0070c5880025c0b30093cf1200c3
:107f3000be00320016c0b300934f130088fc3a0015
:107f400004c5880093c480008149780093c48000f0
:107f5000e7872100970198009241980000c58800aa
:107f6000a0c4800001487800a0c4800017009800d9
:107f700001c8b300114098000844e900defb3a0054
:107f800079fc370081c0b300a0c4800001487800ac
:107f9000a0c48000e487210014009800c1c8b30089
:107fa00011409800e8c0500040b280001140980095
:107fb0000844e900d0fb3a006bfc370081c0b300f5
:107fc000a0c4800001487800a0c480001d00980073
:107fd000c1c8b300114098000844e900c6fb3a004c
:107fe00061fc370081c0b300a0c480000148780064
:107ff000a0c480001d00980041c8b3001140980043
:10800000d16321001181fb000100e8009081fb0099
:10801000c819dd0003017100050032009180fb00ea
:108020001080fb004800dd000080700000000100af
:10803000a06321001074a10030b180000000e000b6
:1080400047fc3a0060c580000000e00044fc3a00b4
:108050001000200060c5880071c580000100e000ac
:108060003ffc3a0070c5880027c0b3009ccf1300c6
:108070006e0032008289210013c0b30092cf11003c
:1080800037fc3a0001c5880081c0b30092c480006b
:108090000149780092c480001d01980043c8b300d4
:1080a0001341980000c58800a0c4800001487800f2
:1080b000a0c480001d00980001c8b30011409800c2
:1080c0000844e9008cfb3a0027fc37004000200000
:1080d000a0b188008c8921009c407800e1cf50003d
:1080e0008bfc3a0075fd37008100200001407800cc
:1080f00056fd370081c8b300114098000844e900dc
:108100007dfb3a0018fc3700810020000140780018
:108110006589210075fd370081c8b30040b2800039
:10812000114098000844e90073fb3a000efc370048
:108130008100200001407800a9fd370013c0b30082
:1081400091cf1100020032008080fb003ffd37001c
:1081500022c0b300824878008080fb003bfd3700de
:1081600081c0b300a0c4800001487800a0c4800092
:10817000648821001400980081ccb300114098005d
:108180000000eb0070c5880060c58800f4fb370074
:1081900016c0b300954f1300020032008080fb0030
:1081a00052fd370021c0b300814a78008080fb0077
:1081b0004efd370041c8b30040b280001140980026
:1081c0000844e9004cfb3a00e7fb370012002000ae
:1081d00010002000f3bf9f00e5bf9f000c1b0200b2
:1081e0000200000000022000a0b18800ffb9970043
:1081f000efba97000001eb008000eb003000200098
:10820000f3bf9f00e5bf9f000c1b020002000000af
:108210006ca5a90060b18000ffb99700efba970084
:108220000078a3005cfc3a00c3fb370040b280003a
:108230000048eb0081ccb30040b2800011409800b0
:108240000844e9002cfb3a00c7fb370061b180000d
:108250000170a00061b18800218821001104e000b4
:1082600023003500914078006fc060000080fb0063
:108270000000400001642100e10078000040280077
:1082800091006000808f5000bafe3a0010c0b30029
:10829000004a7800b7fe370060b180000070a0008f
:1082a00060b18800b3fe370081c0b300a0c4800075
:1082b00001487800a0c48000648821001400980060
:1082c00081ccb300114098003afc370013c0b300d2
:1082d00091cf1100020032008080fb0040fd37008a
:1082e00022c0b300824878008080fb003cfd37004c
:1082f00091407800efc060008180fb0081804000e9
:10830000e0807800ddff370037c0b3000688210029
:1083100096cf1300f0fd3e00060078001080fb00b1
:108320000000400081752200e100780051b1880012
:1083300050b180001080fb0070b188000001eb009c
:108340008000eb0030002000f3bf9f00e5bf9f00de
:108350000c1b0200020000006ca5a90060b18000a7
:10836000ffb99700efba97000078a3000afc3a0023
:1083700071fb3700048821001480fb0000004000de
:1083800061032e00e100780051b1880051b18000f6
:10839000e0622100a14090000148780051b18000c6
:1083a0000000e800b1409000014878000001eb00b7
:1083b0008000eb0030002000f3bf9f00e5bf9f006e
:1083c0000c1b0200020000006ca5a90060b1800037
:1083d000ffb99700efba97000078a300eefb3a00d0
:1083e00055fb37001200200082b18800e0fd370005
:1083f000144378006f4163000281fb0002014100d9
:1084000060017900b2bf9f00144278006f416200a2
:108410000281fb00eb437900fafd3700bfb89700fb
:108420001100e00015fe350011409000b043b2008d
:108430009040980021882100914078006fc0600032
:108440000080fb0000004000215820000100400097
:108450001014a10026fe3700124178006f41610020
:108460003fba97000281fb0002014100043079000d
:10847000f4fd37006a8357006ff297000424a000d0
:10848000e4f79f00e5fd3700104078006f41600081
:108490000281fb006b4079000014a1008075790017
:1084a00011409000b043b20090409800220020009c
:1084b00050002000f3bf9f00e5bf9f000c1b02008f
:1084c00002000000ffb99700efba970000fe3700e6
:1084d000114090000074a1000064a000904098003a
:1084e0002200200050002000f3bf9f00e5bf9f0046
:1084f000c6bf9f00d7bf9f000c1b020002000000f8
:10850000ffb99700efba97004fbb9700dfbb97000a
:10851000d6fd37001400e0000a003d00208821004d
:108520001004e00019003500104078006f41600031
:108530000281fb00618a2100614079000014a000e3
:10854000807079009440900040c8b30000c0700073
:10855000104298000001eb008000eb00300020008a
:10856000f3bf9f00e5bf9f000c1b0200020000004c
:108570006ca5a90060b18000ffb99700efba970021
:108580000078a30084fb3a00ebfa37001040780033
:10859000ef4060008180fb006bc078000014a000f9
:1085a00080f57800e7ff3700801f78003200f80080
:1085b0003400f80010002000a001880000202000f6
:1085c000900188007ac6a9007ae6a8007a46a90038
:1085d00000048000803d89000000000000000000d1
:1085e00000000000000000008020ef000000fe00fe
:1085f0003400f9003200f9004f0078000040060016
:108600003600f800809fbe00829fbe00849fbe009f
:10861000869fbe003200f8003400f80010002000f1
:10862000a0018800002020009001880011c0b30044
:108630004000210001487800203881000000e80057
:108640002038890021388100b0032000808f50003d
:108650000a003e0082c90200010000003400f90057
:108660003200f9004f03be004f02be004f01be00b2
:108670004f00be003600f900004006007ac6a9008f
:108680007ae6a8007a46a900803e20001e3102004a
:10869000020000000000fe0082c90200010000008c
:1086a0003400f9003200f9004f03be004f02be0053
:1086b0004f01be004f00be003600f900004006002a
:1086c000eeff37003600f800809fbe00829fbe009c
:1086d000849fbe00869fbe003200f8003400f80080
:1086e00010002000a00188000020200090018800d8
:1086f00050e20200010000003400f9003200f900ed
:108700004f03be004f02be004f01be004f00be002f
:108710003600f900004006003600f800809fbe00d9
:10872000829fbe00849fbe00869fbe003200f8007c
:108730003400f80010002000a00188000020200074
:108740009001880050e20200010000003400f900ae
:108750003200f9004f03be004f02be004f01be00c1
:108760004f00be003600f9000040060000a0fe00e9
:108770003600f800849fbe00869fbe003200f800dd
:108780003400f80014002000a40188000420200018
:108790009401880011c0b300400021000148780016
:1087a000f2c90200010000003400f9003200f900b3
:1087b0004f03be004f02be003600f9000080fe00ed
:1087c00000400600881f78008101780002047800cc
:1087d000e20f500009003200224281000200e00056
:1087e00003003200880078000300780002000100d6
:1087f000080078004f047800000006008800780028
:1088000003007800621602000200000008007800f1
:108810004f04780000000600f8ff37008000780061
:108820001104b100030035009101b10001003c00ca
:108830000050a00000000600800078001106b10082
:10884000030035009101b10001003c000050a1007f
:108850000000060000000500839f68000100e000a2
:1088600002003d0060001000e08018000300e000fe
:1088700002003d0060011100e081190014000700b2
:108880004f00e00002003b0060001000e080180094
:1088900000000600811f78000100e00002003d009a
:1088a00060001000e08018000300e00002003d00be
:1088b00060011100e0811900150007004f00e00081
:1088c00002003b0060001000e0801800000006007d
:1088d0006022b800060220000000d0008180d20093
:1088e0000482d2008582d2000000a0000202520061
:1088f00083825a00030031000202420083824a0050
:108900000000a1000603e900f3ff3a0000000600a2
:10891000efff07000400be0000000600889fbe00b5
:108920008a9fbe0030044200b0844a0030054b00ec
:1089300090854b006000b1000898be000a90be0010
:108940000440e10005c8e10006d0e10007d8e100dd
:1089500002003100680040001008e8004f05be002a
:108960004f04be0000000600889fbe008a9fbe0024
:108970003004be002005be000418540005985c00b9
:1089800006185d0007985d00110020000440e1001a
:1089900005c8e10006d0e10007d8e1000100390078
:1089a0008000eb00108810004f05be004f04be0091
:1089b000000006001200fa00889fbe008a9fbe00d9
:1089c0008c9fbe00e0b79f00f1b79f0082bf9f0061
:1089d00093bf9f000605be000404be000000eb002c
:1089e000d0b79f00c0b79f00b0b79f00a0b79f004f
:1089f00090b79f000006eb005fb19700cfb09700e3
:108a0000820141003fb097000200e00004003d00f9
:108a1000370007007e805700c0ff070003003700c3
:108a2000330007007e805700cfff0700dfb69700b6
:108a30000d00e0000c0035006fb29700ffb2970008
:108a40000fbb97009fbb9700100020000100200083
:108a50006011b8000002720081827200020373008c
:108a6000838373001b0007000c06e800010420004c
:108a7000810f5600e0ff3a000d00e00004003d00c9
:108a80000802be000a03be007e805700a3ff070055
:108a90005fa897000000e00005003a001fb29700b1
:108aa000afb297003fb39700cfb39700090007001c
:108ab0006fb09700ffb097000fb997009fb997006c
:108ac0004f06be004f05be004f04be000080fa00f6
:108ad000000006000100070000000600a4b79f0088
:108ae000b5b79f00c6b79f00d7b79f00000006002c
:108af0004f09de0082817100b3b79f004f01de0095
:108b00008180400082807000a1b79f008fb09700e5
:108b10004f09de00000040000200700090b79f0087
:108b20007fa897004f01de008180400082807000a6
:108b300081b79f000d0007004f3ade0000004000a3
:108b400004007000f0af9f0008000700040242001c
:108b500085824a0006034b0087834b00dfff070036
:108b60000802be000a03be00000006002fb29700f4
:108b7000bfb297004fb39700dfb397000000060025
:108b8000881f780018002000881f780089ff0700e0
:108b90008f87e9004f04780000000600801feb007b
:108ba00084ff07008f87e90000000600889fbe0051
:108bb0008a9fbe00e00f5000e08f5800e00f590080
:108bc000e08f59000c003d006044b8006055b800cb
:108bd0000000540081805c0002015d0083815d0023
:108be000180020001500070008003d0018000700cd
:108bf0000004eb00050037000004eb000f00070045
:108c000002003d001200070018002000dcff0700f2
:108c10000800e000060032006022b8006033b800af
:108c20000000520081805a0002015b0083815b00da
:108c30004f05be004f04be0000000600e00f5200ca
:108c4000e08f5a00e00f5b00e08f5b000000060041
:108c50006044b8006055b8000402540085825c008e
:108c600006035d0087835d0000000600889fbe004c
:108c70008a9fbe008c1f7800e00f5000e08f5800e4
:108c8000e00f5900e08f59000d003d006044b8002e
:108c90006055b8000000540081805c0002015d0056
:108ca00083815d001c0020000820e10009a8e1008c
:108cb0000ab0e1000bb8e1000d003d0008003700ec
:108cc0000006eb00e00f5200e08f5a00e00f5b005f
:108cd000e08f5b0006003d006044b8006055b800be
:108ce0000402540085825c0006035d0087835d00fa
:108cf000aaff07000c00e000060032006022b80066
:108d00006033b8000000520081805a0002015b000d
:108d100083815b004f0678004f05be004f04be0004
:108d2000000006000c00fa00889fbe0000047800d6
:108d3000f0ff2700d0bf9f008004eb0099bf9f0089
:108d400088bf9f00a8bf9f00200c2000b0bf9f00dd
:108d500078815700cfb0970070805700100007004f
:108d60000fb89700094878008fb897000880500026
:108d70004f04be000080fa0000000600d001900001
:108d8000028151004240a900030034001001780024
:108d9000014978000208e8000100780000000600a0
:108da000f6874700889fbe008a9fbe008c9fbe004a
:108db0008e1f780000057800a1b79f000207780099
:108dc0008004eb0090023700afb097008100e8000c
:108dd000a1b79f0051c2b300814f500003003a0079
:108de000afb097000004eb0011003700ba0090000c
:108df0000000fb000168a3000700320009017800b1
:108e0000800078000a007800dcff07000000e00026
:108e100005003a007c0237008a0078008d020700c6
:108e2000e10f4000780232008904e8007602370042
:108e30000100780031417800d3c2b300834f510064
:108e40000c00320007003c00edc15100834f51007f
:108e50000a003200ebc14100834f51000d003a007f
:108e60000800370003c3b300834f510009003a00e4
:108e7000060037000830a000edff37000800a00012
:108e8000ebff37000810a000e9ff37000820a00022
:108e9000e7ff37000818a300010032000800a10016
:108ea0000838a300010032000820a1008200fb0066
:108eb0000103b100e98f50000c003e000001780072
:108ec0008000eb006a08b900b201fb000303b100a7
:108ed00080804100020078009201fb000303b10092
:108ee000e98f5100f7ff3600060037008000eb00e5
:108ef000a3c2b300834f510002003a00ce007800b5
:108f00000000e8008005eb00e2c2b300904f1100c2
:108f100009003a0008e0a00064415100d04f110060
:108f200003003200000178000102780006003700db
:108f3000ce0578000000e800000178000900370045
:108f40006a58b9008085410002007800b201fb0038
:108f50000303b100e98f5100f9ff36008400780067
:108f6000f5ff370032407800a2b79f00c3c6b300b8
:108f7000834f5000250032000f003c0032c6b30082
:108f8000824f50008800320004003c000004e000e2
:108f9000220232006b4151000f00370042c6b3007d
:108fa000824f50001700320065414100824f50004f
:108fb00094003a001300370032c7b300824f5000cc
:108fc0001b00320007003c0064415100824f5000fa
:108fd000100032000241e800824f500089003a0040
:108fe0000f00370052c7b300824f50008a00320092
:108ff00063414100824f500082003a00e0df9f0051
:1090000009003700e0df9f00850037000840a0001e
:10901000d4ff3700e0df9f000860a0008000370029
:10902000e0df9f000850a0000870a0007c0037001f
:10903000e0df9f004e007800000678000000e000ae
:1090400001003a000c6222000c0178000000eb00e5
:10905000010037000000e800e24178000304e0006e
:10906000fcff3a00800678000b00e00003003200ad
:109070008d8f5500010031008b0678008005eb00d4
:109080008d8f5000010036008d855000680464000b
:109090002a003a00110037003a0090000068a3004f
:1090a0000700320009017800010220000a00780060
:1090b00032ff07000000e00006003a00060037001b
:1090c0008a00780000022000e2010700e10f400062
:1090d000010032008904e8008b05e9000b00e00084
:1090e000edff3a008085eb00140037003a00900055
:1090f0000068a300090032000c007800b000fb00fb
:1091000000067800090178000a0078001bff0700bc
:109110000000e00008003a00080037008c007800ea
:109120003100fb00010678008a007800c9010700c1
:10913000e10f4000010032008904e8000d007800d2
:109140008006e9000000e000e8ff3a000800e000c7
:10915000ad013200110037003a0090000068a30012
:109160000700320009017800010220000a0078009f
:1091700002ff07000000e00006003a00060037008a
:109180008a00780000022000b2010700e10f4000d1
:10919000010032008904e8008b05e9000b00e000c3
:1091a000edff3a00980137004e017800cf91de00c4
:1091b000c81ade004818dd004812de000402700004
:1091c000e4df9f000848a300080032000404e00028
:1091d00006003200e14f420004003200f4df9f003d
:1091e00082e79f002d00200002003700f2df9f0081
:1091f0001d002000e2fd2f000f0141000206e800e3
:1092000099ff3700e0df9f00ecfd2f000f064600be
:109210001d00200094ff3700e0df9f00080cb30022
:1092200008017800020cb200700064000200e00047
:109230000d003a000000e000020032004e06be00c1
:10924000020037004e067800cfe6de00e00f560041
:10925000e08f5e000a003d003800b3006006160093
:10926000e0861e00060037000000e0000200320029
:109270004e06be00020037004e0678008006eb0066
:109280000b00e00005003a008c8576000bf0a7008b
:109290008b05ea008b05e900cf5dde0088017800d0
:1092a000030cb200e3b79f0000042000808f510040
:1092b0002300320003003c000300e00008003200fd
:1092c0002d003700000820006fb29700800f520079
:1092d0000d003200000c2000800f520026003a00e2
:1092e0008262220010c0b30064014100b20f560038
:1092f000a28f5e001f0039000040e800ea4f5000d6
:10930000f9ff3a001b00370010c0b3000201200033
:1093100003002000820f5600838f5e001500390085
:10932000441add00cc11de00830172004411dd001f
:109330000040e800e84f5000f6ff3a000d0037000b
:1093400010c0b3008200200003002000820f5600ee
:10935000838f5e0007003900431add00cd11de0067
:10936000830172004311dd000040e800eb4f500024
:10937000f6ff3a00e0df9f006fd997000200fb0084
:109380008b0f500002003d00ebdf9f000300370011
:10939000808f550001003d00800578000100e0004d
:1093a0000300320063006400010032008100e90024
:1093b00008e8a300050032008b8f50000200340043
:1093c0008b805000010037008000eb00efd9970040
:1093d0000300fb000002eb00d4b79f00808f500019
:1093e0000200340000805000d0b79f000828a3007e
:1093f00040003200610164000818a3000f00320031
:109400003a0090000068a30006003200b10220007c
:109410000200e000010032008180e80009017800cc
:109420000d003700b00220000200e0000100320011
:109430000080e8008a0078000e0037000200e0009b
:10944000100032003a0090000068a30007003200cc
:1094500009017800010220000a00780047fe070099
:109460000000e00006003a00060037008a0078009d
:1094700000022000f7000700e10f40000100320069
:109480008904e8005fb097000000e0005a00320055
:10949000bcb79f00cdb79f00800678003a009000cf
:1094a0000068a300070032000901780001032000d2
:1094b0000a00780031fe07000000e00006003a00d4
:1094c000060037008a00780000032000e100070052
:1094d000e10f4000010032008904e8008d06e90038
:1094e000eeff3a00ddb79f003fb69700cfb697007a
:1094f00041003700dfb197000300e0001a0032009e
:109500000838a30018003a00bcb79f00cdb79f00f1
:10951000830678003a0090000068a300070032003c
:1095200009017800010220000a00780013fe0700fc
:109530000000e00006003a00060037008a007800cc
:1095400000022000c3000700e10f400001003200cc
:109550008904e8008d06e900eeff3a00ddb79f00c0
:109560003fb69700cfb69700610164000818a300ca
:109570000f0032003a0090000068a300060032009d
:10958000b10220000200e000010032008180e8000a
:10959000090178000d003700b00220000200e00051
:1095a000010032000080e8008a0078000e003700d9
:1095b0000200e000100032003a0090000068a300b2
:1095c0000700320009017800010220000a0078003b
:1095d000eafd07000000e00006003a000600370040
:1095e0008a007800000220009a000700e10f400086
:1095f000010032008904e8000b03e9006330b90080
:1096000000017800b2b79f004233dd008062220083
:10961000000343008e01780093b79f00080778008d
:10962000060478005c0037008b05e9000004200088
:109630006fb29700800f52003800320003003c00e8
:109640000400e000080032003e003700000820005f
:10965000efb09700808f500020003200000c2000f7
:10966000808f500037003a000e48a30010003200ef
:109670001802be000401be000c00be00f4b79f003b
:1096800085bf9f0092fc0700e0df9f000000fb0009
:10969000cf80de007fb297008fba97000401be0032
:1096a000560107000006560081865e00070037005d
:1096b00018017800110009000286d800a2002000dd
:1096c000110009000280d800e1df9f006fd99700e8
:1096d0000243b000e2df9f001a003700f060220072
:1096e0000e58a30001003200e05f220081622200d8
:1096f000810054000c01be008100e900030033002a
:109700008301d1000281d300fbff3700ef0061002d
:10971000e0c07800e1df9f000a0037000c00be00c7
:10972000bfb197008301e900030033008100d1003d
:109730000080d300fbff3700674060000043b000ab
:10974000e0df9f00ba0090006fda97000400fb0092
:109750000168a3000700320009017800800078004a
:109760000a00780085fd07000000e00005003a00cf
:10977000050037008a00780036000700e10f40003e
:10978000010032008904e8003fb0970063005000f8
:10979000b0b79f00640454000b00e000a2ff3a0041
:1097a0000e0478001fb797000838a3001600320097
:1097b000dfb097000100e0001300340001047800de
:1097c0003a0090000068a300070032000901780009
:1097d000010220000a00780068fd07000000e00098
:1097e00006003a00060037008a00780000022000d8
:1097f00018000700e10f4000010032008904e80072
:109800000804e900eeff3a002fb1970012407800fb
:10981000e0df9f000004e0006bfd3a0009007800e3
:109820004f0778004f06be004f05be004f04be0034
:109830006f01b100000006000000fa0068815700c7
:10984000cfb89700c076220055fd07000080fa00cf
:1098500000000600889fbe0001047800b800900058
:109860008084eb000118a3003a0032001801900038
:109870000198a30002003a000200e00035003a001f
:109880000190a0003104980080047800f90fb20024
:109890000200e00002003a0028009000000c78006e
:1098a000ea8f540005003a000178a30003003a0053
:1098b00088007800d0002000e6ff07001800900024
:1098c000d8009000810f50000b0032000000e8002b
:1098d000100498001800780009487800000ce8008f
:1098e00011c0b300a07f220001487800ea8f540025
:1098f00018003a0005003700880078000940780019
:109900007f000700800478001200370038009000c4
:109910000088a3000f00320018019000a8009000fa
:1099200048009000a7fb070098009000810f5000ae
:1099300004003200380090000003b30030049800a7
:109940008084eb000000eb001004980028009000d9
:10995000000c7800090078004f04be0000000600eb
:109960008001780002003700b15978000201e90057
:109970000200e000fcff3a000000060080017800d1
:10998000808f50000900310002824000800f520099
:10999000060036008401780082004000c360780031
:1099a0000201e900fdff3a00000006000200e000ad
:1099b00003003200b15978000201e900fbff3700d3
:1099c000000006008001780002003700815978000d
:1099d0000201e9000200e000fcff3a00000006007e
:1099e000889fbe000004be00050037000000fb0099
:1099f0008900780097ff0700e10f40000400320063
:109a0000384078000004e000f8ff3a000000eb0066
:109a10004f04be0000000600881f7800c1762200b7
:109a2000efff070000047800c1762200a0002000ac
:109a300088ff0700080078004f0478000000060047
:109a40000001780002007800b041780081cf510019
:109a5000030032000304e000f9ff3a000001eb00cc
:109a60000200780000000600b041780031c15100ca
:109a700002003a000304e000fbff3a000200fb0092
:109a80000000060000017800b14178000359780019
:109a90000304e000fcff3a000000060080007800ac
:109aa0003104e000feff3a000080ea000080400040
:109ab0000000060080017800060037000201e9007e
:109ac000b142780085597800030278000504e0006f
:109ad00006003200030278000200e000f7ff3a00bf
:109ae00002003700005aeb000201e9000200e0002a
:109af000fcff3a0000000600c176220055ff370047
:109b00000200fa00889fbe00a0ff9f0001047800b9
:109b1000380090000068a30033003a00e2006000c3
:109b200005003a000003b3003004980011049800c7
:109b30000080eb002e003700d80490000900e00000
:109b400006003a0012002000e6805700480090000e
:109b50001cfb07001904980023003700a8009000a0
:109b60000100e00008003a00d17f220021049800a3
:109b7000010c780021002000510498001104980085
:109b80000030a0003004980018019000a800900058
:109b9000480090000bfb0700280090008080eb003d
:109ba00011049800aff8970001487800000ce80015
:109bb0002ff89700ea4f50000b003a003800900051
:109bc0000088a3000800320018019000a80090004f
:109bd00048009000fbfa07000000eb00100498001a
:109be000a8009000010c7800aff897000100fb007e
:109bf0004f04be000080fa0000000600020ab9000f
:109c0000001bb9000200b80081004200810043003f
:049c1000000006004a
:020000040000fa
:109c1400204d00004e5400000000000020560000bb
:109c24004f4c000000200000464d0000540000008e
:109c3400204d0000425200000077000069700000cf
:109c4400652f0000007000006c610000696e000068
:109c54002d00000043570000412d00004441000046
:109c6400544100002e43000057410000004500000d
:109c7400525200004f5200003a200000507200007f
:109c84006f6200006c6500006d20000064750000c8
:109c9400726900006e6700002025000073660000f2
:109ca4006f7200006d610000742000002830000015
:109cb4007825000030320000782e000020270000b4
:109cc4007374000061740000757300002033000099
:109cd40027200000666f0000722000004e41000043
:109ce4004e44000020680000656100006c740000b0
:109cf400682900002c20000066610000696c0000e7
:109d0400656400003a2500007325000073250000f7
:109d140073250000730d00000a000000464f000088
:109d2400524d0000415400003a200000436f0000ef
:109d34006d7000006c650000746500002e0d00005d
:109d4400004300004f4d00004d490000540d000039
:109d540000450000525200004f5200003a2000001b
:109d6400507200006f6200006c6500006d200000fe
:109d740064750000726900006e67000020630000d3
:109d84006f6d00006d690000740000002c49000034
:109d9400444500004e54000049430000414c00007b
:109da400002c00005345000051550000454e0000b2
:109db40054490000414c0000004300005356000089
:109dc40000430000574100002f7000006163000051
:109dd4006b650000640000004e6f00006e650000bb
:109de40000430000574100002f7500006e70000012
:109df400616300006b65000064000000736900008b
:109e04006e6700006c6500002d660000696c000040
:109e14006500000061750000746f00002d6e000085
:109e2400756d000062650000720000006865000046
:109e34006c70000000480000454c0000503a0000df
:109e440020680000656c0000707c00006563000001
:109e5400686f00007c720000657300006574000088
:109e64000d00000065630000686f000000450000fd
:109e7400434800004f3d0000256400000d0a000027
:109e84000069000064000000494400003d25000012
:109e94006325000063250000632c00002578000082
:109ea4002c250000752c0000256c0000752c00008a
:109eb400256c0000750d00000a00000073610000ad
:109ec4006d7000006c650000002400004241000039
:109ed400545400003d000000257500002c250000ae
:109ee400752c00006d5600002c250000642c000029
:109ef400256400000d0a0000002400004c4400000a
:109f0400523d000000250000752c0000257500005e
:109f14000d0a000000240000544500004d500000cc
:109f24003d000000257500002c250000642c000075
:109f3400302e000031640000430d00000a000000d0
:109f440024540000494d0000453d000025730000e5
:109f54002e25000030330000640d00000a000000cc
:109f64002441000043430000454c00003d00000034
:109f7400256400002c250000642c000025640000ea
:109f84000d0a00000024000047590000524f000051
:109f94003d250000642c0000256400002c250000f1
:109fa400640d00000a00000024470000595200001c
:109fb4004f3d00000d000000737400006174000048
:109fc400757300000054000045530000543d000028
:109fd40025300000347800000d0a00000042000023
:109fe4004154000054480000454100004c54000016
:109ff400483d0000257500000d0a000000460000e1
:10a00400544c00003d250000730d00000a000000c0
:10a0140043480000454300004b530000554d0000e9
:10a024003d25000030340000780d00000a000000d7
:10a03400524500005354000041520000543d0000ba
:10a04400257500000d0a0000004e0000414e00007e
:10a05400443d000025300000347800000d0a000063
:10a06400004e0000414e000044490000443d000001
:10a0740025300000327800003a250000303200001c
:10a08400783a000025300000327800003a250000bc
:10a0940030320000783a00002530000032780000a9
:10a0a4003a25000030320000782c000025640000be
:10a0b4000d0a00000074000065730000745f000066
:10a0c40072650000737500006c740000730000007a
:10a0d40052650000737500006c740000732000006a
:10a0e4006e6f000074200000666f0000756e000043
:10a0f400640d000000570000005700006970000064
:10a10400652000007363000068650000647500004a
:10a114006c650000640d0000005200000052000055
:10a12400652d000074650000737400002073000046
:10a134006368000065640000756c000065640000dd
:10a144000d000000746900006d650000004500000a
:10a15400525200004f5200003a2000004c6f0000a1
:10a16400636b0000656400002e0d000000240000f5
:10a17400544900004d4500003d250000730d0000ca
:10a184000a00000045520000524f0000523a0000fd
:10a1940020500000726f0000626c0000656d0000ca
:10a1a4002070000061720000736900006e67000097
:10a1b40020740000696d0000652e00000d00000091
:10a1c400747a00006f6e000065000000545a0000ad
:10a1d4004f4e0000453d00000d000000545a0000a1
:10a1e4004f4e0000453d0000256400002c25000072
:10a1f4006325000030320000643a0000253000007e
:10a20400327500000d0a0000006800006962000059
:10a21400657200006e610000746500000048000073
:10a2240049420000455200004e41000054450000e0
:10a234003d250000730d00000a0000007374000047
:10a244006f70000000530000544f0000503d0000a8
:10a25400257300000d0a0000006c0000617300000b
:10a2640074630000686100006e67000065640000ac
:10a27400004c0000415300005443000048410000da
:10a284004e470000454400003d250000730d0000ca
:10a294000a0000006d61000078730000616d000029
:10a2a400706c000065730000004d00004158000010
:10a2b400534100004d5000004c450000533d000048
:10a2c400256c0000750d00000a00000064650000a4
:10a2d400627500006700000044450000425500001c
:10a2e400473d0000256400000d0a000000730000d3
:10a2f40065730000736900006f6e00000053000076
:10a3040045530000534900004f4e00003d25000016
:10a314006c7500000d0a00000072000061740000fa
:10a324006500000052410000544500003d25000036
:10a33400752c0000257500002c250000750d00000b
:10a344000a000000636c00006561000072000000f8
:10a35400636c00006561000072200000646100000d
:10a3640074610000006300006c650000617200000d
:10a37400206100006c6c0000004300004c450000ac
:10a38400415200003a20000055730000652000008f
:10a39400276300006c650000617200002064000007
:10a3a4006174000061270000206f0000722000002b
:10a3b400276300006c6500006172000020610000ea
:10a3c4006c6c0000272e00000d000000434c0000c0
:10a3d40045410000523a000020440000656c000032
:10a3e400617900006564000020610000637400006e
:10a3f4006976000061740000696f00006e2e000031
:10a404000d000000434c000045410000520d0000c7
:10a41400006300006f6d00006d69000074000000af
:10a42400434f00004d4d0000495400003a20000005
:10a43400446500006c610000796500006420000040
:10a4440061630000746900007661000074690000b3
:10a454006f6e00002e0d00000064000065760000a1
:10a46400696300006500000044450000564900008f
:10a47400434500003d2500006c7500002c250000bc
:10a484006c7500000d0a0000006100006e6e000093
:10a494006f7400006174000065000000414e00000c
:10a4a4004e4f000054410000544500002530000088
:10a4b400326400003d0000000d0000004552000021
:10a4c400524f0000523a0000204900006e7600000e
:10a4d400616c000069640000206100006e6e000081
:10a4e4006f74000061740000696f00006e2000004a
:10a4f4006964000020250000640d00000a000000cb
:10a5040045520000524f0000523a0000205500000e
:10a51400736100006765000020690000732000007b
:10a52400414e00004e4f00005441000054450000cd
:10a53400232300003d0d000000720000656100004f
:10a54400646c000000450000525200004f520000ad
:10a554003a200000507200006f6200006c65000039
:10a564006d2000007265000061640000696e0000e7
:10a57400672000006c6f00006769000063610000e1
:10a584006c20000073650000637400006f720000ab
:10a59400202500006c7500000d0a00000045000035
:10a5a400525200004f520000257300000d0a0000b3
:10a5b4000052000045410000444c00003d250000cd
:10a5c4006c7500000d0a0000004f00004b250000d0
:10a5d400730d00000a0000005245000041440000d1
:10a5e4003a200000537000006563000069660000b3
:10a5f400792000006c6f000067690000636100004f
:10a604006c20000073650000637400006f7200002a
:10a614000d0000007772000069740000656c000092
:10a6240000450000525200004f5200003a20000042
:10a63400507200006f6200006c6500006d20000025
:10a644007772000069740000696e000067200000e2
:10a654006c6f000067690000636100006c200000fb
:10a6640073650000637400006f7200002025000011
:10a674006c7500000d0a00000057000052490000ec
:10a68400544500004c3d0000256c0000750d000091
:10a694000a0000005752000049540000453a0000e7
:10a6a40020530000706500006369000066790000b3
:10a6b400206c00006f67000069630000616c00009b
:10a6c4002073000065630000746f0000720d0000c9
:10a6d4000072000065610000647200006177000090
:10a6e40000450000525200004f5200003a20000082
:10a6f400507200006f6200006c6500006d20000065
:10a704007265000061640000696e0000672000004b
:10a71400706800007973000069630000616c0000d8
:10a724002073000065630000746f00007220000055
:10a73400256c0000750d00000a0000005245000061
:10a744004144000052410000573d0000256c0000c8
:10a75400750d00000a00000052450000414400004d
:10a7640052410000573a0000205300007065000079
:10a7740063690000667900002072000061770000c0
:10a784002073000065630000746f0000720d000008
:10a7940000460000494c0000454200004c4f0000b8
:10a7a400434b000000460000494c000045420000b5
:10a7b4004c4f0000434b00003d250000750d000088
:10a7c4000a00000045520000524f0000523a0000b7
:10a7d40020500000726f0000626c0000656d000084
:10a7e40020660000696e0000646900006e67000066
:10a7f4002074000068650000207000006879000083
:10a8040073690000636100006c200000626c00004a
:10a814006f6300006b200000666f00007220000070
:10a8240074680000652000006c6f00006769000018
:10a83400636100006c200000736500006374000015
:10a844006f7200002e0d00000045000052520000ff
:10a854004f5200003a200000507200006f62000066
:10a864006c6500006d200000666900006e640000e5
:10a87400696e000067200000746800006520000015
:10a884006c6f000067690000636100006c200000c9
:10a8940073650000637400006f720000206600009e
:10a8a4006f720000207400006865000020660000dc
:10a8b400696c0000652000006f660000667300008c
:10a8c400657400002e0d000000460000494c000095
:10a8d400454200004c4f0000434b00003a2000006a
:10a8e400446100007461000020660000696c00008f
:10a8f400652000006f660000667300006574000048
:10a90400206e00006f74000020730000706500006a
:10a914006369000066690000656400002e0d000094
:10a924000042000041440000424c00004f4300003c
:10a934004b00000042410000444200004c4f000024
:10a94400434b00003d250000752c0000310d000034
:10a954000a00000042410000444200004c4f000045
:10a96400434b00003d250000750d00000a00000067
:10a9740045520000524f0000523a0000205000009f
:10a98400726f0000626c0000656d0000206d0000b5
:10a99400617200006b6900006e67000020620000b5
:10a9a4006c6f0000636b00002061000073200000e6
:10a9b40062610000642e00000d00000042410000ae
:10a9c400444200004c4f0000434b00003a2000007a
:10a9d400506800007973000069630000616c000036
:10a9e400206200006c6f0000636b0000206e0000aa
:10a9f4006f7400002073000070650000636900003c
:10aa040066690000656400002e0d000000770000f8
:10aa14007269000074650000726100007700000034
:10aa240045520000524f0000523a000020500000ee
:10aa3400726f0000626c0000656d000020770000fa
:10aa440072690000746900006e67000020720000e3
:10aa5400617700002073000065630000746f0000dc
:10aa640072200000256c0000750d00000a00000033
:10aa7400575200004954000045520000415700005d
:10aa84003d2500006c7500000d0a0000004f000019
:10aa94004b2c00002062000075740000207400003c
:10aaa4006865000020460000544c0000207300003c
:10aab40074610000746500002069000073200000c8
:10aac400756e000073700000656300006966000025
:10aad4006965000064200000616e000064200000cd
:10aae400746800006520000064690000736b000056
:10aaf40020770000696c00006c2000007072000078
:10ab04006f620000616200006c790000206e00003a
:10ab1400656500006420000061200000464f0000cd
:10ab2400524d0000415400000d0000005752000037
:10ab34004954000045520000415700003a200000eb
:10ab4400537000006563000069660000792000000e
:10ab540072610000772000007365000063740000d8
:10ab64006f720000205b000056450000525900003f
:10ab740020440000414e000047450000524f0000b1
:10ab840055530000215d00000d00000065720000b7
:10ab940061730000657200006177000000450000e9
:10aba400525200004f5200003a2000005072000040
:10abb4006f6200006c6500006d200000657200008b
:10abc40061730000696e0000672000007068000077
:10abd4007973000069630000616c0000206200006a
:10abe4006c6f0000636b00002025000075200000de
:10abf400666f000072200000726100007720000080
:10ac040073650000637400006f720000202500006b
:10ac14006c7500000d0a0000004500005241000060
:10ac2400534500003d2500006c7500002c250000f4
:10ac3400750d00000a000000455200004153000059
:10ac4400453a00002053000070650000636900006d
:10ac54006679000020610000207200006177000026
:10ac64002073000065630000746f00007220000010
:10ac7400696e000020740000686500002062000016
:10ac84006c6f0000636b0000207400006f200000f4
:10ac94006572000061730000652000005b560000cf
:10aca4004552000059200000444100004e47000076
:10acb400455200004f550000532100005d0d000077
:10acc40000730000746100006e640000627900008b
:10acd40000530000544100004e440000425900005b
:10ace4003d3000000d000000737400007265000028
:10acf400616d00000064000061740000616d00007b
:10ad04006f640000650000004441000054410000ed
:10ad14004d4f0000444500003d250000752c000007
:10ad2400257300002c250000730d00000a000000ac
:10ad34006d6f0000756e0000740000004d4f000040
:10ad4400554e0000543d0000256400000d0a00002b
:10ad5400006c000065640000004c000045440000e5
:10ad64003d250000640d00000a000000666f00002d
:10ad7400726d000061740000004600004f52000034
:10ad84004d410000543a0000204400006573000067
:10ad9400747200006f7900002e0d00000046000060
:10ada4004f5200004d410000543a0000204400007e
:10adb40065730000747200006f7900002c2000009d
:10adc400696e0000636c000075640000696e000029
:10add4006720000075730000657200002d6d00008f
:10ade400617200006b650000642000006261000075
:10adf40064200000626c00006f6300006b7300004d
:10ae04002e0d0000004600004f5200004d4100008e
:10ae1400543a000020440000656c00006179000091
:10ae2400656400002061000063740000697600001e
:10ae340061740000696f00006e2e00000d000000b8
:10ae440045520000524f0000523a0000204d0000cd
:10ae540075730000742000007370000065630000c7
:10ae64006966000079200000274600004f52000068
:10ae74004d410000542000005127000020660000ce
:10ae84006f7200002071000075690000636b0000a0
:10ae9400206f000072200000274600004f5200007f
:10aea4004d41000054200000572700002066000098
:10aeb4006f7200002077000069700000652c0000ac
:10aec400202b00002743000027200000666f0000ad
:10aed40072200000434f00004d4d00004954000013
:10aee4002e0d0000006c00006f6700006669000012
:10aef4006c65000000610000004c00004f4700003a
:10af04002e5400005854000000250000732e000049
:10af140025300000336400002c250000730d000070
:10af24000a00000045520000524f0000523a00004f
:10af340020430000616e00006e6f0000742000006a
:10af440077680000696c00006520000061740000ef
:10af54007461000063680000656400002061000003
:10af64006e640000206d00006f7500006e740000b8
:10af7400656400002e0d0000006c00006f67000087
:10af8400004c00004f4700002c250000642c0000fa
:10af94003078000025300000347800002c250000b3
:10afa400732c0000257300000d0a0000004f000000
:10afb4004b0d0000006c00006f6300006b0000008c
:10afc4004c4f0000434b00003d250000640d000081
:10afd4000a000000696c00006f6300006b00000051
:10afe400494c00004f4300004b3d0000300d000071
:10aff400004900004c4f0000434b00003d3100006d
:10b004000d000000756e00006c6f0000636b0000a3
:10b01400004c00004f4300004b3d0000300d000089
:10b024000065000063630000004500004343000026
:10b034003d250000640d00000a0000006672000057
:10b0440061630000746900006f6e0000616c0000b1
:10b05400004600005241000043540000494f0000e4
:10b064004e4100004c3d0000256400000d0a000024
:10b074000072000065730000657400000052000057
:10b0840045530000455400000d00000065780000a1
:10b0940069740000004900004e4600004f3a000069
:10b0a400205900006f750000276c00006c20000020
:10b0b4006861000076650000207400006f200000c5
:10b0c400636c00006f73000065200000746800006a
:10b0d4006520000074650000726d0000696e000058
:10b0e400616c000020770000696e0000646f00004e
:10b0f40077200000796f000075720000736500000e
:10b104006c660000210d00000041000054000000a6
:10b1140045520000524f0000523a000020550000f2
:10b124006e6b00006e6f0000776e000020630000fd
:10b134006f6d00006d6100006e6400003a20000035
:10b14400257300000d0a00000072000000000000da
:10b1540000010000010200000102000002030000df
:10b1640001020000020300000203000003040000c7
:10b1740000550000590c0000653000003c690000d7
:10b18400693c0000306500000c59000055000000c7
:10b1940095c00000cc990000f0a50000a9fc0000b7
:10b1a400fca90000a5f0000099cc0000c0950000a7
:10b1b40099cc0000c0950000fca90000a5f0000097
:10b1c400f0a50000a9fc000095c00000cc99000087
:10b1d4000c59000055000000693c00003065000077
:10b1e400653000003c69000000550000590c000067
:10b1f400a5f00000fca90000c095000099cc000057
:10b20400cc99000095c00000a9fc0000f0a5000046
:10b2140030650000693c0000550000000c59000036
:10b22400590c0000005500003c6900006530000026
:10b234003c69000065300000590c00000055000016
:10b24400550000000c59000030650000693c000006
:10b25400a9fc0000f0a50000cc99000095c00000f6
:10b26400c095000099cc0000a5f00000fca90000e6
:10b27400a9fc0000f0a50000cc99000095c00000d6
:10b28400c095000099cc0000a5f00000fca90000c6
:10b294003c69000065300000590c000000550000b6
:10b2a400550000000c59000030650000693c0000a6
:10b2b40030650000693c0000550000000c59000096
:10b2c400590c0000005500003c6900006530000086
:10b2d400a5f00000fca90000c095000099cc000076
:10b2e400cc99000095c00000a9fc0000f0a5000066
:10b2f4000c59000055000000693c00003065000056
:10b30400653000003c69000000550000590c000045
:10b3140099cc0000c0950000fca90000a5f0000035
:10b32400f0a50000a9fc000095c00000cc99000025
:10b3340095c00000cc990000f0a50000a9fc000015
:10b34400fca90000a5f0000099cc0000c095000005
:10b3540000550000590c0000653000003c690000f5
:10b36400693c0000306500000c59000055000000e5
:10b374005555000056550000595500005a55000017
:10b384006555000066550000695500006a550000c7
:10b394009555000096550000995500009a550000f7
:10b3a400a5550000a6550000a9550000aa550000a7
:10b3b4005556000056560000595600005a560000d3
:10b3c4006556000066560000695600006a56000083
:10b3d4009556000096560000995600009a560000b3
:10b3e400a5560000a6560000a9560000aa56000063
:10b3f4005559000056590000595900005a59000087
:10b404006559000066590000695900006a59000036
:10b414009559000096590000995900009a59000066
:10b42400a5590000a6590000a9590000aa59000016
:10b43400555a0000565a0000595a00005a5a000042
:10b44400655a0000665a0000695a00006a5a0000f2
:10b45400955a0000965a0000995a00009a5a000022
:10b46400a55a0000a65a0000a95a0000aa5a0000d2
:10b474005565000056650000596500005a650000d6
:10b484006565000066650000696500006a65000086
:10b494009565000096650000996500009a650000b6
:10b4a400a5650000a6650000a9650000aa65000066
:10b4b4005566000056660000596600005a66000092
:10b4c4006566000066660000696600006a66000042
:10b4d4009566000096660000996600009a66000072
:10b4e400a5660000a6660000a9660000aa66000022
:10b4f4005569000056690000596900005a69000046
:10b504006569000066690000696900006a690000f5
:10b514009569000096690000996900009a69000025
:10b52400a5690000a6690000a9690000aa690000d5
:10b53400556a0000566a0000596a00005a6a000001
:10b54400656a0000666a0000696a00006a6a0000b1
:10b55400956a0000966a0000996a00009a6a0000e1
:10b56400a56a0000a66a0000a96a0000aa6a000091
:10b574005595000056950000599500005a95000015
:10b584006595000066950000699500006a950000c5
:10b594009595000096950000999500009a950000f5
:10b5a400a5950000a6950000a9950000aa950000a5
:10b5b4005596000056960000599600005a960000d1
:10b5c4006596000066960000699600006a96000081
:10b5d4009596000096960000999600009a960000b1
:10b5e400a5960000a6960000a9960000aa96000061
:10b5f4005599000056990000599900005a99000085
:10b604006599000066990000699900006a99000034
:10b614009599000096990000999900009a99000064
:10b62400a5990000a6990000a9990000aa99000014
:10b63400559a0000569a0000599a00005a9a000040
:10b64400659a0000669a0000699a00006a9a0000f0
:10b65400959a0000969a0000999a00009a9a000020
:10b66400a59a0000a69a0000a99a0000aa9a0000d0
:10b6740055a5000056a5000059a500005aa50000d4
:10b6840065a5000066a5000069a500006aa5000084
:10b6940095a5000096a5000099a500009aa50000b4
:10b6a400a5a50000a6a50000a9a50000aaa5000064
:10b6b40055a6000056a6000059a600005aa6000090
:10b6c40065a6000066a6000069a600006aa6000040
:10b6d40095a6000096a6000099a600009aa6000070
:10b6e400a5a60000a6a60000a9a60000aaa6000020
:10b6f40055a9000056a9000059a900005aa9000044
:10b7040065a9000066a9000069a900006aa90000f3
:10b7140095a9000096a9000099a900009aa9000023
:10b72400a5a90000a6a90000a9a90000aaa90000d3
:10b7340055aa000056aa000059aa00005aaa0000ff
:10b7440065aa000066aa000069aa00006aaa0000af
:10b7540095aa000096aa000099aa00009aaa0000df
:10b76400a5aa0000a6aa0000a9aa0000aaaa00008f
:10b774000c530000454c00004620000054450000d6
:10b7840053540000204600004f5200004d41000079
:10b79400543a0000203100002e3000000d0000005b
:10b7a400485700003a2000002530000031580000be
:10b7b4002e25000030310000582c000020460000e7
:10b7c400573a000020250000750d00000a00000013
:10b7d4004241000054540000203d00002025000098
:10b7e400752000006d5600000d0a0000004c00009a
:10b7f4004947000048540000203d00002025000077
:10b80400750d00000a000000544500004d50000072
:10b8140045520000415400005552000045200000ec
:10b824003d200000256400002e2500007520000046
:10b8340025630000430d00000a000000525400007c
:10b84400432000004652000045510000203d000006
:10b8540020250000754800007a0d00000a00000051
:10b8640052450000442000004c45000044200000e4
:10b87400534300004f520000452000003d200000cb
:10b88400257500000d0a0000004700005245000025
:10b89400454e0000204c00004544000020530000a9
:10b8a400434f000052450000203d000020250000c9
:10b8b400750d00000a000000424c000055450000d0
