:020000040000fa
:080000000004040000000000f0
:020000040000fa
:10080000cf9f20000e7f24000e0188000000000012
:100810000c000700e03a2100010020001100070051
:10082000000020000000e000020032000000020092
:10083000000000003c100200000000000040da0050
:100840000000fe004440a900e00a20000000e00093
:100850000300320000002000a00188004440a800ee
:100860000000060091018800800078000000eb0085
:1008700015003700e280400032a0b4009101ba00b8
:10088000e280400032a0b4009102ba00e280400051
:1008900032a0b4000002eb00472bde00f507b200e7
:1008a000602ce10004003a000059eb008301e900ec
:1008b000fdff3e00040037006128e1000100320026
:1008c0000082eb00040007001101ba000200e00002
:1008d000e8ff3a00000006003159ba008301e90040
:1008e0000c0032002159ba008301e90008003200ef
:1008f0000400e00003003a00e280400032a0b400af
:10090000f5ff370011d9ba008301e900faff3a0078
:100910008100e800e180400032a0b4000000060041
:1009200095a0a90021e3a90085a0a9000000060068
:1009300063198800630262005419880085198800d1
:100940006303630096198800221988001119880032
:10095000001988000000d1006140600000404000a4
:1009600001322000914078000114a10080c0700085
:100970000100780020e3b700000006000080fb00c3
:100980000000400001302000608078000000060078
:020000040000fa
:020000040005f5
:0457f8000f1000008e
:020000040000fa
:020000040005f5
:0457fc004e3f00001c
:020000040000fa
:102800000004040000000000de13040000000000cb
:10281000de13040000000000de13040000000000ce
:10282000de13040000000000de13040000000000be
:10283000de13040000000000de13040000000000ae
:10284000de13040000000000de130400000000009e
:10285000de13040000000000de130400000000008e
:10286000de13040000000000de130400000000007e
:10287000de13040000000000de130400000000006e
:10288000de13040000000000de130400000000005e
:10289000de13040000000000de130400000000004e
:1028a000de13040000000000de130400000000003e
:1028b000de13040000000000de130400000000002e
:1028c000de13040000000000de130400000000001e
:1028d000de13040000000000de130400000000000e
:1028e000de13040000000000de13040000000000fe
:1028f000de13040000000000de13040000000000ee
:10290000de13040000000000de13040000000000dd
:10291000de13040000000000de13040000000000cd
:10292000de13040000000000de13040000000000bd
:10293000de13040000000000de13040000000000ad
:10294000de13040000000000de130400000000009d
:10295000de13040000000000de130400000000008d
:10296000de13040000000000de130400000000007d
:10297000de13040000000000de130400000000006d
:10298000de13040000000000de130400000000005d
:10299000de13040000000000de130400000000004d
:1029a000de13040000000000de130400000000003d
:1029b000de13040000000000de130400000000002d
:1029c000de13040000000000de130400000000001d
:1029d000de13040000000000de130400000000000d
:1029e000de13040000000000de13040000000000fd
:1029f000de13040000000000de13040000000000ed
:102a0000de13040000000000de13040000000000dc
:102a1000de13040000000000de13040000000000cc
:020000040000fa
:1000080004140000081400000c1400001014000070
:10001800141400000c1500000c1500000c1500004d
:10002800181400001c140000201400002414000000
:100038000c150000281400002c14000030140000d7
:1000480034140000381400003c1400004014000070
:1000580044140000481400000c1500000c150000a2
:100068004c140000501400005414000058140000f0
:100078005c1400000c1500006014000064140000fb
:100088000c150000681400006c14000070140000c7
:1000980074140000781400007c1400008014000020
:1000a80084140000881400000c1500000c150000d2
:1000b8000c1500008c14000090140000941400002b
:1000c800981400009c140000a0140000a414000060
:1000d800a8140000ac1400000c1500000c1500005a
:1000e8000c150000b0140000b41400000c1500003a
:1000f8000c150000b8140000bc1400000c1500001a
:100108000c1500000c1500000c1500000c15000063
:100118000c1500000c150000c01400000c150000a0
:100128000c150000c4140000c8140000cc14000012
:100138000c1500000c1500000c1500000c15000033
:10014800d01400000c1500000c1500000c15000060
:100158000c150000d41400000c1500000c1500004c
:100168000c150000d8140000dc140000e014000096
:10017800e4140000e8140000ec140000f01400007f
:10018800f4140000f8140000fc140000001500002e
:1001980004150000081500000c1500000c150000df
:1001a8000c1500000c1500000c1500000c150000c3
:1001b8000c1500000c1500000c1500000c150000b3
:1001c8000c1500000c1500000c1500000c150000a3
:1001d8000c1500000c1500000c1500000c15000093
:1001e8000c1500000c1500000c1500000c15000083
:0801f8000c1500000c150000bd
:020000040000fa
:10099000368500000c850000ee8400003a850000da
:1009a00006000000ff09000001a10000011900007d
:1009b000012900004015000000260000ff00000093
:1009c000750800009540000081000000190100003a
:1009d0002940000091000000c00000001e0300003c
:1009e000430000005700000041000000200000000c
:1009f000420000006f0000006f0000007400000063
:100a00006c0000006f000000610000006400000046
:100a100065000000720000002a0300004e00000084
:100a20006500000077000000630000006100000026
:100a300073000000740000006c00000065000000fe
:100a400020000000550000006e000000690000005a
:100a500076000000650000007200000073000000d6
:100a60006900000074000000790000000403000029
:100a70000904000009020000290000000101000033
:100a800000c0000032090000040000000002000065
:100a90000300000000000000092100001101000017
:100aa00000010000221d0000000700000581000079
:100ab00003400000000100000705000001030000e2
:100ac00040000000010000001201000010010000c1
:100ad0000000000000080000d80400003c000000f6
:0c0ae00002000000010200000001000004
:020000040000fa
:100aec009ec0a9008ea4ef008aa4ef00aa24ef00f8
:100afc00ac24ef00a624ef00a824ef008644a90044
:100b0c00f009200080248800602488008804a80054
:100b1c00018020004808de00c02488000000eb00a3
:100b2c008018eb008018eb000000e800e40f500088
:100b3c00fbff3a009424a8009624ef0094a4a9008b
:100b4c009424a900018d200091407800820020009f
:100b5c000500370052248800c268ef00c368ef001c
:100b6c00c468ef008040eb008ac4bf000038a300cb
:100b7c00f8ff3a0001007800d0e8b7001000200020
:100b8c001045880000458800d428ef00d628ef00d7
:100b9c00ca28ef000000eb00c48b2000228b200041
:100bac0080007800758a2000538a2000001aeb0020
:100bbc000019eb0001f07a0001f079000000e80068
:100bcc00e20f5000f9ff3a0040802000e045880019
:100bdc00d00020005025880080892000104088001b
:100bec0080c0b30000e8b70040c8b30001e8b7000c
:100bfc0001007800c7e8b700c828ef000000060025
:100c0c00a208e2001a003a001000200010458800eb
:100c1c00014580000100e00015003a000045880005
:100c2c00b0c8bf00e24f500006003a00e04580001b
:100c3c000148780081ccb300e04580001140980059
:100c4c0000000600e14f500009003a0051458800b1
:100c5c0081c0b300b045800001487800b1458000e8
:100c6c00808920009000980000c8b3009040980044
:100c7c00000006009146800083c0b300e78f50004f
:100c8c0009003e0081417800b1c8bf0002003a0063
:100c9c0010c0b30003003700e14f500002003a00cf
:100cac0020c0b300b1e8b7000380fb000080500007
:100cbc0090468800e04580000348780000892000b9
:100ccc0070458800d008ab00020032000341780068
:100cdc0012003700034178008041eb00060037001a
:100cec00704580007146800031587800704588004e
:100cfc00714688000241e900834f5100f8ff3a0029
:100d0c000000060070458000714680003158780064
:100d1c0070458800714688000241e9000204e00039
:100d2c00f8ff3a0000000600d428ef00d628ef00a8
:100d3c00008b200021c0b30090cf100009003a00b6
:100d4c0081c0b300b045800001487800b1458000f7
:100d5c00008920009000980080ccb300904098004f
:100d6c00000006009ec8bf000080fb00f189200037
:100d7c0091407800c808dd008080700090468000ab
:100d8c00808f500007003100e189200091407800ed
:100d9c008180fb009fc8bf004800dd00010070008f
:100dac0090468800b3ff070001892000e0458000d1
:100dbc001100980081ccb300e045800011409800f0
:100dcc0000000600889fbe00c808e2000f003a0031
:100ddc009424ef008c24ef00a624ef00a824ef004d
:100dec008644a900f0092000802488006024880033
:100dfc00010037009404a80094c4bf000008a300ad
:100e0c00fcff320010002000404688004046800065
:100e1c00e10f500009003a0094c4bf000068a30021
:100e2c0006003a008aa4ef008c24ef008c04a80082
:100e3c008c84a800200020004046880080c4bf009d
:100e4c000048a3000c00320082c4bf000048a3007d
:100e5c00090032000801200008248800ca28ef008d
:100e6c000001eb008000eb00400720008d0507001f
:100e7c008284a9000824880088c4bf000018a3003d
:100e8c0075023a008ac4bf000008a30008003200b3
:100e9c008cc4bf000008a3000500320010ff07003f
:100eac00400020004046880010002000502488009c
:100ebc008ac4bf000048a3000d0032008cc4bf00e0
:100ecc000048a3000a0032008284a8000801200018
:100edc005824880010002000504688000001eb00c8
:100eec008000eb00500720006e0507005824880096
:100efc008ac4bf000028a3000f0032008cc4bf00be
:100f0c000028a30004003200120020008000eb0037
:100f1c0030072000630507004000200050248800a3
:100f2c00a4c8bf00030032000040e900a4e8b700e9
:100f3c0001003a0032ff07008a44e20014003d0031
:100f4c008c44e20012003d00aac4bf000018a300ac
:100f5c000d003200c24580009240900000c8b300e2
:100f6c0080cf500007003a00e04580009040900090
:100f7c0040c8b30080cf500002003a0068404000e7
:100f8c0010419800aa24a9000008200050248800d1
:100f9c008ac4bf000018a3000a0032008cc4bf0032
:100fac000018a30007003200120020008000eb00a4
:100fbc00f0ff27003b0507008ea4ef002000200067
:100fcc005024880040468000e30f50002202360077
:100fdc008cc4bf000038a3001f0232008044eb0019
:100fec008ac4bf000038a3001b023200902480008a
:100ffc00ade8b7008080fb004408de00ace8b70029
:10100c0084002000542488000004e0000b023a0005
:10101c00d0c2b300a4e8b700810178000320a1007e
:10102c000300e000cf013a00c10fb20000802000a5
:10103c0000814000c2458800b245880012409000f3
:10104c00c043b20041c3b300814f50006c013a0061
:10105c0082007800828920001100900010407800f6
:10106c0000f17900110090000000e8009000980059
:10107c008301e800e88f5100f7ff3a0092009800d6
:10108c00b168ef00d828ef00d428ef00d628ef0085
:10109c00aa28ef00b068ef00e145800011409000f5
:1010ac000074a10090409800e14580001140900030
:1010bc000074a10090409800b14580001140900050
:1010cc000074a10090409800d068ef00d228ef0087
:1010dc00c268ef00c368ef00c468ef0098c8bf0097
:1010ec000046b20014013a0099c8bf000080fb0012
:1010fc0001002000eb0f5000e08f58000e013e0065
:10110c000060010058003700830037000a013700e7
:10111c00810037000801370006003700080037004f
:10112c00010137004e00370030003700ed0037006a
:10113c00f6003700d0e8a8008000200040003700ff
:10114c00818920009140780000c8b30080cf500006
:10115c00f9003a0000ccb300d0e8b7009bc8bf0040
:10116c00e24f500008003200e34f500011003200f3
:10117c00e14f50001b003a00405628007046880092
:10118c0020012000150037009ac8bf000080fb002a
:10119c0000004000e14c2800e08078007146880097
:1011ac0021409000d2e8b70031409000d3e8b7005e
:1011bc00e10037009ac8bf00e24f500009003e0022
:1011cc009ac8bf000080fb0000004000814c280042
:1011dc0060807800704688001080fb009046880084
:1011ec00d5003700d068ef00d3003700d0e8a80056
:1011fc00ac24ef000000eb0001802000010178001e
:10120c000019eb000019eb000000e800e40f50009f
:10121c00fbff3a009424a800ba68ef009424a900bc
:10122c0040802000e0458800c1458800b145880019
:10123c009ac8bf00c7e8b70003003a0000012000bd
:10124c0040468800bc00370012002000718c200042
:10125c00100020009304070000022000f8ff370064
:10126c00708c2000a30037009068ef009168ef00ad
:10127c0098c8bf007f006000e10f50000a003200e8
:10128c00e20f50000a0032000000e0001a003a00a1
:10129c00d0e8a80060468000e10f500016003a002c
:1012ac009028a80014003700d0e8a80012003700de
:1012bc00d0e8a8009c48e200050035009cc8bf009f
:1012cc006f00600000004000218b200004003700fc
:1012dc009cc8bf006f00600000004000c18b200064
:1012ec0060807800104090000028a30002003200bb
:1012fc0010c0b30090e8b700d0e8ab008e0032000d
:10130c000089200070468800d008a80020c0b300d7
:10131c00d2e8b700880037009ac8bf00e14f5000f0
:10132c000b003a0098c8bf007f40600008003a00ec
:10133c00d0e8a80099c8bf00e34f500003003a0062
:10134c00100020006046880001003700cc28ef0018
:10135c009a48e20078003a0098c8bf007f406000cd
:10136c00e24f500074003a009cc8bf006f40600010
:10137c00710032009cc8bf006f006000e10f50008c
:10138c006d003c004146800000022000808f500020
:10139c0069003a00d0e8a8009c48e200090035003a
:1013ac009cc8bf006f00600000004000218b200033
:1013bc00e08178009cc8bf006f006000518a20005b
:1013cc00080037009cc8bf006f00600000004000a0
:1013dc00c18b2000e08178009cc8bf006f006000ca
:1013ec00718a200060c178009c48e200050035003d
:1013fc009cc8bf006f00600000004000218b2000e3
:10140c00040037009cc8bf006f0060000000400063
:10141c00c18b200003b0780099c8bf00e34f500087
:10142c0011003a001300e0000b003d009c48e20064
:10143c00040035009cc8bf006f006000518a20007a
:10144c00030037009cc8bf006f006000718a200049
:10145c00010040001014a0001340900041c8b300dc
:10146c00014070001d0037000218a30005003a006f
:10147c00004028001300600001002800810f50007c
:10148c0013003a009c48e200040035009cc8bf00e1
:10149c006f006000518a2000030037009cc8bf0019
:1014ac006f006000718a2000010040001014a10040
:1014bc0013409000b047b2000064a0009041980027
:1014cc002200200083007800500020001900370013
:1014dc0013409000b047b2000064a0009041980007
:1014ec00150037009cc8bf000080fb00a18b2000ba
:1014fc000100400070468800d008a80010c0b3005e
:10150c00d2e8b700d0e8a8000b003700d0e8a8005c
:10151c009cc8bf000080fb00a18b2000a28920008a
:10152c0012f07800040037000001eb008000eb00a3
:10153c0020002000db0307000001eb008000eb0023
:10154c0030002000d703070094a4a900884680002f
:10155c000808b20013003a00c248e20008003d003f
:10156c0020c0b300b0e8b700d608e20001003a0092
:10157c00edfd07000845880018458800b3003700ca
:10158c0081c0b300b045800001487800b1458000af
:10159c008089200090009800c0c8b300904098004b
:1015ac008d0037009848e20006003d0010c0b300e3
:1015bc00b0e8b700d408e2000c003a00dafd0700ee
:1015cc000a00370020c0b300b0e8b70081c0b300f8
:1015dc00b045800001487800b1458000808920002a
:1015ec009000980040c8b30090409800a028ef00ed
:1015fc00a228ef00d808e20094003a004a00370015
:10160c00008b200021c0b30090cf100048003a009e
:10161c0012427800c3c8bf000080fb00418c200040
:10162c0091407800c808dd00808070000480fb00c9
:10163c00810f500001003600014278000480fb004d
:10164c0000805000c3e8b7004800de00c4e8b700d3
:10165c00058920000e003700c0c8bf000080fb00c9
:10166c00118c200091407800c808dd00808070004b
:10167c000280fb00e0d87a0001007800c0e8b700d7
:10168c00c808de0001007800c1e8b7008301e8005b
:10169c000341780084cf5100efff3900b245800040
:1016ac00318c2000914078008180fb00c4c8bf00c1
:1016bc004800dd00010070000a00320080c0b30059
:1016cc0000497800b1458000008920009000980006
:1016dc00c0458000104090000068a3004500320017
:1016ec004600370080c0b30000497800b145800047
:1016fc00808920009000980040c8b300904098006a
:10170c00518c2000914078008180fb00c6c8bf003e
:10171c004800dd00010070000100320000000100f3
:10172c00c2e8a900b3ff370035fd070047003700ba
:10173c008001fd00b0e8b7008001fd00aa08e200be
:10174c0006003a00044978008089200010019800b6
:10175c00c0c8b300104198003c00370053458800c6
:10176c003a003700e88f510038003a00e04580001d
:10177c00104090004600de0061046000404680008e
:10178c00e80f500008003a009ac8bf000080fb0028
:10179c00b0248800000120009604e20001003a0009
:1017ac004000200040468800008b200011c0b30090
:1017bc0090cf100014003a0000892000e145800011
:1017cc00900098002bfd0700108b200021c0b30067
:1017dc0090cf100004003a0041c8b300e0458000ef
:1017ec001140980019003700e14580000804e00022
:1017fc0002003a0080ccb3000100370080c8b3006f
:10180c009040980011003700c248e20009003d00ea
:10181c00518c2000914078008180fb00c6c8bf002d
:10182c004800dd00010070000100320000000100e2
:10183c00c2e8a900b068ef00040037000001eb001b
:10184c00d18a200020072000160307008944e800f5
:10185c00e4cf5400e2fd3a008ec0a9004f04be0054
:10186c00000006000080fb00800140000180fb00ae
:10187c00008041004200dd00028020000201400097
:10188c00124090000074a10010419800208b2000a1
:10189c000104e00001003200c08b2000823178008e
:1018ac00124090000064a000104198000000060057
:1018bc00889fbe008a1f780000447800014578009c
:1018cc008184fb000938a300020032008040eb0049
:1018dc00e4ff07000928a3000300320011c0b30085
:1018ec0008407800dfff07000880fb000000400084
:1018fc00a14a20000af078004f0578004f04be0082
:10190c00000006000004e0000b003a0081c0b300a8
:10191c00b045800001487800b145800080892000e6
:10192c0090009800c0c8b3009040980041c8b30024
:10193c00e04580000a0037000080fb0000004000fa
:10194c008180fb00010040004200dd00018020008e
:10195c00010040009040900042c8b30082c070006b
:10196c0011409800000006000080fb000104e0001c
:10197c000300320080004000c08b200002003700c2
:10198c0080004000208b2000610278000400e00001
:10199c0002003a0004007800000006001440900099
:1019ac000064a2001042980012029800034a7800ca
:1019bc00144090000044b200104298001440900073
:1019cc0081c8b300014070001042980004007800f8
:1019dc00000006008040780094c4bf000058a300ab
:1019ec000e0032000181fb0002014100c08b20007f
:1019fc0000014100920178001300be000004b20007
:101a0c00010020008089be00120178000004200033
:101a1c0001002000121968001291680000000600f5
:101a2c00e4c9bf000080fb00010020004a09dd0072
:101a3c00c600de00810071004a00dd002204240093
:101a4c00023b88008000fd0032e0b7008000fd0002
:101a5c000081eb000208bb001000fc0050052000c8
:101a6c00303b8800a00a2000303b880061e7a800ca
:101a7c0000000000000000006147e200feff35009e
:101a8c000000060030002400003b8800439a200030
:101a9c00f44c8000054d8000160037000080fb00e0
:101aac00010020000000520081805a008000fd00df
:101abc0032e0b7008000fd001308bb00130190005a
:101acc000288bb001000fc0050052000303b880051
:101adc00a00a2000303b880061e7a800000000004d
:101aec00000000006147e200feff3500a2e9ed00b6
:101afc00e4814100a2c9bf00e8ff3a0061c7a90018
:101b0c00000006000400fa00e0bf9f00f1bf9f0038
:101b1c0021032000914078006ff8970032e0b70065
:101b2c006fb897009081ba001001ba0001007800dc
:101b3c0032e0b7000200be000080fa000000060090
:101b4c00881f780040468000ff0f5000450136008a
:101b5c0088c4bf006244600042013a00e549e200db
:101b6c0022003a00804f80000000e00003003200a9
:101b7c00104090000004e0003a013500904f8000c6
:101b8c000000e00003003200104090000004e00070
:101b9c00340135000000eb00a3952000a28d20003d
:101bac0001042000e27178000000e800810f500071
:101bbc00fcff3a0003c4b300a28d20008040eb0070
:101bcc0010c0b30068ff0700904f880010c0b3002e
:101bdc00e5e9b700a0912000a19520000058eb008a
:101bec00810f50001f013200fcff3700a39520002d
:101bfc0093417800e5cf51006c00320006003e00a6
:101c0c00e3cf51004300320057003e00e2cf5100b9
:101c1c0014013a0006003700e7cf5100b90032003a
:101c2c00b1003900e8cf51000e013a000b0137002a
:101c3c00eb09a800030078001ae9b70080c3b300d1
:101c4c001be9b700030078001ce9b70014c0b3000f
:101c5c00040078001de9b7001e69ef0040c1b30015
:101c6c001fe9b7002069ef002169ef0000c02e00ca
:101c7c00f1ff2f00364f8000474f800006004000d8
:101c8c008780480022e9b7004801de000200780096
:101c9c0023e9b7000100780024e9b7004808de000a
:101cac0025e9b70026e9ef009c49e2000f003a0055
:101cbc0030c0b30026e9b70080cfb30027e9b700e6
:101ccc00b0cab30028e9b7000300780029e9b700cf
:101cdc002a69ef0080c0b3002be9b7002c69ef0034
:101cec002d69ef002e69ef002fe9ef00804f800087
:101cfc000000e00003003200104090000004e000ff
:101d0c00d800350003c4b300a291200084407800b1
:101d1c00cd003700eb09a8005b49e20009003a004e
:101d2c00a0cab300eae9b70087bf2a00374f880082
:101d3c0027002000474f8800080078009ce9b70076
:101d4c00c400370090cab300eae9b70000802a004b
:101d5c00304f880020002000404f880010c0b30096
:101d6c009ce9b700bb003700eb09a80050c0b300da
:101d7c00e4e9b7000300370029ff070011fc070056
:101d8c00e469ec00419e2000914078008180fb00ca
:101d9c00eac9bf000080fb000000e800808f500003
:101dac00f5ff350061c7a900aa003700eb09a800b0
:101dbc00f04c8000014d8000e10f4000e08f4800a6
:101dcc000e003a00b1952000914078008180fb0014
:101ddc005cc9bf004800dd0001017000d1952000f6
:101dec00914078008180fb005ec9bf004800dd0097
:101dfc0081017000f24c8800034d8800b1952000e1
:101e0c00914078008180fb005cc9bf004800dd0078
:101e1c0001017000d1952000914078008180fb0079
:101e2c005ec9bf004800dd00810170000004eb00ba
:101e3c00f04c8000014d8000820f5000838f5800c1
:101e4c002200320083003700249a200014427800cc
:101e5c008481fb008381410080032000010050003d
:101e6c0022002000110009000200d8008580fb0030
:101e7c0001004000000040002196200001004000bd
:101e8c009080fb00104090004800dd0001007000c5
:101e9c00419a200080b178000442e80004007800e8
:101eac00a2e9b700f64c8000074d800061034300a7
:101ebc00e0834b00f64c8800074d8800fc4f520025
:101ecc0001003a00effe07000804e80088427800a1
:101edc005fc9bf008080fb000100d100804f54001f
:101eec00d9ff39005b003700eb09a800e5fe0700bd
:101efc009ea9ef00a0a9ef0008007800e5e9b70063
:101f0c0058003700eb09a800804f80000000e0006b
:101f1c0003003200104090000004e0005100350036
:101f2c00030078001ae9b700b195200091407800c1
:101f3c008180fb005cc9bf004800dd00010170001e
:101f4c00d1952000914078008180fb005ec9bf00d4
:101f5c004800dd0081017000020078001be9b70029
:101f6c004810de001ce9b700030078001de9b7003b
:101f7c004818de001ee9b7005fc9bf001fe9b700b3
:101f8c0029003700b3952000934178008381fb0032
:101f9c00c2952000124178004811dd000300710049
:101fac00d3952000934178008381fb00e2952000bb
:101fbc00124178004811dd00830071000881fb009c
:101fcc00030020000000410081804900cdfe070085
:101fdc008881fb00f2952000124178000281fb0001
:101fec000201d10082815100838141000204200052
:101ffc0003014100a5912000050141000049780032
:10200c004802de001441980081037800f70fb200fb
:10201c002304b00085814100874978004838de00f0
:10202c009041980008c4e8005fc9bf000080fb0025
:10203c000000d100804f5400d2ff390003c4b3001c
:10204c00a291200011c0b3000140780046fe0700a9
:10205c00804f8800e569ef0002003700101504007e
:10206c00000000004f047800000006000400fa0095
:10207c00cce2a900ccc2bf000080fb004700de0010
:10208c004700dd00812c2000914078000174a100f4
:10209c0080c0700001007800c8e2b700c8c2bf0061
:1020ac000080fb004700de004200dd00c12c200058
:1020bc00914078000124a10080c0700001007800dc
:1020cc00cce2b700ccc2bf004200de006100600071
:1020dc004200dd00812c2000914078000124a100f9
:1020ec0080c0700001007800c8e2b700c8c2bf0011
:1020fc004200de00610060004600dd00c12c2000c3
:10210c00914078000164a10080c07000010078004b
:10211c00cce2b700ccc2bf004600de00610060001c
:10212c004600dd00812c2000914078000164a10064
:10213c0080c0700001007800c8e2b700e422a9005a
:10214c00e4c2bf000000d10061006000004040000c
:10215c00012e2000914078000114a10080c0700075
:10216c0001007800e0e2b700e0c2bf000000d1003f
:10217c00610060004200dd00412e2000914078009b
:10218c000124a10080c0700001007800e4e2b700d7
:10219c00e4c2bf004200de00610060004200dd00ce
:1021ac00012e2000914078000124a10080c0700015
:1021bc0001007800e0e2b700e0c2bf004200de00a0
:1021cc00610060004300dd00412e2000914078004a
:1021dc000134a10080c0700001007800e4e2b70077
:1021ec00e4c2bf004300de00610060004300dd007c
:1021fc00012e2000914078000134a10080c07000b5
:10220c0001007800e0e2b700d922a800c982a8003a
:10221c00f0bd2c00601988002aa3ef00d962a80039
:10222c00dbc2bf000038a30003003200dbc2bf00da
:10223c000018a3000200320010150400000000007a
:10224c00bb000700cc42a800103a8000f0bf9f00f2
:10225c00ff3ffc000080a0000090a10000a0a100a6
:10226c00648157000000a000002978007ff89700d7
:10227c000080fb00a309200081072000347420009b
:10228c00014a7800034a7800004a78001281fb006a
:10229c007105200060042000237420008049780020
:1022ac0081497800824978000000fc0042c7bf00d9
:1022bc000008a300fdff3a0042c7bf000058a3006e
:1022cc00fdff320045c7bf0081cfb3000140600065
:1022dc0045e7b700ec69ef00eb09a90000fa07002d
:1022ec00f229ef00f029ef0090cab300eae9b70039
:1022fc0004802a00344f880024002000444f8800ba
:10230c0010c0b3009ce9b700e569ef009ea9ef008f
:10231c00a0a9ef00a269ef004c003700a9fa070052
:10232c00dbc2bf000038a30001003a000000fe0031
:10233c009a09e20002003a0000712200d04c880099
:10234c00d14c80008100e900d14c88003e003a005d
:10235c00ec49ec0000417800ece9b700eb09ab006c
:10236c0027003a0030c6b300804f510024003600dd
:10237c00a1248800113a8000e1bf9f00ff3ffc00c0
:10238c000070200080817000030278000400a0001f
:10239c00e4bf9f005ff897000080fb00a2092000bb
:1023ac00810720003374200081497800824978002d
:1023bc00804978004ffa97000481fb0071052000da
:1023cc006004200023742000804978008149780043
:1023dc00824978000000fc0042c7bf000008a3003f
:1023ec00fdff3a0045c7bf0081cfb300014060003c
:1023fc0045e7b700cc42a90010150400000000000e
:10240c004146800000022000808f50000d003a00f1
:10241c00ccc2bf000080fb004200de000004a20022
:10242c00614060004200dd00c12c2000914078002a
:10243c000124a10080c0700001007800cce2b7003c
:10244c0001003700cc42a900bdfd0700dbc2bf0074
:10245c000038a300b1ff3a000000eb000080fa0046
:10246c000000060000000600000006000000060048
:10247c00000006006a00370000000600d1c1b3005e
:10248c0010c0b3000afd070003c4b300a28d2000e6
:10249c008040eb0010c0b30033fd0700904f880064
:1024ac0000000600e10f500003003200e30f500063
:1024bc0004003a0002003700f0ff0700010037006b
:1024cc00ecff0700100005007007a90011f90700c8
:1024dc000003eb00054223000082eb00f3bd2c004f
:1024ec003241290081402800000e20000df9070020
:1024fc0021e3a80085a0a9002043a80085c0bf0047
:10250c000058a300fdff32002043a90020c3bf00e8
:10251c000008a300fdff320020c0b30014f907002f
:10252c00a04f880021e3a9007007a8000000060056
:10253c000200fa00103a8000f0bf9f00ff3ffc0041
:10254c00f08f2f00ffb897008080600000502000b3
:10255c0080817000030078000000a000f0bf9f0095
:10256c007ff897000080fb00a20920008107200063
:10257c0033742000814978008249780080497800c2
:10258c006ff897000081fb007105200060042000ab
:10259c0023742000804978008149780082497800b2
:1025ac000000fc0042c7bf000008a300fdff3a007a
:1025bc0045c7bf0081cfb3000140600045e7b700bd
:1025cc00410620000060fe008100e800400620006b
:1025dc00808f500001003600cc42a80090062000ed
:1025ec00808f5000f7ff3600cc42a900b6ff0700e1
:1025fc00a14f800080202000808f500006003e00fc
:10260c00dbc2bf008000eb000038a300edff3a00f6
:10261c000000fe00ebff37000080fa00000006000f
:10262c0098c8bf007f406000e14f500047003a005f
:10263c009c48e20045003a0099c8bf00e64f5000a4
:10264c001b003a00b1892000914078007b4040008b
:10265c0080cf5000040032000040e80080cf5000d2
:10266c0013003a0008003700708c200011c0b30032
:10267c0090cf10000e003a00c0542800704688001d
:10268c009000200007003700708c200011c0b300b0
:10269c0090cf100006003a00004d280070468800cc
:1026ac00d00120009046880000ccb300d0e8b700e1
:1026bc0098c8bf000046b20001c2b300814f500061
:1026cc0022003a0099c8bf00e34f500014003200ba
:1026dc0003003e00e24f50001c003a00050037009a
:1026ec00ea4f500009003200eb4f500017003a003f
:1026fc0012003700b09f20007046880010002000a8
:10270c009046880010ccb3000a00370000c8b30014
:10271c00d0e8b7009bc8bf00fbe9b700000006007b
:10272c00a09f200070468800100020009046880072
:10273c0010c8b300d0e8b7000000060000c8b30012
:10274c00d0e8b7009ac8bf00fae9b700000006004d
:020000040000fa
:10275c00ee0900000600000002000000010000006d
:10276c00000000009a090000540000000000000066
:10277c00da080000c000000000000000f4090000ae
:10278c000600000000000000fa0900000200000032
:10279c000000000010080000ca000000000000004b
:1027ac000008000010000000000000000000000005
:020000040000fa
:0827bc000040da000000fe00fd
:00000001FF
