:1000000000EF04F000F000F004EF04F000F000F066
:1000100000F000F000F000F00CEF04F01200FF0020
:100800001BEF04F0FF00FF00E1CF11F0E2CF12F088
:10081000D9CF13F0DACF14F0F2B2F2A802D0EBEC99
:100820002AF014C0DAFF13C0D9FF12C0E2FF11C0D2
:10083000E1FF110011000FEF2EF0346E166A240E46
:10084000156E186A34C017F01A6A100E196EEDECA6
:100850002EF0AD0E2724F66EF76AF40EF722F86A32
:10086000000EF8220800F5CF1FF0AD0E2624F66E1C
:10087000F76AF60EF722F86A000EF8220800F5CFA4
:1008800020F0AD0E2524F66EF76AF50EF722F86A11
:10089000000EF8220800F5CF21F0AD0E2424F66EEC
:1008A000F76AF70EF722F86A000EF8220800F550F2
:1008B000211820181F18226E236AAD0E2224F66E0E
:1008C000F80E2320F76EF86A000EF8223450D96E25
:1008D000DA6A0800F5CFDFFFAD0E2724F66EF76A5F
:1008E000F60EF722F86A000EF8220800F5CF1FF086
:1008F000AD0E2624F66EF76AF50EF722F86A000EA2
:10090000F8220800F5CF20F0AD0E2524F66EF76A28
:10091000F70EF722F86A000EF8220800F5CF21F052
:10092000AD0E2424F66EF76AF40EF722F86A000E74
:10093000F8220800F550211820181F18226E236A8B
:10094000AD0E2224F66EF80E2320F76EF86A000E24
:10095000F8223450D96EDA6A050ED9260800F5CF90
:10096000DFFFAD0E2724F66EF76AF50EF722F86A60
:10097000000EF8220800F5CF1FF0AD0E2624F66E0B
:10098000F76AF70EF722F86A000EF8220800F5CF92
:1009900020F0AD0E2524F66EF76AF40EF722F86A01
:1009A000000EF8220800F5CF21F0AD0E2424F66EDB
:1009B000F76AF60EF722F86A000EF8220800F550E2
:1009C000211820181F18226E236AAD0E2224F66EFD
:1009D000F80E2320F76EF86A000EF8223450D96E14
:1009E000DA6A0A0ED9260800F5CFDFFFAD0E2724FC
:1009F000F66EF76AF70EF722F86A000EF822080082
:100A0000F5CF1FF0AD0E2624F66EF76AF40EF7222E
:100A1000F86A000EF8220800F5CF20F0AD0E25246C
:100A2000F66EF76AF60EF722F86A000EF822080052
:100A3000F5CF21F0AD0E2424F66EF76AF50EF722FD
:100A4000F86A000EF8220800F550211820181F1827
:100A5000226E236AAD0E2224F66EF80E2320F76E66
:100A6000F86A000EF8223450D96EDA6A0F0ED926D1
:100A70000800F5CFDFFFAD0E2B24F66EF76AF40EFB
:100A8000F722F86A000EF8220800F5CF1FF0AD0E2D
:100A90002A24F66EF76AF60EF722F86A000EF8229C
:100AA0000800F5CF20F0AD0E2924F66EF76AF50E9A
:100AB000F722F86A000EF8220800F5CF21F0AD0EFB
:100AC0002824F66EF76AF70EF722F86A000EF8226D
:100AD0000800F550211820181F18226E236AAD0E49
:100AE0002224F66EF80E2320F76EF86A000EF82224
:100AF0003450D96EDA6A040ED9260800F5CFDFFF2C
:100B0000AD0E2B24F66EF76AF60EF722F86A000E89
:100B1000F8220800F5CF1FF0AD0E2A24F66EF76A12
:100B2000F50EF722F86A000EF8220800F5CF20F043
:100B3000AD0E2924F66EF76AF70EF722F86A000E5A
:100B4000F8220800F5CF21F0AD0E2824F66EF76AE2
:100B5000F40EF722F86A000EF8220800F55021186A
:100B600020181F18226E236AAD0E2224F66EF80E8E
:100B70002320F76EF86A000EF8223450D96EDA6A34
:100B8000090ED9260800F5CFDFFFAD0E2B24F66E37
:100B9000F76AF50EF722F86A000EF8220800F5CF82
:100BA0001FF0AD0E2A24F66EF76AF70EF722F86AE8
:100BB000000EF8220800F5CF20F0AD0E2924F66EC5
:100BC000F76AF40EF722F86A000EF8220800F5CF53
:100BD00021F0AD0E2824F66EF76AF60EF722F86AB9
:100BE000000EF8220800F550211820181F18226E58
:100BF000236AAD0E2224F66EF80E2320F76EF86AF3
:100C0000000EF8223450D96EDA6A0E0ED92608008A
:100C1000F5CFDFFFAD0E2B24F66EF76AF70EF72245
:100C2000F86A000EF8220800F5CF1FF0AD0E2A2456
:100C3000F66EF76AF40EF722F86A000EF822080042
:100C4000F5CF20F0AD0E2924F66EF76AF60EF722E6
:100C5000F86A000EF8220800F5CF21F0AD0E282426
:100C6000F66EF76AF50EF722F86A000EF822080011
:100C7000F550211820181F18226E236AAD0E222469
:100C8000F66EF80E2320F76EF86A000EF822345044
:100C9000D96EDA6A030ED9260800F5CFDFFFAD0E54
:100CA0002F24F66EF76AF40EF722F86A000EF82287
:100CB0000800F5CF1FF0AD0E2E24F66EF76AF60E83
:100CC000F722F86A000EF8220800F5CF20F0AD0EEA
:100CD0002D24F66EF76AF50EF722F86A000EF82258
:100CE0000800F5CF21F0AD0E2C24F66EF76AF70E52
:100CF000F722F86A000EF8220800F5502118201893
:100D00001F18226E236AAD0E2224F66EF80E2320E1
:100D1000F76EF86A000EF8223450D96EDA6A080EBF
:100D2000D9260800F5CFDFFFAD0E2F24F66EF76A47
:100D3000F60EF722F86A000EF8220800F5CF1FF031
:100D4000AD0E2E24F66EF76AF50EF722F86A000E45
:100D5000F8220800F5CF20F0AD0E2D24F66EF76ACC
:100D6000F70EF722F86A000EF8220800F5CF21F0FE
:100D7000AD0E2C24F66EF76AF40EF722F86A000E18
:100D8000F8220800F550211820181F18226E236A37
:100D9000AD0E2224F66EF80E2320F76EF86A000ED0
:100DA000F8223450D96EDA6A0D0ED9260800F5CF34
:100DB000DFFFAD0E2F24F66EF76AF50EF722F86A04
:100DC000000EF8220800F5CF1FF0AD0E2E24F66EAF
:100DD000F76AF70EF722F86A000EF8220800F5CF3E
:100DE00020F0AD0E2D24F66EF76AF40EF722F86AA5
:100DF000000EF8220800F5CF21F0AD0E2C24F66E7F
:100E0000F76AF60EF722F86A000EF8220800F5508D
:100E1000211820181F18226E236AAD0E2224F66EA8
:100E2000F80E2320F76EF86A000EF8223450D96EBF
:100E3000DA6A020ED9260800F5CFDFFFAD0E2F24A7
:100E4000F66EF76AF70EF722F86A000EF82208002D
:100E5000F5CF1FF0AD0E2E24F66EF76AF40EF722D2
:100E6000F86A000EF8220800F5CF20F0AD0E2D2410
:100E7000F66EF76AF60EF722F86A000EF8220800FE
:100E8000F5CF21F0AD0E2C24F66EF76AF50EF722A1
:100E9000F86A000EF8220800F550211820181F18D3
:100EA000226E236AAD0E2224F66EF80E2320F76E12
:100EB000F86A000EF8223450D96EDA6A070ED92685
:100EC0000800F5CFDFFFAD0E3324F66EF76AF40E9F
:100ED000F722F86A000EF8220800F5CF1FF0AD0ED9
:100EE0003224F66EF76AF60EF722F86A000EF82240
:100EF0000800F5CF20F0AD0E3124F66EF76AF50E3E
:100F0000F722F86A000EF8220800F5CF21F0AD0EA6
:100F10003024F66EF76AF70EF722F86A000EF82210
:100F20000800F550211820181F18226E236AAD0EF4
:100F30002224F66EF80E2320F76EF86A000EF822CF
:100F40003450D96EDA6A0C0ED9260800F5CFDFFFCF
:100F5000AD0E3324F66EF76AF60EF722F86A000E2D
:100F6000F8220800F5CF1FF0AD0E3224F66EF76AB6
:100F7000F50EF722F86A000EF8220800F5CF20F0EF
:100F8000AD0E3124F66EF76AF70EF722F86A000EFE
:100F9000F8220800F5CF21F0AD0E3024F66EF76A86
:100FA000F40EF722F86A000EF8220800F550211816
:100FB00020181F18226E236AAD0E2224F66EF80E3A
:100FC0002320F76EF86A000EF8223450D96EDA6AE0
:100FD000D92A0800F5CFDFFFAD0E3324F66EF76A8D
:100FE000F50EF722F86A000EF8220800F5CF1FF080
:100FF000AD0E3224F66EF76AF70EF722F86A000E8D
:10100000F8220800F5CF20F0AD0E3124F66EF76A15
:10101000F40EF722F86A000EF8220800F5CF21F04E
:10102000AD0E3024F66EF76AF60EF722F86A000E5F
:10103000F8220800F550211820181F18226E236A84
:10104000AD0E2224F66EF80E2320F76EF86A000E1D
:10105000F8223450D96EDA6A060ED9260800F5CF88
:10106000DFFFAD0E3324F66EF76AF70EF722F86A4B
:10107000000EF8220800F5CF1FF0AD0E3224F66EF8
:10108000F76AF40EF722F86A000EF8220800F5CF8E
:1010900020F0AD0E3124F66EF76AF60EF722F86AEC
:1010A000000EF8220800F5CF21F0AD0E3024F66EC8
:1010B000F76AF50EF722F86A000EF8220800F550DC
:1010C000211820181F18226E236AAD0E2224F66EF6
:1010D000F80E2320F76EF86A000EF8223450D96E0D
:1010E000DA6A0B0ED9260800F5CFDFFF0B0CD20E03
:1010F000F66EFB0EF76E000EF86E0800F550800AD3
:10110000266E2550800A265C2AE3D20EF66EFB0E70
:10111000F76E000EF86E08000001F5CF73F0746BE7
:10112000D20EF66EFB0EF76E000EF86E0800F5CFCD
:1011300078F0796BD20EF66EFB0EF76E000EF86E3D
:101140000800F5CF7DF07E6BD20EF66EFB0EF76ECB
:10115000000EF86E0800F5CF82F0836B9AD0255010
:10116000800A266EDD0EF66EFB0EF76EF86A08003A
:10117000F550800A265C2AE3DD0EF66EFB0EF76E54
:10118000F86A08000001F5CF73F00B0E746FDD0EE6
:10119000F66EFB0EF76EF86A0800F5CF78F00B0ECE
:1011A000796FDD0EF66EFB0EF76EF86A0800F5CF6C
:1011B0007DF00B0E7E6FDD0EF66EFB0EF76EF86A9D
:1011C0000800F5CF82F00B0E836F63D0010E000193
:1011D000876FD20E8725F66EF76AFB0EF722F86A44
:1011E000000EF8220800F550800A266E2550800A6D
:1011F000265C4BE3266827688751286E296A2650AB
:10120000282627502922D20E2824F66EFB0E2920EC
:10121000F76EF86A000EF8220800F5CF73F0870524
:10122000746F266827688751286E296A26502826F9
:1012300027502922D20E2824F66EFB0E2920F76EA5
:10124000F86A000EF8220800F5CF78F08705796F6C
:10125000D20E8725F66EF76AFB0EF722F86A000EAB
:10126000F8220800F5CF7DF087C07EF0D20E8725EA
:10127000F66EF76AFB0EF722F86A000EF8220800F5
:10128000F5CF82F087C083F004D0872B0B0E8765E3
:10129000A0D7886B8851050DF3CF26F0262A26505B
:1012A000730FD96EDA6ADF50726F72511E0D450EE0
:1012B000F324F66EF10EF420F76EF86A000EF822B1
:1012C0000900F5CF26F00900F5CF27F02350265C62
:1012D0002450275856E372511E0D450EF324F66E26
:1012E000F10EF420F76EF86A000EF8220900F5CF2F
:1012F00026F00900F5CF27F08851050DF3CF28F02F
:10130000020E28262850730FD96EDA6A26C0DEFF37
:1013100027C0DDFFB50EF66EFB0EF76E000EF86E01
:101320008851050DF3CF26F0040E26262650730FA4
:10133000D96EDA6A0800F5CFDFFF72511E0D450E37
:10134000F324F66EF10EF420F76EF86A000EF82220
:101350000900F5CF26F00900F5CF27F08851050DDB
:10136000F3CF28F0070E28262850730FD96EDA6ABB
:1013700026C0DEFF27C0DDFFB50EF66EFB0EF76E52
:1013800077D072511E0D1C0EF326000EF422450E6E
:10139000F324F66EF10EF420F76EF86A000EF822D0
:1013A0000900F5CF26F00900F5CF27F02650235C81
:1013B000275024585EE372511E0D1C0EF326000EBA
:1013C000F422450EF324F66EF10EF420F76EF86A5F
:1013D000000EF8220900F5CF26F00900F5CF27F01E
:1013E0008851050DF3CF28F0020E28262850730FE0
:1013F000D96EDA6A26C0DEFF27C0DDFFC30EF66EA7
:10140000FB0EF76EF86A8851050DF3CF26F0040E37
:1014100026262650730FD96EDA6A0800F5CFDFFF53
:1014200072511E0D1C0EF326000EF422450EF324FD
:10143000F66EF10EF420F76EF86A000EF82209003D
:10144000F5CF26F00900F5CF27F08851050DF3CF31
:1014500028F0070E28262850730FD96EDA6A26C0A6
:10146000DEFF27C0DDFFC30EF66EFB0EF76EF86AD7
:10147000A8D0010E876F72511E0D450E266EF10E1B
:10148000276EF3502626F45027228751020DF35081
:101490002626F450272226C0F6FF27C0F7FFF86A59
:1014A0000900F5CF28F00900F5CF29F02350285C7A
:1014B0002450295801E293D0FE0E266E27688751EA
:1014C000286E296AD8902836293672511E0D450E8D
:1014D0002A6EF10E2B6EF3502A26F4502B22285040
:1014E0002A2629502B2226502A2627502B222AC072
:1014F000F6FF2BC0F7FFF86A0900F5CF2CF00900C2
:10150000F5CF2DF08851050DF3CF2EF0020E2E26CB
:101510002E50730FD96EDA6A2CC0DEFF2DC0DDFFAE
:10152000266827688751286E296A26502826275062
:101530002922B50E2824F66EFB0E2920F76EF86AD4
:10154000000EF8228851050DF3CF2AF0040E2A264A
:101550002A50730FD96EDA6A0800F5CFDFFF725197
:101560001E0D450E266EF10E276EF3502626F45002
:1015700027228751020DF3502626F450272226C039
:10158000F6FF27C0F7FFF86A0900F5CF28F0090039
:10159000F5CF29F08851050DF3CF2AF0070E2A2642
:1015A0002A50730FD96EDA6A28C0DEFF29C0DDFF2A
:1015B000B50E8725F66EF76AFB0EF722F86A000E65
:1015C000F8228851050DF3CF26F0090E2626265065
:1015D000730FD96EDA6A0800F5CFDFFF04D0872BCE
:1015E0000E0E876548D7020E8827030E886552D6EF
:1015F000886B8851050DF3CF26F0020E2626265063
:10160000730FD96EDA6ADECF27F0DDCF28F088516C
:10161000050DF3CF29F0070E29262950730FD96E37
:10162000DA6ADECF2AF0DDCF2BF027502A5C686F14
:1016300028502B58696F6951681101E1E2D0885137
:10164000050DF3CF26F0090E26262650730FD96E0E
:10165000DA6ADF50276E8851050DF3CF28F0040EAB
:1016600028262850730FD96EDA6ADF50275C626F24
:10167000636BD8A0630762C026F063C027F0000E3A
:1016800027BEFF0E286E296E8851050DF3CF2AF074
:10169000020E2A262A50730FD96EDA6ADECF2BF09B
:1016A000DDCF2CF02B50235C2D6E2C5024582E6E49
:1016B0002F6A306A2D502602F3CF31F0F4CF32F08A
:1016C000336A346A2702F3503226F4503322000E74
:1016D00034222E502602F3503226F4503322000ECC
:1016E00034222D502802F3503326F45034222E5049
:1016F0002702F3503326F45034222F502602F350A1
:101700003326F450342229502D02F35034262E5023
:101710002802F35034262F502702F350342630503D
:101720002602F350342633C034F032C033F031C0D7
:1017300032F0316AD8908831040DF3506A0FD96EB7
:10174000DA6A31C0DEFF32C0DEFF33C0DEFF34C0F4
:10175000DDFFD906D9068851050DF3CF26F0040E1A
:1017600026262650730FD96EDA6ADF50276E27C0FF
:1017700028F0296A2A6A2B6A2AC02BF029C02AF08D
:1017800028C029F0286AD8908831040DF3506A0FD8
:10179000D96EDA6ADECF15F0DECF16F0DECF17F0A5
:1017A000DECF18F068C019F069C01AF0000E1ABE3A
:1017B000FF0E1B6E1C6EBBEC25F015C02CF016C086
:1017C0002DF017C02EF018C02FF028502C24306EAA
:1017D00029502D20316E2A502E20326E2B502F2072
:1017E000336ED8908831040DF3506A0FD96EDA6ADF
:1017F00030C0DEFF31C0DEFF32C0DEFF33C0DDFFB0
:1018000027D08851050DF3CF26F0040E262626504A
:10181000730FD96EDA6ADF50276E27C028F0296A65
:101820002A6A2B6A2AC02BF029C02AF028C029F086
:10183000286AD8908831040DF3506A0FD96EDA6A9D
:1018400028C0DEFF29C0DEFF2AC0DEFF2BC0DDFF7F
:10185000D906D906020E8827030E8865CAD6D20E8D
:101860007425F66EF76AFB0EF722F86A000EF8226E
:101870000800F5CF26F0D20E7E25F66EF76AFB0E35
:10188000F722F86A000EF8220800F5CF27F026505C
:10189000275C686FE86AD8A0E80627BEE80626BE7F
:1018A000E82A696F6951681166E02550646F000E7F
:1018B00064BFFF0E656F666F676F6A516E5D626F22
:1018C0006B516F59636FD20E7425F66EF76AFB0E7B
:1018D000F722F86A000EF8220800F550266E000E76
:1018E00026BEFF0E276E286E296E2650645F275095
:1018F000655B2850665B2950675B64C015F065C066
:1019000016F066C017F067C018F062C019F063C027
:101910001AF0000E1ABEFF0E1B6E1C6EC1EC2BF0EF
:1019200015C064F016C065F017C066F018C067F007
:1019300064C015F065C016F066C017F067C018F0F7
:10194000000168C019F069C01AF0000E1ABEFF0E3F
:101950001B6E1C6EBBEC25F015C026F016C027F0E0
:1019600017C028F018C029F06A512624606F6B5107
:101970002720616F04D06AC060F06BC061F060C066
:1019800023F061C024F01200326E166A220E156E2A
:10199000186A32C017F01A6A100E196EEDEC2EF0AC
:1019A0003250D96EDA6AAD0E3124F66EF76AF90E4E
:1019B000F722F86A000EF8220800F5CF1FF0AD0EEE
:1019C0002C24F66EF76AF90EF722F86A000EF82258
:1019D0000800F5CF20F0AD0E2724F66EF76AF30E5F
:1019E000F722F86A000EF8220800F5CF21F0AD0EBC
:1019F0002224F66EF76AF20EF722F86A000EF82239
:101A00000800F550211820181F18DF6E3250D96ECB
:101A1000DA6AD92AAD0E3124F66EF76AF90EF7228A
:101A2000F86A000EF8220800F5CF1FF0AD0E2C2446
:101A3000F66EF76AF30EF722F86A000EF822080035
:101A4000F5CF20F0AD0E2724F66EF76AF20EF722DE
:101A5000F86A000EF8220800F5CF21F0AD0E22241E
:101A6000F66EF76AF90EF722F86A000EF8220800FF
:101A7000F550211820181F18DF6E3250D96EDA6A1F
:101A8000020ED926AD0E3124F66EF76AF30EF72258
:101A9000F86A000EF8220800F5CF1FF0AD0E2C24D6
:101AA000F66EF76AF20EF722F86A000EF8220800C6
:101AB000F5CF20F0AD0E2724F66EF76AF90EF72267
:101AC000F86A000EF8220800F5CF21F0AD0E2224AE
:101AD000F66EF76AF90EF722F86A000EF82208008F
:101AE000F550211820181F18DF6E3250D96EDA6AAF
:101AF000030ED926AD0E3124F66EF76AF20EF722E8
:101B0000F86A000EF8220800F5CF1FF0AD0E2C2465
:101B1000F66EF76AF90EF722F86A000EF82208004E
:101B2000F5CF20F0AD0E2724F66EF76AF90EF722F6
:101B3000F86A000EF8220800F5CF21F0AD0E22243D
:101B4000F66EF76AF30EF722F86A000EF822080024
:101B5000F550211820181F18DF6E3250D96EDA6A3E
:101B6000040ED926AD0E2524F66EF76AF90EF7227B
:101B7000F86A000EF8220800F5CF1FF0AD0E3024F1
:101B8000F66EF76AF90EF722F86A000EF8220800DE
:101B9000F5CF20F0AD0E2B24F66EF76AF30EF72288
:101BA000F86A000EF8220800F5CF21F0AD0E2624C9
:101BB000F66EF76AF20EF722F86A000EF8220800B5
:101BC000F550211820181F18DF6E3250D96EDA6ACE
:101BD000050ED926AD0E2524F66EF76AF90EF7220A
:101BE000F86A000EF8220800F5CF1FF0AD0E302481
:101BF000F66EF76AF30EF722F86A000EF822080074
:101C0000F5CF20F0AD0E2B24F66EF76AF20EF72218
:101C1000F86A000EF8220800F5CF21F0AD0E262458
:101C2000F66EF76AF90EF722F86A000EF82208003D
:101C3000F550211820181F18DF6E3250D96EDA6A5D
:101C4000060ED926AD0E2524F66EF76AF30EF7229E
:101C5000F86A000EF8220800F5CF1FF0AD0E302410
:101C6000F66EF76AF20EF722F86A000EF822080004
:101C7000F5CF20F0AD0E2B24F66EF76AF90EF722A1
:101C8000F86A000EF8220800F5CF21F0AD0E2624E8
:101C9000F66EF76AF90EF722F86A000EF8220800CD
:101CA000F550211820181F18DF6E3250D96EDA6AED
:101CB000070ED926AD0E2524F66EF76AF20EF7222E
:101CC000F86A000EF8220800F5CF1FF0AD0E3024A0
:101CD000F66EF76AF90EF722F86A000EF82208008D
:101CE000F5CF20F0AD0E2B24F66EF76AF90EF72231
:101CF000F86A000EF8220800F5CF21F0AD0E262478
:101D0000F66EF76AF30EF722F86A000EF822080062
:101D1000F550211820181F18DF6E3250D96EDA6A7C
:101D2000080ED926AD0E2924F66EF76AF90EF722B1
:101D3000F86A000EF8220800F5CF1FF0AD0E24243B
:101D4000F66EF76AF90EF722F86A000EF82208001C
:101D5000F5CF20F0AD0E2F24F66EF76AF30EF722C2
:101D6000F86A000EF8220800F5CF21F0AD0E2A2403
:101D7000F66EF76AF20EF722F86A000EF8220800F3
:101D8000F550211820181F18DF6E3250D96EDA6A0C
:101D9000090ED926AD0E2924F66EF76AF90EF72240
:101DA000F86A000EF8220800F5CF1FF0AD0E2424CB
:101DB000F66EF76AF30EF722F86A000EF8220800B2
:101DC000F5CF20F0AD0E2F24F66EF76AF20EF72253
:101DD000F86A000EF8220800F5CF21F0AD0E2A2493
:101DE000F66EF76AF90EF722F86A000EF82208007C
:101DF000F550211820181F18DF6E3250D96EDA6A9C
:101E00000A0ED926AD0E2924F66EF76AF30EF722D4
:101E1000F86A000EF8220800F5CF1FF0AD0E24245A
:101E2000F66EF76AF20EF722F86A000EF822080042
:101E3000F5CF20F0AD0E2F24F66EF76AF90EF722DB
:101E4000F86A000EF8220800F5CF21F0AD0E2A2422
:101E5000F66EF76AF90EF722F86A000EF82208000B
:101E6000F550211820181F18DF6E3250D96EDA6A2B
:101E70000B0ED926AD0E2924F66EF76AF20EF72264
:101E8000F86A000EF8220800F5CF1FF0AD0E2424EA
:101E9000F66EF76AF90EF722F86A000EF8220800CB
:101EA000F5CF20F0AD0E2F24F66EF76AF90EF7226B
:101EB000F86A000EF8220800F5CF21F0AD0E2A24B2
:101EC000F66EF76AF30EF722F86A000EF8220800A1
:101ED000F550211820181F18DF6E3250D96EDA6ABB
:101EE0000C0ED926AD0E2D24F66EF76AF90EF722E8
:101EF000F86A000EF8220800F5CF1FF0AD0E282476
:101F0000F66EF76AF90EF722F86A000EF82208005A
:101F1000F5CF20F0AD0E2324F66EF76AF30EF7220C
:101F2000F86A000EF8220800F5CF21F0AD0E2E243D
:101F3000F66EF76AF20EF722F86A000EF822080031
:101F4000F550211820181F18DF6E3250D96EDA6A4A
:101F50000D0ED926AD0E2D24F66EF76AF90EF72276
:101F6000F86A000EF8220800F5CF1FF0AD0E282405
:101F7000F66EF76AF30EF722F86A000EF8220800F0
:101F8000F5CF20F0AD0E2324F66EF76AF20EF7229D
:101F9000F86A000EF8220800F5CF21F0AD0E2E24CD
:101FA000F66EF76AF90EF722F86A000EF8220800BA
:101FB000F550211820181F18DF6E3250D96EDA6ADA
:101FC0000E0ED926AD0E2D24F66EF76AF30EF7220B
:101FD000F86A000EF8220800F5CF1FF0AD0E282495
:101FE000F66EF76AF20EF722F86A000EF822080081
:101FF000F5CF20F0AD0E2324F66EF76AF90EF72226
:10200000F86A000EF8220800F5CF21F0AD0E2E245C
:10201000F66EF76AF90EF722F86A000EF822080049
:10202000F550211820181F18DF6E3250D96EDA6A69
:102030000F0ED926AD0E2D24F66EF76AF20EF7229A
:10204000F86A000EF8220800F5CF1FF0AD0E282424
:10205000F66EF76AF90EF722F86A000EF822080009
:10206000F5CF20F0AD0E2324F66EF76AF90EF722B5
:10207000F86A000EF8220800F5CF21F0AD0E2E24EC
:10208000F66EF76AF30EF722F86A000EF8220800DF
:10209000F550211820181F18DF6E1200010E0001E4
:1020A0009D6F4AD1A50501E014D1A56BFE0E226EED
:1020B0008B0E216E46EC2CF0FF0E226E850E216EEB
:1020C00046EC2CF001015F51BDEC2DF015C021F064
:1020D00016C022F046EC2CF001015E51BDEC2DF053
:1020E00015C021F016C022F046EC2CF001015D5124
:1020F000BDEC2DF015C021F016C022F046EC2CF0FE
:1021000001015C51BDEC2DF015C021F016C022F08C
:1021100046EC2CF0FC0E226E480E216E46EC2CF0A4
:102120000101875113E0FF0E226EB80E216E46ECBE
:102130002CF00101010E226E870E216E46EC2CF070
:10214000FC0E226E480E216E46EC2CF00001A66BB0
:10215000A651050DB00EF324F66EFA0EF420F76EBC
:10216000F86A000EF8220900F5CF21F00A00F5CF39
:1021700022F046EC2CF000019B6B9C6BA651050DE8
:10218000040EF326000EF422B00EF324F66EFA0EBF
:10219000F420F76EF86A000EF8220800F55007E107
:1021A000FC0E226E480E216E46EC2CF087D0A65114
:1021B000050D040EF326000EF422B00EF324F66E85
:1021C000FA0EF420F76EF86A000EF8220800F5CF38
:1021D00096F0960519E1A651050D020EF326000EA4
:1021E000F422B00EF324F66EFA0EF420F76EF86ABD
:1021F000000EF8220900F5CFD9FF0900F5CFDAFF6C
:10220000DF509B6F9C6B48D0A651050D040EF32642
:10221000000EF422B00EF324F66EFA0EF420F76EE0
:10222000F86A000EF8220800F550020A35E1A651BE
:10223000050D020EF326000EF422B00EF324F66E06
:10224000FA0EF420F76EF86A000EF8220900F5CFB6
:10225000D9FF0900F5CFDAFFDF50966FA651050DC3
:10226000020EF326000EF422B00EF324F66EFA0EE0
:10227000F420F76EF86A000EF8220900F5CF97F007
:102280000900F5CF98F09729D96E000E9821DA6EE3
:10229000DF509C6F96519B6FFF0E226EE20E216EF7
:1022A00046EC2CF09BC020F09CC021F0A6EC2FF057
:1022B000FC0E226E480E216E46EC2CF00001A62B7F
:1022C000120EA66545D7FB0E226EFA0E216E46EC65
:1022D0002CF0FC0E8B168B80ABCF96F0060E000117
:1022E000961707E0AECF1AF1AB9800F0AB88AECFEF
:1022F0001AF12FEC26F024C0A8F025C0A9F00001A7
:10230000A951A81103E100019D6BFDD10F0EA8C0DA
:10231000D9FFA9C0DAFFDF6203D0AAEC31F0F3D114
:10232000A76BFC0E8B168B50A8C0D9FFA9C0DAFF93
:10233000DF5004E1010E0001A56FE5D1A9C016F040
:10234000A8C015F0FF0E186ECF0E176E1A6A040E95
:10235000196E88EC2CF0165015100CE1CCEC30F016
:10236000010E0001A56FFF0E226E1B0E216E46ECC2
:102370002CF0C9D10001A9C016F0A8C015F0FF0EBD
:10238000186E740E176E1A6A080E196E88EC2CF00F
:10239000165015100CE1010E69EC21F0010EA56F2D
:1023A000FF0E226E310E216E46EC2CF0ACD10001F6
:1023B000A9C016F0A8C015F0FF0E186ECA0E176E51
:1023C0001A6A040E196E88EC2CF01650151045E1AF
:1023D000010E00019A6F870E996F0101010E166EB2
:1023E000870E156E186A176A1A6A100E196E2CEC91
:1023F00030F0040E0001A827000EA92302D0A84B3C
:10240000A92BA8C0D9FFA9C0DAFFDF50200AF7E046
:10241000A8C0D9FFA9C0DAFFDF503D0A0FE1EFD70E
:10242000A8C0D9FFA9C0DAFF99C0E1FF9AC0E2FFB6
:10243000DFCFE7FFA84BA92B994B9A2BA8C0D9FF58
:10244000A9C0DAFFDF50ECE1010EA56FFF0E226E8E
:10245000310E216E46EC2CF056D10001A9C016F0C9
:10246000A8C015F0FF0E186EC40E176E1A6A050E7E
:10247000196E88EC2CF0165015100CE1070E69EC63
:1024800021F0010EA56FFF0E226E310E216E46EC7B
:102490002CF039D10001A9C016F0A8C015F0FF0E2C
:1024A000186ED40E176E1A6A040E196E88EC2CF092
:1024B0001650151007E1FF0E226E7D0E216E46ECC0
:1024C0002CF021D70001A9C016F0A8C015F0FF0E0E
:1024D000186EA40E176E1A6A060E196E88EC2CF090
:1024E0001650151008E14DEC29F0020E91EC2DF07C
:1024F0008CEC23F008D10001A9C016F0A8C015F09B
:10250000FF0E186EAB0E176E1A6A060E196E88EC67
:102510002CF01650151009E16AEC2FF0FF0E226E18
:10252000F20E216E46EC2CF005D70001A9C016F082
:10253000A8C015F0FF0E186EBE0E176E1A6A050EB3
:10254000196E88EC2CF0165015100CE1FF0E226E5F
:102550007D0E216E46EC2CF0FC0E8B168B50AAECF7
:1025600031F0BBD00001A76BA751050DB00EF324CD
:10257000F66EFA0EF420F76EF86A000EF8220900E3
:10258000F5CF15F00A00F5CF16F016EC30F0155027
:102590009E6FA9C016F0A8C015F0A751050DB00E8A
:1025A000F324F66EFA0EF420F76EF86A000EF822A5
:1025B0000900F5CF17F00A00F5CF18F09EC019F00A
:1025C0001A6A88EC2CF01650151001E081D0000139
:1025D0009E51A825966F000EA921976F96C021F0F5
:1025E00097C022F021EC22F021C0A1F022C0A2F07D
:1025F00023C0A3F024C0A4F00001A129D8B4A229CB
:10260000D8B4A329D8B4A4295FE0A1C09FF0A2C088
:10261000A0F0A751050D040EF326000EF422B00E13
:10262000F324F66EFA0EF420F76EF86A000EF82224
:102630000800F550020A1DE1A751050D020EF32610
:10264000000EF422B00EF324F66EFA0EF420F76EAC
:10265000F86A000EF8220900F5CF96F00900F5CFD0
:1026600097F09629D96E000E9721DA6EA0C0DFFF91
:1026700014D0A751050D040EF326000EF422B00E5F
:10268000F324F66EFA0EF420F76EF86A000EF822C4
:102690000800F5CF96F0960517E1A751050D020E3B
:1026A000F326000EF422B00EF324F66EFA0EF42098
:1026B000F76EF86A000EF8220900F5CFD9FF09007D
:1026C000F5CFDAFF9FC0DFFFA76B010EA56F05D026
:1026D0000001A72B120EA76547D70001A75113E0F1
:1026E000FD0E226E730E216E46EC2CF00001A9C087
:1026F00022F0A8C021F046EC2CF0FF0E226EDE0E78
:10270000216E46EC2CF000019D67CCD4FC0E8B169C
:102710008B501200010E02015E6F656F666F5F6B7A
:10272000606B7EC172F27FC173F284C146F285C1D3
:1027300047F280C148F281C149F2716BF28EFB0E03
:10274000306E8D0E2F6EE7EC2DF0060E02016B6FD2
:10275000020E6D6F610E6C6F790E73C13BF03C6AB7
:102760003BC03CF03B6A3B10616F3C50626F646B56
:10277000800E636F020E216E6B0E206E000E236AB8
:10278000226ACFEC15F05CC167F25DC168F25EC1F0
:1027900069F25FC16AF2080E0201456F3A0E6AC221
:1027A0003BF03C6A3BC03CF03B6A3B104A6F3C50FC
:1027B0004B6F3B0E69C23BF03C6A3BC03CF03B6A4E
:1027C0003B104C6F3C504D6F3C0E68C23BF03C6A76
:1027D0003BC03CF03B6A3B104E6F3C504F6F3D0E90
:1027E00067C23BF03C6A3BC03CF03B6A3B10506F19
:1027F0003C50516F3F0E6AC23BF03C6A3BC03CF01C
:102800003B6A3B10526F3C50536F400E69C23BF025
:102810003C6A3BC03CF03B6A3B10546F3C50556FE8
:10282000410E68C23BF03C6A3BC03CF03B6A3B1047
:10283000566F3C50576F420E67C23BF03C6A3BC03C
:102840003CF03B6A3B10586F3C50596F320E45C20A
:102850003BF03C6A3BC03CF03B6A3B105A6F3C503B
:102860005B6F5D6B800E5C6F060E6E6F020E706F9D
:102870004A0E6F6F020E216E6E0E206E000E236ADE
:10288000226ACFEC15F087D14607D8A0470702018E
:102890004629D8B4472911E184C146F285C147F2DF
:1028A000FB0E216EE70E206E020E236E000E226ECE
:1028B000CFEC15F0070E0201716F4807D8A0490749
:1028C00002014829D8B4492910E180C148F281C1E8
:1028D00049F2010182510201655DD8A0652B010119
:1028E00083510201665DD8A0662B38EC24F002010A
:1028F0005F2758EC30F002016027C2D0FC0E8B1627
:102900008B507207D8A0730702017229D8B47329BB
:1029100001E0CDD0736B010E726F716F7207D8A09A
:10292000730702017351721101E1C1D0605102E0DD
:10293000050E07D05F5102E0030E03D0736B010E4A
:10294000726F716FB4D065510CE0FE0E256E6C0E87
:10295000246E9EEC31F0020ED7EC22F002016507E6
:1029600006D0FC0E256ECB0E246E9EEC31F07AC1A3
:1029700072F27BC173F2040E0201716F7207D8A06C
:10298000730702017229D8B4732909E1FC0E8B1672
:102990008B505F6B7EC172F27FC173F2716BFC0E64
:1029A0008B168B8084D066510CE0FD0E256EBF0E19
:1029B000246E9EEC31F0030ED7EC22F00201660784
:1029C00006D0FC0E256E970E246E9EEC31F00101B0
:1029D000AD6705D07CC172F27DC173F210D021EEDB
:1029E0007CF0DECF3BF0DDCF3CF0D8903C323B3288
:1029F000D8903C323B323BC072F23CC073F2060EC0
:102A00000201716F7207D8A0730702017229D8B44E
:102A1000732909E1FC0E8B168B50606B7EC172F23C
:102A20007FC173F2716BFC0E8B168B8240D0FC0E53
:102A30008B168B50FC0E256EB20E246E9EEC31F080
:102A40004DEC29F0020186C172F2736B080E716FB2
:102A50007207D8A0730702017229D8B4732906E15E
:102A60007EC172F27FC173F2716B21D0FF0E256EB1
:102A7000D90E246E9EEC31F0010ED7EC22F017D067
:102A8000715101E13BD7010A01E148D7030A01E195
:102A90004DD7010A01E157D7070A01E16FD7010AB3
:102AA00082E0030AAFE0010AC2E00F0AD1E00101AF
:102AB000190508E1FD0E256ED20E246E9EEC31F054
:102AC00002015E6B01017051B05D7151B15908E2B4
:102AD000FD0E256EE50E246E9EEC31F002015E6B5C
:102AE00082B457D0000E0201736F0A0E726F45D088
:102AF00082BE120002017207D8A073077229D8B4EF
:102B0000732910E1FD0E256E5F0E246E9EEC31F0F0
:102B1000010E69EC21F0FC0E8B168B8082A4FED78F
:102B20008EEF31F0FC0E256EE30E246E9EEC31F03C
:102B300070EC27F0166A320E156E88EC2FF09BECC5
:102B400026F0166A320E156E88EC2FF04DEC29F047
:102B5000010ED7EC22F0FC0E8B168B82010E166E46
:102B6000F40E156E88EC2FF0FC0E8B168B50010EB8
:102B7000166EF40E156E88EC2FF082A4B9D782C1C0
:102B800065F283C166F27EC172F27FC173F2020107
:102B9000716B8EEC31F002015E6776D61200F2980E
:102BA00021502010D8B4120020C0F6FF21C0F7FF3A
:102BB000000EF86E0F0EF76403D00800F55005D034
:102BC000F6CFE1FFF7CFE2FFE750446E476A486A6D
:102BD0002028246E000E2120256E24C0F6FF25C07B
:102BE000F7FF000EF86E0F0EF76407D00900F5CF5F
:102BF0002DF00900F5CF2EF008D0F6CFE1FFF7CF8A
:102C0000E2FFE6CF2DF0E6CF2EF084D1456A466A8A
:102C10007DEC2BF0ABD1456A466A45EC31F0A6D18C
:102C2000456A466ADEEC30F0A1D1456A466A42EC5C
:102C300030F09CD1456A466A93EC30F097D1456AF2
:102C4000466A020E2D24156E000E2E20166E2D28BB
:102C5000246E000E2E20256E24C0F6FF25C0F7FF3F
:102C6000000EF86E0F0EF76403D00800F55005D083
:102C7000F6CFE1FFF7CFE2FFE750176E2DC0F6FF6A
:102C80002EC0F7FF000EF86E0F0EF76403D0080099
:102C9000F55005D0F6CFE1FFF7CFE2FFE75036EC75
:102CA0002EF064D1456A466A2DC0F6FF2EC0F7FFAC
:102CB000000EF86E0F0EF76403D00800F55005D033
:102CC000F6CFE1FFF7CFE2FFE750246E2D28256E07
:102CD000000E2E20266E25C0F6FF26C0F7FF000E40
:102CE000F86E0F0EF76403D00800F55005D0F6CF4C
:102CF000E1FFF7CFE2FFE750296E2450286E2850FD
:102D0000800A291001E132D12D28246E000E2E20D8
:102D1000256E24C0F6FF25C0F7FF000EF86E0F0EDB
:102D2000F76403D00800F55005D0F6CFE1FFF7CFE8
:102D3000E2FFE750156E2DC0F6FF2EC0F7FF000E24
:102D4000F86E0F0EF76403D00800F55005D0F6CFEB
:102D5000E1FFF7CFE2FFE75012EC31F0020E2D2633
:102D6000000E2E22A1D72A6A2B6A070E446E2C6A07
:102D70001FD02C502D24246E000E2E20256E242AC8
:102D8000000E252224C0F6FF25C0F7FF000EF86EC6
:102D90000F0EF76403D00800F55005D0F6CFE1FF21
:102DA000F7CFE2FFE7502A26000E2B22020E2C2638
:102DB0002C502D24246E000E2E20256E242A000E69
:102DC000252224C0F6FF25C0F7FF000EF86E0F0E77
:102DD000F76403D00800F55005D0F6CFE1FFF7CF38
:102DE000E2FFE7500009C5E12350221006E1030E7F
:102DF000456E466A476A486AB9D02C6A59D023C0E2
:102E000016F022C015F02C502D24246E000E2E201A
:102E1000256E242A000E252224C0F6FF25C0F7FFC8
:102E2000000EF86E0F0EF76403D00800F55005D0C1
:102E3000F6CFE1FFF7CFE2FFE750176E2C502D24BD
:102E4000266E000E2E20276E26C0F6FF27C0F7FF45
:102E5000000EF86E0F0EF76403D00800F55005D091
:102E6000F6CFE1FFF7CFE2FFE750C3EC2FF02C5095
:102E70002D24246E000E2E20256E242A000E2522DD
:102E800024C0F6FF25C0F7FF000EF86E0F0EF764A2
:102E900003D00800F55005D0F6CFE1FFF7CFE2FFF1
:102EA000E750000DF3502226F4502322020E2C2668
:102EB0002C502D24246E000E2E20256E242A000E68
:102EC000252224C0F6FF25C0F7FF000EF86E0F0E76
:102ED000F76403D00800F55005D0F6CFE1FFF7CF37
:102EE000E2FFE75000098BE1456A2AC046F023C0A3
:102EF00048F022C047F03AD023C01AF022C019F09F
:102F0000440ECFEC24F032D00A0E446E020E456E11
:102F1000466A2CD020C0F6FF21C0F7FF000EF86EE5
:102F20000F0EF76403D00800F55005D0F6CFE1FF8F
:102F3000F7CFE2FFE750000A01E168D6010A01E19C
:102F40006AD6030A01E16CD6010A01E16ED6070ACE
:102F500001E170D6010A01E172D6030A01E1A2D6AD
:102F6000010A01E100D70F0AC7E0CED70101190518
:102F700002E1010E446EF288120000F000F000F051
:102F8000D0680101E26B730ED36E2F0E926E896EC4
:102F9000050E936E070E8A6ED40E946E140E8B6E11
:102FA0007E687F6AA4EC31F093848A8693969BAC0A
:102FB00002D08A0E0CD0D338070B070A02E1220E8A
:102FC00006D0D338070B050A080ED8A41A0E010143
:102FD000E36F948C948EAC6AAB6AB06AE3C1AFFFC6
:102FE000080EB86E240EAC6EAB88AB8EAE5082EC81
:102FF0002EF0FF0E256E4F0E246E9EEC31F0FB0E70
:10300000306E8D0E2F6EE7EC2DF0060E0101EC6F89
:10301000010EEE6FE40EED6F790E73C1F1F0000159
:10302000F26BF1C0F2F0F16BF1110101E46F0001FC
:10303000F2510101E56FE76B800EE66F010E216E24
:10304000EC0E206E000E236A226ACFEC15F001010F
:10305000010E166E990E156E186A176A1A6A190E05
:10306000196E2CEC30F00101156B166B4DEC29F04C
:10307000000E81B4010E0101AD6FFD0E256E4B0EE9
:10308000246E9EEC31F0B0C124F0B1C125F070EC9B
:1030900031F0FF0E256EEF0E246E9EEC31F0000E27
:1030A00069EC21F0000907E1FD0E256E0D0E246E7E
:1030B0009EEC31F009D0FC0E256E4B0E246E9EEC7A
:1030C00031F0010E0101E26F82A482BE0ED0FC0E2F
:1030D000256E720E246E9EEC31F0070E69EC21F025
:1030E000010E0101E26F82A4FED70101E25131E03D
:1030F000FC0E8B168B82166A640E156E88EC2FF010
:10310000FC0E8B168B50166A640E156E88EC2FF031
:10311000FC0E8B168B82166A640E156E88EC2FF0EF
:10312000FC0E8B168B50166A640E156E88EC2FF011
:10313000FC0E8B168B82166A640E156E88EC2FF0CF
:10314000FC0E8B168B50166A640E156E88EC2FF0F1
:1031500033D0FC0E8B168B82166A640E156E88ECCB
:103160002FF0FC0E8B168B80166A640E156E88ECA1
:103170002FF0FC0E8B168B82166A640E156E88EC8F
:103180002FF0FC0E8B168B80166A640E156E88EC81
:103190002FF0FC0E8B168B82166A640E156E88EC6F
:1031A0002FF0FC0E8B168B80166A640E156E88EC61
:1031B0002FF0FC0E8B168B5082AE09D0AECF1AF1D9
:1031C000AB9800F0AB88AECF1AF14EEC10F082AEA7
:1031D00042D0010E0101196524D0FC0E256EF80EB7
:1031E000246E9EEC31F0060E0101EF6F010EF16FBF
:1031F000E80EF06F570EE96F790EE86FEB6B800EFB
:10320000EA6F010E216EEF0E206E000E236A226A15
:10321000CFEC15F0FB0E306EDE0E2F6EE7EC2DF0CE
:1032200017D0FE0E256EC30E246E9EEC31F010D02A
:10323000FC0E8B168B82166A640E156E88EC2FF0CE
:10324000FC0E8B168B80166A640E156E88EC2FF0C0
:1032500082BEEED7FF0001017051B05D7151B159CE
:1032600008E2FF0E256E030E246E9EEC31F007EC93
:1032700027F0FE0E256E0A0E246E9EEC31F0010141
:1032800021EED2F0100EDE6AE82EFDD7010E366E6A
:10329000D20E356E010E386ED20E376E010E3A6EBA
:1032A000600E396E010E3C6EB20E3B6EFBEC29F0E7
:1032B0000101010E2C6E600E2B6E100E2D6E000E95
:1032C0002E6AF0EC30F0FE0E256EB50E246E9EECEC
:1032D00031F08AEC13F0AAEC31F01BEF04F0186E19
:1032E0001850D96EDA6ADF50156E166AAD0E1524C5
:1032F000F66EF80E1620F76EF86A000EF8221850D7
:10330000D96EDA6A0800F5CFDFFF1850D96EDA6A95
:10331000040ED926DF50156E166AAD0E1524F66E12
:10332000F80E1620F76EF86A000EF8221850D96EC3
:10333000DA6A040ED9260800F5CFDFFF1850D96EDF
:10334000DA6A080ED926DF50156E166AAD0E1524FE
:10335000F66EF80E1620F76EF86A000EF822185076
:10336000D96EDA6A080ED9260800F5CFDFFF1850AB
:10337000D96EDA6A0C0ED926DF50156E166AAD0EBC
:103380001524F66EF80E1620F76EF86A000EF82275
:103390001850D96EDA6A0C0ED9260800F5CFDFFF77
:1033A0001850D96EDA6A0D0ED926DF50176E1850F4
:1033B000D96EDA6A090ED926DF50156E166AAD0E7F
:1033C0001524F66EF80E1620F76EF86A000EF82235
:1033D0001850D96EDA6A0D0ED9260800F5CFDFFF36
:1033E0001850D96EDA6A050ED926DF50156E166AA6
:1033F000AD0E1524F66EF80E1620F76EF86A000E64
:10340000F8221850D96EDA6A090ED9260800F5CFCD
:10341000DFFF1850D96EDA6AD92ADF50156E166AA6
:10342000AD0E1524F66EF80E1620F76EF86A000E33
:10343000F8221850D96EDA6A050ED9260800F5CFA1
:10344000DFFFAD0E1724F66EF76AF80EF722F86A62
:10345000000EF8221850D96EDA6AD92A0800F5CF82
:10346000DFFF1850D96EDA6A020ED926DF50176EC8
:103470001850D96EDA6A0A0ED926DF50156E166A10
:10348000AD0E1524F66EF80E1620F76EF86A000ED3
:10349000F8221850D96EDA6A020ED9260800F5CF44
:1034A000DFFFAD0E1724F66EF76AF80EF722F86A02
:1034B000000EF8221850D96EDA6A0A0ED9260800D2
:1034C000F5CFDFFF1850D96EDA6A060ED926DF5025
:1034D000176E1850D96EDA6A0E0ED926DF50156EA7
:1034E000166AAD0E1524F66EF80E1620F76EF86A01
:1034F000000EF8221850D96EDA6A060ED926080096
:10350000F5CFDFFFAD0E1724F66EF76AF80EF7223F
:10351000F86A000EF8221850D96EDA6A0E0ED92613
:103520000800F5CFDFFF1850D96EDA6A030ED926EE
:10353000DF50176E1850D96EDA6A070ED926DF50A1
:10354000156E166AAD0E1524F66EF80E1620F76E7F
:10355000F86A000EF8221850D96EDA6A030ED926DE
:103560000800F5CFDFFF1850D96EDA6A0B0ED926A6
:10357000DF50156E166AAD0E1524F66EF80E162085
:10358000F76EF86A000EF8221850D96EDA6A070E44
:10359000D9260800F5CFDFFF1850D96EDA6A0F0E72
:1035A000D926DF50156E166AAD0E1524F66EF80E8C
:1035B0001620F76EF86A000EF8221850D96EDA6AF3
:1035C0000B0ED9260800F5CFDFFFAD0E1724F66EDF
:1035D000F76AF80EF722F86A000EF8221850D96E32
:1035E000DA6A0F0ED9260800F5CFDFFF0F0C186E30
:1035F0001850D96EDA6ADF50156E166AAD0E1524B2
:10360000F66EF90E1620F76EF86A000EF8221850C2
:10361000D96EDA6A0800F5CFDFFF1850D96EDA6A82
:10362000040ED926DF50156E166AAD0E1524F66EFF
:10363000F90E1620F76EF86A000EF8221850D96EAF
:10364000DA6A040ED9260800F5CFDFFF1850D96ECC
:10365000DA6A080ED926DF50156E166AAD0E1524EB
:10366000F66EF90E1620F76EF86A000EF822185062
:10367000D96EDA6A080ED9260800F5CFDFFF185098
:10368000D96EDA6A0C0ED926DF50156E166AAD0EA9
:103690001524F66EF90E1620F76EF86A000EF82261
:1036A0001850D96EDA6A0C0ED9260800F5CFDFFF64
:1036B0001850D96EDA6AD92ADF50176E1850D96EB1
:1036C000DA6A050ED926DF50156E166AAD0E15247E
:1036D000F66EF90E1620F76EF86A000EF8221850F2
:1036E000D96EDA6AD92A0800F5CFDFFF1850D96EF3
:1036F000DA6A090ED926DF50156E166AAD0E15244A
:10370000F66EF90E1620F76EF86A000EF8221850C1
:10371000D96EDA6A050ED9260800F5CFDFFF1850FA
:10372000D96EDA6A0D0ED926DF50156E166AAD0E07
:103730001524F66EF90E1620F76EF86A000EF822C0
:103740001850D96EDA6A090ED9260800F5CFDFFFC6
:10375000AD0E1724F66EF76AF90EF722F86A000E1E
:10376000F8221850D96EDA6A0D0ED9260800F5CF66
:10377000DFFF1850D96EDA6A020ED926DF50176EB5
:103780001850D96EDA6A0A0ED926DF50156E166AFD
:10379000AD0E1524F66EF90E1620F76EF86A000EBF
:1037A000F8221850D96EDA6A020ED9260800F5CF31
:1037B000DFFFAD0E1724F66EF76AF90EF722F86AEE
:1037C000000EF8221850D96EDA6A0A0ED9260800BF
:1037D000F5CFDFFF1850D96EDA6A060ED926DF5012
:1037E000176E1850D96EDA6A0E0ED926DF50156E94
:1037F000166AAD0E1524F66EF90E1620F76EF86AED
:10380000000EF8221850D96EDA6A060ED926080082
:10381000F5CFDFFFAD0E1724F66EF76AF90EF7222B
:10382000F86A000EF8221850D96EDA6A0E0ED92600
:103830000800F5CFDFFF1850D96EDA6A0F0ED926CF
:10384000DF50176E1850D96EDA6A0B0ED926DF508A
:10385000156E166AAD0E1524F66EF90E1620F76E6B
:10386000F86A000EF8221850D96EDA6A0F0ED926BF
:103870000800F5CFDFFF1850D96EDA6A070ED92697
:10388000DF50156E166AAD0E1524F66EF90E162071
:10389000F76EF86A000EF8221850D96EDA6A0B0E2D
:1038A000D9260800F5CFDFFF1850D96EDA6A030E6B
:1038B000D926DF50156E166AAD0E1524F66EF90E78
:1038C0001620F76EF86A000EF8221850D96EDA6AE0
:1038D000070ED9260800F5CFDFFFAD0E1724F66ED0
:1038E000F76AF90EF722F86A000EF8221850D96E1E
:1038F000DA6A030ED9260800F5CFDFFF030C19C0E2
:10390000D9FF1AC0DAFFDF501B6E17C0D9FF18C0ED
:10391000DAFFDF1815C0D9FF16C0DAFFDF6E20EE20
:1039200001F01550D9261650DA2210EE01F0195088
:10393000E1261A50E222E7501B6E10EE01F01750FC
:10394000E1261850E222E7501B18DF6E20EE02F04D
:103950001550D9261650DA2210EE02F01950E12641
:103960001A50E222E7501B6E10EE02F01750E126CB
:103970001850E222E7501B18DF6E20EE03F01550BE
:10398000D9261650DA2210EE03F01950E1261A500B
:10399000E222E7501B6E10EE03F01750E12618509C
:1039A000E222E7501B18DF6E20EE04F01550D926F6
:1039B0001650DA2210EE04F01950E1261A50E222D5
:1039C000E7501B6E10EE04F01750E1261850E2226B
:1039D000E7501B18DF6E20EE05F01550D926165063
:1039E000DA2210EE05F01950E1261A50E222E750D3
:1039F0001B6E10EE05F01750E1261850E222E7503A
:103A00001B18DF6E20EE06F01550D9261650DA226C
:103A100010EE06F01950E1261A50E222E7501B6E14
:103A200010EE06F01750E1261850E222E7501B185E
:103A3000DF6E20EE07F01550D9261650DA2210EE70
:103A400007F01950E1261A50E222E7501B6E10EEE3
:103A500007F01750E1261850E222E7501B18DF6EDE
:103A600020EE08F01550D9261650DA2210EE08F094
:103A70001950E1261A50E222E7501B6E10EE08F0B2
:103A80001750E1261850E222E7501B18DF6E20EE97
:103A900009F01550D9261650DA2210EE09F0195007
:103AA000E1261A50E222E7501B6E10EE09F0175083
:103AB000E1261850E222E7501B18DF6E20EE0AF0D4
:103AC0001550D9261650DA2210EE0AF01950E126C8
:103AD0001A50E222E7501B6E10EE0AF01750E12652
:103AE0001850E222E7501B18DF6E20EE0BF0155045
:103AF000D9261650DA2210EE0BF01950E1261A5092
:103B0000E222E7501B6E10EE0BF01750E126185022
:103B1000E222E7501B18DF6E20EE0CF01550D9267C
:103B20001650DA2210EE0CF01950E1261A50E2225B
:103B3000E7501B6E10EE0CF01750E1261850E222F1
:103B4000E7501B18DF6E20EE0DF01550D9261650E9
:103B5000DA2210EE0DF01950E1261A50E222E75059
:103B60001B6E10EE0DF01750E1261850E222E750C0
:103B70001B18DF6E20EE0EF01550D9261650DA22F3
:103B800010EE0EF01950E1261A50E222E7501B6E9B
:103B900010EE0EF01750E1261850E222E7501B18E5
:103BA000DF6E20EE0FF01550D9261650DA2210EEF7
:103BB0000FF01950E1261A50E222E7501B6E10EE6A
:103BC0000FF01750E1261850E222E7501B18DF6E65
:103BD00012000C0E1F6E1F501524186E000E1620BA
:103BE000196EFC0E1824D96EFF0E1920DA6EDF5004
:103BF0001A6E1F501524D96E000E1620DA6E1A5058
:103C0000DF1A1F501524186E000E1620196EFD0EB7
:103C10001824D96EFF0E1920DA6EDF501A6E1F506D
:103C200015241B6E000E16201C6E1B28D96E000E6C
:103C30001C20DA6E1A50DF1A1F501524186E000E61
:103C40001620196EFE0E1824D96EFF0E1920DA6E9A
:103C5000DF501A6E1F5015241B6E000E16201C6EAE
:103C6000020E1B24D96E000E1C20DA6E1A50DF1AC9
:103C70001F501524186E000E1620196EFF0E182402
:103C8000D96EFF0E1920DA6EDF501A6E1F50152400
:103C90001B6E000E16201C6E030E1B24D96E000E28
:103CA0001C20DA6E1A50DF1A040E1F5E1F6693D7AF
:103CB0001750D96EDA6ADF50186E18B003D01D6A3B
:103CC0001E6A03D01E6A8D0E1D6E1750D96EDA6AF9
:103CD0001750E16EE26AE750186ED89018301D1840
:103CE000DF6E1750D96EDA6ADF50186E20EE0DF0D5
:103CF0001550D9261650DA22DF50196E1A6AAD0E09
:103D00001924F66EF90E1A20F76EF86A000EF822E2
:103D10000800F55018181B6E15C0D9FF16C0DAFF41
:103D20001B50DF1A20EE0EF01550D9261650DA225D
:103D3000DF50186E196AAD0E1824F66EF90E1920B0
:103D4000F76EF86A000EF8220800F5CF1AF020EEA0
:103D500001F01550D9261650DA221A50DF1A20EE3B
:103D60000FF01550D9261650DA22DF50186E196A56
:103D7000AD0E1824F66EF90E1920F76EF86A000ED3
:103D8000F8220800F5CF1AF020EE02F01550D926DF
:103D90001650DA221A50DF1A20EE0CF01550D926F0
:103DA0001650DA22DF50186E196AAD0E1824F66E1E
:103DB000F90E1920F76EF86A000EF8220800F5CF08
:103DC0001AF020EE03F01550D9261650DA221A50B8
:103DD000DF1A1200186E15C0D9FF16C0DAFFDF50C7
:103DE000176E1850D96EDA6A1750DF1A20EE01F0FC
:103DF0001550D9261650DA22DF50176E1850D96E9A
:103E0000DA6AD92A1750DF1A20EE02F01550D926A7
:103E10001650DA22DF50176E1850D96EDA6A020E89
:103E2000D9261750DF1A20EE03F01550D926165068
:103E3000DA22DF50176E1850D96EDA6A030ED926CF
:103E40001750DF1A20EE04F01550D9261650DA224A
:103E5000DF50176E1850D96EDA6A040ED926175043
:103E6000DF1A20EE05F01550D9261650DA22DF5061
:103E7000176E1850D96EDA6A050ED9261750DF1A58
:103E800020EE06F01550D9261650DA22DF50176EB4
:103E90001850D96EDA6A060ED9261750DF1A20EEAE
:103EA00007F01550D9261650DA22DF50176E185039
:103EB000D96EDA6A070ED9261750DF1A20EE08F0FD
:103EC0001550D9261650DA22DF50176E1850D96EC9
:103ED000DA6A080ED9261750DF1A20EE09F01550BD
:103EE000D9261650DA22DF50176E1850D96EDA6ACA
:103EF000090ED9261750DF1A20EE0AF01550D926E0
:103F00001650DA22DF50176E1850D96EDA6A0A0E90
:103F1000D9261750DF1A20EE0BF01550D92616506F
:103F2000DA22DF50176E1850D96EDA6A0B0ED926D6
:103F30001750DF1A20EE0CF01550D9261650DA2251
:103F4000DF50176E1850D96EDA6A0C0ED92617504A
:103F5000DF1A20EE0DF01550D9261650DA22DF5068
:103F6000176E1850D96EDA6A0D0ED9261750DF1A5F
:103F700020EE0EF01550D9261650DA22DF50176EBB
:103F80001850D96EDA6A0E0ED9261750DF1A20EEB5
:103F90000FF01550D9261650DA22DF50176E185040
:103FA000D96EDA6A0F0ED9261750DF1A12001B6E6F
:103FB0001550D96EDA6ADF50166E1B50D96EDA6A68
:103FC0000D0ED926DF50176E186AAD0E1724F66E47
:103FD000F90E1820F76EF86A000EF8220800F55066
:103FE0001618196E1B50D96EDA6A1950DF1A1B5059
:103FF000D96EDA6A0E0ED926DF50166E176AAD0E2C
:104000001624F66EF90E1720F76EF86A000EF822E5
:104010000800F5CF18F01B50D96EDA6AD92A18506B
:10402000DF1A1B50D96EDA6A0F0ED926DF50166ED2
:10403000176AAD0E1624F66EF90E1720F76EF86AA1
:10404000000EF8220800F5CF18F01B50D96EDA6A7E
:10405000020ED9261850DF1A1B50D96EDA6A0C0EE0
:10406000D926DF50166E176AAD0E1624F66EF90EBD
:104070001720F76EF86A000EF8220800F5CF18F046
:104080001B50D96EDA6A030ED9261850DF1A155064
:10409000D96EDA6A1550E16EE26AE750166E000ECC
:1040A00016BE010E166E1650010B1B0D1550E16E5B
:1040B000E26AE750176ED8901734F318DF6E040EDB
:1040C0001A6E1B501A24D96EDA6AFC0ED926DF50FC
:1040D000166E1B501A24D96EDA6A1650DF1A1B505E
:1040E0001A24D96EDA6AFD0ED926DF50166E1B50DF
:1040F0001A24D96EDA6AD92A1650DF1A1B501A24EC
:10410000D96EDA6AFE0ED926DF50166E1B501A24BD
:10411000D96EDA6A020ED9261650DF1A1B501A24FD
:10412000D96EDA6AD906DF50166E1B501A24D96E82
:10413000DA6A030ED9261650DF1A040E1A260F0E5D
:104140001A64BFD70F0CAD0EF66EFA0EF76E000EA6
:10415000F86E0900F5CF23F00900F5CF24F00A002E
:10416000F5CF25F0A4EC31F0010EC26EC2842F6AA7
:104170002F6615D0A4EC31F0850EC06E010EC26E14
:10418000C284929C898C166A010E156E88EC2FF001
:10419000100E2E6E286A296A2A6A2B6A5BD02F04B9
:1041A00009E1A4EC31F08D0EC06E010EC26EC28426
:1041B000929C06D0A4EC31F0010EC26EC284928CA7
:1041C000899CE1D796EC31F0C450276EC350266E1F
:1041D000898E96EC31F0899EC4502D6EC3502C6EA2
:1041E0002E06080E2E5C12E2FF0E2C5C030E2D58DC
:1041F0000AE2000E265C010E275805E226502C5CD0
:1042000027502D5803E2010E2E6E26D026502C5E2C
:1042100027502D5A2CC015F02DC016F02F50230F0B
:10422000D96EDA6ADF50176E186A80EC30F015C06C
:104230002CF016C02DF0080E2E5C07E22C5028261C
:104240002D502922000E2A222B22166A010E156EED
:1042500088EC2FF02E66B6D72E6601D004D02F2A18
:10426000020E2F6485D72F50030A09E1010104696A
:104270000569286A400E296E060E2A6E2B6A040E06
:1042800028241F6E000E2920206E000E2A20216E89
:10429000000E2B20226E040E05D0D890223221323F
:1042A00020321F32E82EF9D71FC028F020C029F095
:1042B00021C02AF022C02BF028C004F129C005F14A
:1042C000929C899CA4EC31F028C01DF029C01EF0FE
:1042D00012000001936F946B0101010E166E5C0ECB
:1042E000156E186A3D0E176E000E1A6A196A2CECCC
:1042F0002FF0FBEC2FF001019851161802E19751B5
:10430000151804E000019381010E946F01015C51C6
:1043100000018F6F01015D510001906F01015E513D
:104320000001916F926B8F29D8B49029D8B491294C
:10433000921114E001015C5100018F6F01015D5188
:104340000001906F01015E510001916F926B9251DB
:104350008F119011911102E093A30DD0420E010133
:104360005F6F010E376E5C0E366E030E386EF3EC27
:1043700028F0010E946F956B600E00019525D96EA3
:10438000DA6A010EDA22DF1C08E0600E9525D96E8C
:10439000DA6A010EDA22DF5005E10001952B0F0EDB
:1043A0009565EAD7000193B503D09551100A0BE14A
:1043B0000101010E376E600E366E100E386EF3EC92
:1043C00028F0010E946F93A135D0080E0101716F92
:1043D000980E706F140E726F570E736F140E746F09
:1043E0000A0E756F080E766F776F796B180E786FFF
:1043F0007B6B080E7A6F7F6B7E6F7D6B7C6F010E1F
:10440000816FD40E806F0A0E826F836F090E856FE5
:10441000270E846F010E866F010E166E870E156EC5
:10442000186A176A1A6A100E196E2CEC30F0010E19
:104430000001946F9451D8A4CCEC30F00001945159
:104440001200316A2D6A2E6A2F6A306A02D0214A20
:10445000222A21C0D9FF22C0DAFFDF50200AF7E06C
:1044600021C0D9FF22C0DAFFDF503D0AF0E021C0B1
:10447000D9FF22C0DAFFDF503A0AE9E02D0E21C051
:10448000D9FF22C0DAFFDF6236D03168214A222A02
:1044900032D0316602D0010E316E2DC015F02EC023
:1044A00016F02FC017F030C018F00A0E196E000E6B
:1044B0001A6A1B6A1C6AC1EC2BF015C02DF016C0DD
:1044C0002EF017C02FF018C030F0D00E256E2668E1
:1044D00021C0D9FF22C0DAFFDF50276E286A25509D
:1044E00027262650282227502D2628502E22000E1F
:1044F0002F223022CBD721C0D9FF22C0DAFF2F0EC6
:10450000DF6407D021C0D9FF22C0DAFF390EDF6493
:10451000C0D7315047E031C025F0266A276A286AA3
:1045200025502D02F3CF29F0F4CF2AF02B6A2C6A04
:104530002E02F3502A26F4502B22000E2C22265055
:104540002D02F3502A26F4502B22000E2C22255047
:104550002F02F3502B26F4502C2226502E02F3501B
:104560002B26F4502C2227502D02F3502B26F450EA
:104570002C2230502502F3502C2626502F02F350C7
:104580002C2627502E02F3502C2628502D02F350B3
:104590002C2629C021F02AC022F02BC023F02CC0E9
:1045A00024F01200216822682368246812000001A8
:1045B000C76FD36BC7C0E0F015C1E1F00101154B27
:1045C000162B72C1E2F0B0C1E3F0B1C1E4F0A1C1B9
:1045D000E5F0A2C1E6F0A3C1E7F0A4C1E8F0A5C1EF
:1045E000E9F0A6C1EAF0A951A7250001EB6F01018E
:1045F000AA51A8210001EC6FABC1EDF0ACC1EEF007
:10460000010121EEAEF0DECF37F0DDCF38F0D890EB
:1046100037363836AD5137240001EF6F000E3820A1
:10462000F06FFF0E216EFC0E206E000E236A226AD0
:10463000CFEC15F00001E00E6DEC30F0010E010141
:104640007225156E166A000E1622186A030E176E72
:10465000A1EC2AF01550070B08090001C86F010EE4
:10466000CA6F080EC96FCC6BCB6F6D0EC8C037F028
:10467000386A37C038F0376A3710CD6F3850CE6F90
:10468000110ED06F3E0ECF6FD26B800ED16F7F0EAA
:10469000846F110E856F166A860E156E186AE00E0D
:1046A000176E1A6A110E196EEDEC2EF03F6A060EA7
:1046B0000001D46FD66BC90ED56F050ED76FD96BBD
:1046C000840ED86F030EDA6FDB6BDC6BDD69DE6B9B
:1046D000DF6B306AD40E2F6EE7EC2DF007D0166A30
:1046E000010E156E88EC2FF00001D32B010119513A
:1046F000060A04E1C70E0001D365F1D7C70E000119
:10470000D365C70CFF0E256E0F0E246E9EEC31F0A4
:10471000010E0101196F010CA3C125F0A4C126F0FF
:10472000FF0E226E3B0E216E46EC2CF0FF0E226E29
:104730008D0E216E46EC2CF02650800AF36E800E12
:10474000F35C000ED8B4255C0AE2256C261ED8B0B6
:10475000262AFF0E226EF40E216E46EC2CF025C0A8
:1047600015F026C016F0186A0A0E176EA1EC2AF092
:1047700015C020F016C021F0A6EC2FF0FD0E226E21
:10478000D00E216E46EC2CF025C015F026C016F098
:10479000186A0A0E176E04EC2CF015C020F016C033
:1047A00021F0A6EC2FF0FE0E226EEB0E216E46ECF1
:1047B0002CF00101A251206E216AA6EC2FF0FD0E13
:1047C000226ED00E216E46EC2CF00101A151280D75
:1047D0000A0E246ED890F432F332242EFBD7F3CF96
:1047E00020F0F4CF21F0A6EC2FF0FF0E226EEC0E9D
:1047F000216E46EC2CF004C120F005C121F0A6EC9E
:104800002FF0FF0E226E590E216E46EC2CF0A5C142
:1048100020F0A6C121F0A6EC2FF0FF0E226E950E1F
:10482000216E46EC2CF0B0C120F0B1C121F0A6EC15
:104830002FF0FF0E226E9D0E216E46EC2CF006C16D
:1048400020F007C121F0A6EC2FF0FF0E226EB20E71
:10485000216E46EC2CF00101AD5104E0FF0E226EFA
:10486000F80E03D0FF0E226EF60E216E5DEF2CF0D7
:10487000020E91EC2DF001011351065D1B6E1451D7
:1048800007591C6E1C50800AF36E800EF35C400EBC
:10489000D8B41B5C09E21C50800AF36E7F0EF35CF7
:1048A000C10ED8B41B5C02E23F0E0BD01C50800A34
:1048B000F36E800EF35C000ED8B41B5C04E21B5058
:1048C00000081A6E02D01BC01AF01A50AB27000E57
:1048D000AC231A50166E176AD89016361736D89031
:1048E00016361736030E1103F3CF18F0F4CF19F074
:1048F0001203F350192616501824116F175019205F
:10490000126F11C116F012C117F0D890173216327B
:10491000D8901732163216C011F117C012F106C125
:1049200013F107C114F1F2050DE14B6603D078C114
:104930004BF02FD04B2E2DD04B6A436A116B126B6C
:10494000F26B27D075511A5C07E37651435C04E2A1
:1049500077C118F1432A09D0185102E0180705D091
:10496000435003E0430677C118F17651435C05E3F9
:10497000010EF26FA94BAA2B0CD07451166E176A58
:104980001650115D1750125904E3010EF26FA74B38
:10499000A82B4B50010ED8A4000EF21512001F6E6A
:1049A0004B0EA6EC30F01B6E1C6A1F50D96EDA6AF3
:1049B000080EDF6E1A50191015E11F50D96EDA6A11
:1049C000D92A030EDF6E1F50D96EDA6A020ED9267D
:1049D000DF6A1F50D96EDA6A030ED926000EDE6E2A
:1049E000DD6E000C1F50D96EDA6AD92ADF6A1F50BB
:1049F000D96EDA6A020ED9261B50050FDF6E1F50E2
:104A0000D96EDA6A030ED92619C0DEFF1AC0DDFF9F
:104A10001AC01EF019C01DF04A0EA6EC30F01DC0E1
:104A2000D9FF1EC0DAFFDF6E1D4A1E2A490EA6EC12
:104A300030F01DC0D9FF1EC0DAFFDF6E1D4A1E2AEE
:104A4000480EA6EC30F01DC0D9FF1EC0DAFFDF6EA5
:104A50001D4A1E2A470EA6EC30F01DC0D9FF1EC00D
:104A6000DAFFDF6E1D4A1E2A1DC0D9FF1EC0DAFF05
:104A700040C0DFFF1D4A1E2A1EC016F01DC015F0E3
:104A80001BC017F07F0EC3EF2FF0096E4B0EB9EC71
:104A900030F0076E086A0950D96EDA6A080EDF6EC8
:104AA0000650051015E10950D96EDA6AD92A030EAD
:104AB000DF6E0950D96EDA6A020ED926DF6A095014
:104AC000D96EDA6A030ED926000EDE6EDD6E000C9A
:104AD0000950D96EDA6AD92ADF6A0950D96EDA6AC2
:104AE000020ED9260750050FDF6E0950D96EDA6A1B
:104AF000030ED92605C0DEFF06C0DDFF06C00BF0A1
:104B000005C00AF04A0EB9EC30F00AC0D9FF0BC05C
:104B1000DAFFDF6E0A4A0B2A490EB9EC30F00AC000
:104B2000D9FF0BC0DAFFDF6E0A4A0B2A480EB9EC38
:104B300030F00AC0D9FF0BC0DAFFDF6E0A4A0B2A39
:104B4000470EB9EC30F00AC0D9FF0BC0DAFFDF6EB8
:104B50000A4A0B2A0AC0D9FF0BC0DAFF40C0DFFFA8
:104B60000A4A0B2A0BC002F00AC001F007C003F08A
:104B70007F0EDFEF2FF01E6A1C50800A800F08E1C5
:104B8000000E1B5C05E1000E1A5C02E1000E195CD0
:104B90000AE21C1E1B1E1A1E196C000E1A221B2272
:104BA0001C22010E1E6E1850800A800F08E1000EB4
:104BB000175C05E1000E165C02E1000E155C0AE2CE
:104BC000181E171E161E156C000E1622172218220C
:104BD000010E1E1A1F6A206A216A226A1C501910CF
:104BE0001A101B1029E0010E1D6E06D0D890193640
:104BF0001A361B361C361D2A1CAEF8D7D8901F3625
:104C00002036213622361950155C1A5016581B5082
:104C100017581C50185809E31950155E1A50165AA7
:104C20001B50175A1C50185A1F80D8901C321B3228
:104C30001A3219321D2EE2D71E5008E0221E211E04
:104C4000201E1F6C000E2022212222221FC015F0E0
:104C500020C016F021C017F022C018F012002B6AF5
:104C60002C6AEA0E286E600E276E296A1CD0292A4B
:104C7000290406E1FF0E226EE90E216E46EC2CF0AF
:104C80002950800A06E1FF0E226EE60E216E46ECE8
:104C90002CF082BE03D0D89028322732166A010E3B
:104CA000156E88EC2FF09EBA0BD02706D8A02806E8
:104CB0002850271005E0ABCF26F0060E2616D7E0C9
:104CC0009EBA03D0246A256A1200AECF2AF0ACA2A5
:104CD000FED72AC0ADFF24D001011C0E2B24D96EB3
:104CE000010E2C20DA6E000EDF6E010E256E1C0EFA
:104CF000246E12002C502B10B4E02B06D8A02C06EA
:104D0000B0D701011C0E2B24D96E010E2C20DA6EB7
:104D10002AC0DFFF2B4A2C2A3F0E2B162C6AA1D764
:104D20002A50DAE0080AE6E0020AD6E0070AD4E0F0
:104D3000160AC8E0E6D70001AE6B0101876701D013
:104D40001200040E0001AF6F166AB00E156E01015D
:104D5000010E186E870E176E1A6A100E196EEDECA2
:104D60002EF0010E0001A56F080EA46FA76BA66FB1
:104D7000A96F6D0EA86F110EAB6F3E0EAA6FAD6BD3
:104D8000800EAC6F7F0E606F110E616F166A620E3F
:104D9000156E186AAF0E176E1A6A110E196EEDECC9
:104DA0002EF03F6A060E0001C06FC26BA40EC16FE9
:104DB000050EC36FC56B600EC46F030EC66FC76B65
:104DC000C86BC969CA6BCB6B306AC00E2F6EE7EC3B
:104DD0002DF007D0166A010E156E88EC2FF0000139
:104DE000AE2B01011951060A04E1C70E0001AE65A0
:104DF000F1D7C70E0001AE65C70CFF0E256E0F0E72
:104E0000246E9EEC31F0010E0101196F010C2F0E82
:104E1000926E896E050E936E070E8A6ED40E946E96
:104E2000140E8B6E7E687F6AA4EC31F0AC6A949CA1
:104E30008B9C948EFF0E216EFA0E206E000E236A5C
:104E4000226ACFEC15F0580E2F6E020E306E316ACA
:104E5000326A080E336E8EEC31F033063366FBD7C0
:104E6000FC0E8B168B8082A41CD0FB0E216EE70EED
:104E7000206E0201020E236E000E226ECFEC15F0A2
:104E8000010119050EE02F06000E305A315A325A30
:104E900032502F103010311004E0FC0E8B168B5066
:104EA000D8D764EC2DF015C09FF116C0A0F19FC1BA
:104EB00022F0A0C123F04BEC2FF022C0B0F123C0B0
:104EC000B1F1010121EEB0F011EE70F0E652DE52C8
:104ED000DD50E55C02E1DF50E75CD8B0120097D707
:104EE0000001AE6BAF6B166AB00E156E0101010EBC
:104EF000186E600E176E1A6A100E196EEDEC2EF019
:104F0000010E0001A56F080EA46FA76BA66FA96F15
:104F10006D0EA86F110EAB6F3E0EAA6FAD6B800EBB
:104F2000AC6F7F0E606F110E616F166A620E156EA8
:104F3000186AAF0E176E1A6A110E196EEDEC2EF08C
:104F40003F6A060E0001C06FC26BA40EC16F050E52
:104F5000C36FC56B600EC46F030EC66FC76BC86BA3
:104F6000C969CA6BCB6B306AC00E2F6EE7EC2DF0AF
:104F700007D0166A010E156E88EC2FF00001AE2BDB
:104F800001011951060A04E1C70E0001AE65F1D70F
:104F9000C70E0001AE65C70CFF0E256E0F0E246E06
:104FA0009EEC31F0010E0101196F010C0101010E9F
:104FB000206EC80E1F6E1FC0D9FF20C0DAFFDF6A47
:104FC0001EBE24D01DC015F01EC016F0186A0A0EB1
:104FD000176E04EC2CF01550300F1F06D8A02006D9
:104FE0001FC0D9FF20C0DAFFDF6E1DC015F01EC044
:104FF00016F0186A0A0E176EA1EC2AF015C01DF003
:1050000016C01EF01E501D102DE0DCD71DC015F07F
:105010001EC016F0186A0A0E176E04EC2CF015501C
:1050200030081F06D8A020061FC0D9FF20C0DAFF15
:10503000DF6E1DC015F01EC016F0186A0A0E176E3E
:10504000A1EC2AF015C01DF016C01EF01E501D1058
:10505000DDE11F06D8A020061FC0D9FF20C0DAFF5F
:105060002D0EDF6E20C01EF01FC01DF01200CD0EF1
:10507000176E030E186E196A1A6A01019B511B6E96
:105080009C511C6E1D6A1E6A1B501702F3CF1FF045
:10509000F4CF20F0216A226A1802F3502026F4503F
:1050A0002122000E22221C501702F3502026F45019
:1050B0002122000E22221B501902F3502126F45007
:1050C00022221C501802F3502126F45022221D5097
:1050D0001702F3502126F45022221A501B02F350DB
:1050E00022261C501902F35022261D501802F3509C
:1050F00022261E501702F3502226890E1F24236EEB
:105100007E0E2020246E170E2120256EFF0E2220F9
:10511000266E25C027F026C028F0296A2A6A27C0F3
:105120002BF028C02CF02BC015F02CC016F012006C
:105130001B6705D0166A010E156E7CEC31F06D0E02
:10514000196E4E0E1A6EC60E1B6E410E1C6E0D5160
:105150001902F3CF1DF0F4CF1EF01F6A206A1A0265
:10516000F3501E26F4501F22000E20220E51190269
:10517000F3501E26F4501F22000E20220D511B0258
:10518000F3501F26F45020220E511A02F3501F260E
:10519000F45020220F511902F3501F26F450202200
:1051A0001C500D03F35020260E511B02F3502026F5
:1051B0000F511A02F350202610511902F3502026E5
:1051C000390E1D240D6F300E1E200E6F000E1F2095
:1051D0000F6F000E2020106F01010F51176E7F0E10
:1051E0001015186E12004DEC29F0010121EE9DF012
:1051F000DECF39F0DDCF3AF09B5139269C513A226F
:105200009F513926A0513A229951392400018B6FC0
:1052100001019A513A2000018C6F8D6B39D08A6B55
:105220008E6B020E91EC2DF021EE06F0DE500001A7
:105230008B27DD508C2364EC2DF0155000018B275B
:1052400016508C238BC015F08CC016F07CEC31F01E
:1052500098EC28F017500001896F8EC039F089C092
:105260003AF0010E3A16392A02D0D8903A36392E41
:10527000FCD73A508A138E2B070E8E65D2D78D51EC
:105280003624D96E000E3720DA6E8AC0DFFF8D2BF0
:1052900038508D5DD8B01200C2D78988166A0A0EC0
:1052A000156E88EC2FF0CAEC2EF015C09BF116C0DD
:1052B0009CF19BC115F09CC116F037EC28F015C08D
:1052C000A3F116C0A4F1050EA325156E000EA421AE
:1052D000166E186A0A0E176EA1EC2AF01550356E7C
:1052E000A3EC20F01DC099F11EC09AF199C123F0E2
:1052F0009AC124F035C025F077EC08F023C0A1F165
:1053000024C0A2F14FEC2AF015C09DF116C09EF109
:105310009DC115F09EC116F0A4EC29F015C0A5F1B1
:1053200016C0A6F164EC2DF015C09FF116C0A0F1D7
:105330009FC122F0A0C123F04BEC2FF022C0B0F1AE
:1053400023C0B1F189981200FD0E176E070E186E7A
:10535000196A1A6A01019D511B6E9E511C6E1D6ACD
:105360001E6A1B501702F3CF1FF0F4CF20F0216A02
:10537000226A1802F3502026F4502122000E222225
:105380001C501702F3502026F4502122000E222236
:105390001B501902F3502126F45022221C501802EF
:1053A000F3502126F45022221D501702F3502126DB
:1053B000F45022221A501B02F35022261C501902CC
:1053C000F35022261D501802F35022261E501702B9
:1053D000F35022261FC023F020C024F021C025F066
:1053E00022C026F025C027F026C028F027C015F0DF
:1053F00028C016F012006C0E0001716F3A503C1874
:1054000002E139503B180DE03CC016F03BC015F0EE
:105410003AC018F039C017F01A6A100E196EEDEC88
:105420002EF0166A0001610E156E36C018F035C0F8
:1054300017F03CC01AF03BC019F07FEC1CF0610E75
:105440006FEC19F00A0E606F12D03CC016F03BC032
:1054500015F0710E176EE9EC1DF03CC01AF03BC060
:1054600019F0610E86EC31F0610E1DEC04F00001C4
:10547000602FEBD73CC016F03BC015F0710E176ED5
:10548000E9EC1DF038C016F037C015F0186A610E4F
:10549000176E3CC01AF03BC019F07FEF1CF0196A80
:1054A0001A6A1B6A1C6AA4EC31F0A50EC06E010ECC
:1054B000C26EC2881D6A96EC31F0C350C4CF17F09B
:1054C000186A17C018F0176A1726000E182217500E
:1054D000192618501A22000E1B221C2296EC31F0BD
:1054E000C350C4CF17F0186A17C018F0176A1726F0
:1054F000000E18221750192618501A22000E1B22CF
:105500001C2282EC2EF000F000F000F000F000F021
:1055100000F000F000F000F000F000F000F000F00B
:1055200000F01D2A3F0E1D64C6D7D8901C321B32D6
:105530001A321932A4EC31F019C015F01AC016F065
:1055400012001A6A1850800AF36E800EF35C000E87
:10555000D8B4175C06E2176C181ED8B0182A010ED2
:105560001A6E1650800AF36E800EF35C000ED8B4EB
:10557000155C06E2156C161ED8B0162A010E1A1A12
:105580001B6A1C6A185017101BE0010E196E04D01C
:10559000D89017361836192A18AEFAD7D8901B3675
:1055A0001C361750155C1850165805E31750155E39
:1055B0001850165A1B80D89018321732192EEED771
:1055C0001A5004E01B6C1C1ED8B01C2A1BC015F01E
:1055D0001CC016F0120021EE08F010EE0CF0050EC3
:1055E000DECFE6FFE82EFCD734EC31F03FC001F00F
:1055F000070E23EC31F062EC31F049A413D0425095
:10560000411006E0090E0C6E0101190515E00D6A46
:105610003FA004D0030E0101196F030C020E01011B
:10562000196F020C49A214D042504110F1E001015F
:10563000190505E1080E0C6E010E0D6EE9D7020189
:10564000020E066E000E056E0C0E45EC25F0E0D73E
:105650004AAE05D0260EB9EC30F0406E12004AA0DA
:105660001200010E0101196F010C606F010E726FC3
:105670003650341801E135520CE0166A36C015F088
:1056800035C018F034C017F01A6A100E196EEDEC20
:105690002EF0166A0001620E156E186A60C017F0CF
:1056A0001A6A36C019F07FEC1CF0010E616F620EB1
:1056B000C4EC0CF00001720E156E3650D7EC1FF0E2
:1056C0001A6A36C019F0620E86EC31F0612B090EB1
:1056D0006165EDD7620EF7EC1AF0720E156E36505A
:1056E000D7EC1FF0166A33C015F0186A620E176EF9
:1056F0001A6A36C019F07FEF1CF0F298F19C400E48
:10570000C76EC66AC68A000EA6EC30F01E6E1E502A
:10571000080A02E0010E27D0010EA6EC30F01E6E42
:105720001E50060AF7E1800E156E070E12EC31F0DE
:10573000800E3F6E1D6A166A010E156E88EC2FF002
:10574000040EA6EC30F01E6E1EB204D01D2A630EAD
:105750001D64F1D7630E1D6401D0DCD754EC31F029
:1057600001EC31F0020E0101196F1951020AD8B48F
:105770001200800E156E070E12EC31F0800E3F6E97
:10578000800C15501902F3CF1DF0F4CF1EF01F6AE4
:10579000206A15501A02F3501E26F4501F22000EE4
:1057A000202216501902F3501E26F4501F22000E1C
:1057B000202215501B02F3501F26F45020221650B1
:1057C0001A02F3501F26F450202217501902F350EA
:1057D0001F26F45020221C501502F350202616508C
:1057E0001B02F350202617501A02F350202618509F
:1057F0001902F35020261DC015F01EC016F01FC060
:1058000017F020C018F012001A6A1650800AF36EC2
:10581000800EF35C000ED8B4155C06E2156C161E03
:10582000D8B0162A010E1A6E1850800AF36E800E38
:10583000F35C000ED8B4175C04E2176C181ED8B0E5
:10584000182A1850171017E0010E196E04D0D890BE
:1058500017361836192A18AEFAD71750155C185093
:10586000165804E31750155E1850165AD89018327F
:105870001732192EF2D71A5004E0156C161ED8B044
:10588000162A15C015F016C016F0120016D0ACA2DC
:10589000FED721C0F6FF22C0F7FF000EF86E0F0EF4
:1058A000F76403D00800F55005D0F6CFE1FFF7CF3D
:1058B000E2FFE750AD6E214A222A21C0F6FF22C046
:1058C000F7FF000EF86E0F0EF76403D00800F550D6
:1058D00005D0F6CFE1FFF7CFE2FFE7500009D8B4DB
:1058E000120021C0F6FF22C0F7FF000EF86E0F0E67
:1058F000F76403D00800F55005D0F6CFE1FFF7CFED
:10590000E2FFE750236E7E0E235CD8B01200BFD7B3
:105910001906D8A01A061928D8B41A2803E1156A5E
:10592000166A120015C0D9FF16C0DAFFDF501B6ED1
:10593000154A162A17C0F6FF18C0F7FFF86A0800C4
:10594000F5CF1CF0174A182A1B5002E01C6603D042
:10595000156816681200600E1B6405D07B0E1B5C78
:1059600002E2200E1B5E600E1C6405D07B0E1C5CE8
:1059700002E2200E1C5E1B501C18CAE01C501B5C6F
:10598000156E166AD8A0160612001E6A1F6A206AD3
:10599000216A1C5019101A101B1029E0010E1D6EEF
:1059A00006D0D89019361A361B361C361D2A1CAE66
:1059B000F8D7D8901E361F36203621361950155C80
:1059C0001A5016581B5017581C50185809E31950F4
:1059D000155E1A50165A1B50175A1C50185A1E8022
:1059E000D8901C321B321A3219321D2EE2D71EC03B
:1059F00015F01FC016F020C017F021C018F01200DB
:105A00000101010E1F6ECF0E1E6E1EC0D9FF1FC0FA
:105A1000DAFFDF6A1CC015F01DC016F0186A0A0E06
:105A2000176E0DEC2FF01550300F1E06D8A01F0674
:105A30001EC0D9FF1FC0DAFFDF6E1CC015F01DC0ED
:105A400016F0186A0A0E176E5DEC2EF015C01CF0E9
:105A500016C01DF01D501C10DDE11FC01DF01EC042
:105A60001CF01200000EF2BE010E1E6EF29EA69EEB
:105A7000A69CA6841FD019C0A9FF1AC01BF01BC08A
:105A80001CF01D6A1C50AA6E15C0D9FF16C0DAFFA3
:105A9000DF50A86E154A162A550EA76EAA0EA76EDD
:105AA000A682A6B2FED7A6B612001706D8A0180680
:105AB000194A1A2A18501710DEE1A6941EB002D017
:105AC000F29E01D0F28E1200196A1A6AB48E82EC2C
:105AD0002EF082EC2EF0A4EC31F0C16AAD0EC06E57
:105AE000010EC26E3C0EC2121B6A96EC31F0C3501E
:105AF000C4CF17F0186A17C018F0176A1726000EDF
:105B000018221750192618501A221B2A3F0E1B6400
:105B1000ECD7B49EA4EC31F019C015F01AC016F001
:105B20001200156E010EC26E1544E846FC0BC2123F
:105B300096EC31F018D0C4500101016FC350006FD2
:105B40001AD0C4500101036FC350026F14D0C45067
:105B50000101056FC350046F0ED0C4500101076FDF
:105B6000C350066F08D01550E6E0010AF0E0030AC2
:105B7000F4E0060AE6E0C26A12001B6E1B380F0B47
:105B80000101CF6F090ECF6502D0370E01D0300E64
:105B9000CF25176E186A000E182217C0CFF11B50C0
:105BA0000F0BD06F21EED0F0090EDF6402D0370E5C
:105BB00001D0300ED025196E1A6A000E1A2219C0B3
:105BC000D0F1D16B010E166ECF0E156E12000DD0F6
:105BD00030C021F02FC020F0000E236A226ACFECE3
:105BE00015F0030E2F26000E302230502F10D8B49F
:105BF00012002FC0F6FF30C0F7FF000EF86E0F0E38
:105C0000F76403D00800F55005D0F6CFE1FFF7CFD9
:105C1000E2FFE750316E3128D8B41200D9D702EE36
:105C200000F0450EEE6AE806FDE101EE00F0D20E4E
:105C3000EE6AE806FDE100EE3DF00E0EEE6AE806C3
:105C4000FDE15B0EF66E630EF76E000EF86E090056
:105C5000F5CFF2F15A0EF66E630EF76E000EF86E87
:105C60000900F5CF4BF00001BDEF17F0186E8A92D6
:105C7000C9CF1AF118508009C96EC7B019D0FDD725
:105C8000C9CF1AF115C0F6FF16C0F7FF000EF86E67
:105C90000F0EF76403D00800F55005D0F6CFE1FFF2
:105CA000F7CFE2FFE750C96E154A162AC7A0FED704
:105CB00017061728E5E18A8212001A6A1B6A185033
:105CC00017101BE0010E196E04D0D8901736183645
:105CD000192A18AEFAD7D8901A361B361750155C09
:105CE0001850165805E31750155E1850165A1A80AA
:105CF000D89018321732192EEED71AC015F01BC0E3
:105D000016F01200100E0101176F16D000F000F00F
:105D100000F000F000F000F000F000F000F000F003
:105D200000F000F000F000F000F000F000F000F0F3
:105D300000F000F0010117071767E8D700F000F046
:105D400000F000F000F000F000F000F0120025C0BC
:105D50002AF024C029F015D029C0D9FF2AC0DAFFC3
:105D6000DF50BDEC2DF015C021F016C022F046EC3E
:105D70002CF0294A2A2A285004E0ACA2FED728C0D9
:105D8000ADFF2606D8A027062628D8B42728D8B4E1
:105D90001200E2D7196A1A6AA4EC31F0010EC26E41
:105DA000C2501B6A96EC31F0C350C4CF17F0186A8A
:105DB00017C018F0176A1726000E18221750192658
:105DC00018501A221B2A3F0E1B64ECD7A4EC31F0AA
:105DD00019C015F01AC016F0120018C01EF017C036
:105DE0001DF016C01CF015C01BF00ED01DC0D9FF51
:105DF0001EC0DAFF1BC0E1FF1CC0E2FFDFCFE7FFE0
:105E00001D4A1E2A1B4A1C2A1906D8A01A06192840
:105E1000D8B41A28D8B41200E9D71850171017E0D0
:105E2000010E196E04D0D89017361836192A18AEFC
:105E3000FAD71750155C1850165804E31750155E22
:105E40001850165AD89018321732192EF2D715C09A
:105E500015F016C016F01200A69EA69C17D019C009
:105E6000A9FF1AC01BF01BC01CF01D6A1C50AA6EB3
:105E7000A68015C0D9FF16C0DAFFA8CFDFFF154AEC
:105E8000162A1706D8A01806194A1A2A18501710E9
:105E9000D8B41200E4D7156A166AB00E176E040E55
:105EA000186E22C019F023C01AF01B6A1C6AC5ECD8
:105EB0002CF015C024F016C025F017C026F018C02D
:105EC00027F024C028F025C029F028C022F029C0DE
:105ED00023F0120017D04DEC29F0020E91EC2DF0BA
:105EE000000E81B4010E0101AD6FFD0E226E860E13
:105EF000216E46EC2CF08CEC23F0166A320E156EF7
:105F000088EC2FF082B49EBA120082AE1200E3D762
:105F10000A0E1502F3CF17F0F4CF18F01602F35063
:105F2000182617C019F018C01AF01B6A1C6A1C50FA
:105F300019101A101B1008E082EC2EF01906000E42
:105F40001A5A1B5A1C5AF3D700F0120020C01CF03A
:105F500021C01DF000EC2DF01CC022F01DC023F06C
:105F60000AD0ACA2FED722C0D9FF23C0DAFFDF508F
:105F7000AD6E224A232A22C0D9FF23C0DAFFDF50A8
:105F8000D8B41200EED7186E8A92C9CF1AF1185001
:105F90007F0BC96EC7B00ED0FDD7C9CF1AF1C96843
:105FA000C7A0FED715C0D9FF16C0DAFFC9CFDFFFE3
:105FB000154A162A17061728F0E18A821200046E85
:105FC0008A92C9CF1AF104507F0BC96EC7B00ED0A8
:105FD000FDD7C9CF1AF1C968C7A0FED701C0D9FF44
:105FE00002C0DAFFC9CFDFFF014A022A03060328F5
:105FF000F0E18A8212000101010E186E5C0E176E2C
:10600000196A1A6A1B6A17C0D9FF18C0DAFFDF5075
:106010001926000E1A22174A182A1B2A390E1B6449
:10602000F2D719C015F01AC016F0390C16C018F0C6
:1060300015C017F002D0174A182A17C0F6FF18C06B
:10604000F7FFF86A0800F550F6E11550175C156E79
:1060500016501858166E120016C01CF015C01BF012
:1060600008D01BC0D9FF1CC0DAFF17C0DFFF1B4AD6
:106070001C2A1906D8A01A061928D8B41A28D8B488
:106080001200EFD701011951D8B412001905D8B484
:10609000120054EC31F03F5008093F6E3F943FC06E
:1060A00015F0070E12EC31F0060E0101196F060C07
:1060B00093848A86939682EC2EF0000E81B4010EB2
:1060C000156E93848A9693960101AD1905E015C06B
:1060D000ADF1AE4BAF2B010C000C836F20EE73F0D3
:1060E000100EDE6AE82EFDD78329336E010E356E61
:1060F000B20E346E0001730E366E832935EF2BF02D
:1061000015501702F3CF19F0F4CF1AF015501802FA
:10611000F3501A2616501702F3501A2619C015F01C
:106120001AC016F0120001011951D8B41200190555
:10613000D8B412003F5004093F6E3FC015F0070E5F
:1061400012EC31F0040E0101196F040C156E8A92E5
:10615000C9CF1AF115507F0BC96EC7A0FED7C9CFA2
:106160001AF1C968C7A0FED7C9CF16F08A821650A7
:106170001200016E8A92C9CF1AF101507F0BC96ECD
:10618000C7A0FED7C9CF1AF1C968C7A0FED7C9CF2B
:1061900002F08A8202501200FBEC2FF015C097F13A
:1061A00016C098F10101010E166E5C0E156E186A8C
:1061B0003D0E176E1A6A196A32EF2DF001011905AA
:1061C000D8B4120054EC31F0010E156E070E12EC2B
:1061D00031F0010E3F6E030E0101196FF288030CBE
:1061E0002CC025F02BC024F02DC026F0276A2EC02D
:1061F00028F0A7EC2EF0FC0E226E480E216E5DEF0B
:106200002CF001011905D8B41200310EA6EC30F0C3
:106210003D6E020EA6EC30F03E6E070EA6EC30F09E
:106220003F6E1200166E8A92C9CF1AF1165080097D
:10623000C96EC7A0FED7C9CF1AF115C0C9FFC7A044
:10624000FED78A821200026E8A92C9CF1AF10250DA
:106250008009C96EC7A0FED7C9CF1AF101C0C9FF16
:10626000C7A0FED78A82120001011905D8B4120016
:10627000310EB9EC30F03D6E020EB9EC30F03E6EEE
:10628000070EB9EC30F03F6E120001011905D8B4C9
:10629000120054EC31F0156A070E12EC31F03F6A2F
:1062A000020E0101196F020CF29201011905D8B416
:1062B0001200030EA6EC30F0496E040EA6EC30F08E
