:020000040000fa
:080000000002040000000000f2
:020000040000fa
:10040000cff424000eff27000e018800000000003a
:100410000c000700204c2000210020000f000700e6
:10042000000020000000e000020032000000020096
:1004300000000000ee960200010000000040da001b
:100440000000fe00c03922000000e000020032007f
:10045000002020009001880000000600a102880012
:10046000800078000000eb001a003700e2804000b6
:1004700054a0b4009101ba00e280400054a0b4003e
:100480009102ba00e280400054a0b4000002eb00e8
:10049000472bde00f507b200a6018800602ce100c2
:1004a00008003a000049eb000201e80002003900b0
:1004b0003420ec0002f0a0008301e900f9ff3e00c7
:1004c000040037006128e100010032000082eb00e7
:1004d000040007001101ba000200e000e3ff3a0047
:1004e0000000060004d0a300e20f49001c00390000
:1004f000810278003549ba000201e80002003900a3
:100500003420ec0002f0a0008301e9000f0032006b
:100510002549ba000201e800020039003420ec004d
:1005200002f0a0008301e900080032000400e000ae
:100530000600320015c9ba000201e80002003900c5
:100540003420ec0002f0a0008301e9008180e80083
:1005500054a0b4000300e000e2ff3a0000000600ef
:100560009102ba00055978008301e900f7ff3200d3
:10057000c82ade00055978008301e900f3ff320044
:100580000400e000f1ff320011d9ba00eeff37009d
:100590008e9f04000100000002a004000100000082
:1005a000a69f04000100000030be0400010000000e
:1005b000309f0400010000005e9e04000100000066
:1005c00062c00400010000005cc1040001000000e2
:1005d000bc78040001000000687004000100000005
:1005e00060700400010000008e9d04000100000006
:1005f000ea71040001000000c89d04000100000031
:10060000f27604000100000050eb0400000000003e
:1006100084eb04000000000034ed04000000000042
:10062000b4ed040000000000fced04000000000038
:1006300072ee040000000000d0ee04000000000094
:1006400008ef04000000000066ef04000000000056
:10065000bcef040000000000f4ef04000000000004
:1006600004f10400000000008ef10400000000000e
:10067000eef10400000000004ef204000000000053
:1006800096f2040000000000ccf20400000000001c
:10069000fcf20400000000002cf304000000000045
:1006a0005cf30400000000008cf304000000000074
:1006b000bcf3040000000000ecf3040000000000a4
:1006c0001cf40400000000004cf4040000000000d2
:1006d0007cf4040000000000acf404000000000002
:1006e000d8f404000000000064fc040000000000d6
:1006f00060fd04000000000058b704000100000085
:1007000014fd0400010000003a1304000100000081
:100710005816040001000000221604000100000029
:1007200004d1040000000000bcdc04000000000054
:1007300080dc040000000000a8dd040000000000d0
:1007400070df0400000000007cdf040000000000f7
:1007500040e0040000000000b4df040000000000de
:100760003ae10400000000005ae10400000000002b
:1007700080e104000000000024ba04000100000031
:1007800042170400020000003600040002000000ce
:1007900052be0400010000000600fa00000f7800bd
:1007a00011079800220798001e007800e20f500001
:1007b0000100320005003700ae0090001e009000de
:1007c000421702000200000007003700c0788100d5
:1007d0000000e00004003200c2788100ae0090000a
:1007e0001e009000020001002e0090000080fa0020
:1007f000000006006900e100040035006d00e10022
:10080000030034000002b1000100320000000500c6
:10081000100005001004b100070035009001b10080
:10082000040034007000b100030035009001b100f5
:1008300001003c0010000500000005008000780069
:100840001106b100030035009101b10001003c0028
:100850000050a10000000600889fbe0080047800c0
:10086000507a81000000e00003003a001000070009
:100870000000e0000a003500507a81000900e00025
:1008800002003a00000478000600370000047800f7
:1008900009004000060007000000e00001003d00e4
:1008a0000084eb00080078004f04be000000060042
:1008b000800078000000e00004003a00c0f422004c
:1008c000507a890001017800060037000081eb00b2
:1008d000c0f42400808f500002003e00517a89004d
:1008e0000001eb000200780000000600020ab900d7
:1008f000001bb9000200b8008100420081004300e3
:10090000000006006022b800060220000000d000af
:100910008180d2000482d2008582d2000000a00033
:100920000202520083825a00030031000202420098
:1009300083824a000000a1000603e900f3ff3a00a9
:1009400000000600839f68000100e00002003d00f7
:1009500060001000e08018000300e00002003d008d
:1009600060011100e0811900e6ff07004f00e00080
:1009700002003b0060001000e0801800000006004c
:10098000811f78000100e00002003d0060001000bf
:10099000e08018000300e00002003d00600111004b
:1009a000e0811900050007004f00e00002003b0055
:1009b00060001000e080180000000600d1ff070072
:1009c0000400be0000000600881f780000047800c4
:1009d0005001be004000be00040040008580480079
:1009e0000601490087814900009cbe000294be00b8
:1009f0000400e1000588e1000690e1000798e100ad
:100a000002003100680044001008e8004f0478003c
:100a100000000600f4874700889fbe008a9fbe0042
:100a20008c9fbe008e1f78000205be000004be0031
:100a3000d4b79f00e5b79f00f6b79f0087bf9f0020
:100a40000000eb00c0b79f00b0b79f00a0b79f00a9
:100a500090b79f0080b79f000d042000bfb09700a3
:100a60004fb09700000140000000e0000f003d0083
:100a70004f08de0000007100c0b79f009e00070015
:100a800001003d0012002000a100070001003d0010
:100a900012002000a6000700b1000700b600070002
:100aa0000f004000c8ff0700220037004f08de009b
:100ab00000067100ccb79f008f00070001003d00c9
:100ac000120020009200070001003d0012002000eb
:100ad00097000700a20007000fb297009fb297008f
:100ae0002fb39700bfb39700a90007000000520082
:100af00081805a0002015b0083815b0080b79f0008
:100b000091b79f00a2b79f00b3b79f000007eb000b
:100b10009f0007000020e10001a8e10002b0e10011
:100b200003b8e100010031001e0020000e00560055
:100b3000c0b79f004fb297000400e00007003500e7
:100b400010002000010020006011b80008047000af
:100b5000898470000a0571008b8571008d06e9009b
:100b6000beff3a000400e00003003d0082000700e1
:100b70000f00400094ff07004fa897000000e0001e
:100b800004003a000fb497009fb497002fb5970068
:100b9000bfb59700940007004f0778004f06be00ce
:100ba0004f05be004f04be004f01b100000006001b
:100bb000881f780018002000881f780095ff070024
:100bc0008f87e9004f04780000000600801feb00cb
:100bd00090ff07008f87e90000000600889fbe0095
:100be0008a9fbe008c1f78006e00070007003d0042
:100bf00073000700e00f5b00e08f5b0007003d0023
:100c0000320007000006eb00040037003400070044
:100c100002003d002a0007001c00200072000700af
:100c2000e3ff07000203be000002be000c00e0006c
:100c300001003200220007000400be000601be00d1
:100c40004f0678004f05be004f04be0000000600ae
:100c5000889fbe008a9fbe008c1f7800510007004d
:100c600005003d0056000700e00f5b00e08f5b00d1
:100c700006003d00040037001900070003003d0096
:100c80006000b8006011b8001000070056000700af
:100c9000ceff07000203be000002be000c00e00011
:100ca00001003200060007000400be000601be007d
:100cb0004f0678004f05be004f04be00000006003e
:100cc0006000b8006011b800000037000402500056
:100cd00085825800060359008783590000000600ea
:100ce0000006eb00e00f5200e08f5a00e00f5b00bf
:100cf000e08f5b00000006000180400090b79f007d
:100d00000001eb008fb097000100e000000006003a
:100d10000200700090b79f000180400080b79f00e4
:100d20000001eb00ffa897000100e00000000600b2
:100d30000200700080b79f00018040006faa9700fa
:100d4000cf20de0001007000f0af9f0004024200df
:100d5000250007004f18de000002720000000600a8
:100d6000e4af9f000804440089844c000a054d004c
:100d70008b854d00000006003fb29700cfb2970070
:100d80005fb39700efb3970000fe2f00000006004e
:100d90003fb09700cfb097005fb19700efb19700d9
:100da000000006000205be000004be00e00f500077
:100db000e08f5800e00f5900e08f59000000060056
:100dc0006000b8006011b800080450008984580021
:100dd0000a0559008b8559001c002000e00f5200c5
:100de000e08f5a00000006000800be000a01be00a5
:100df00000000600889fbe008a9fbe008c1f7800fe
:100e00000205be000004be000006eb00e00f50002b
:100e1000e08f5800e00f5900e08f590007003d00b7
:100e20006000b8006011b8000804500089845800c0
:100e30000a0559008b8559001c002000e00f520064
:100e4000e08f5a00e00f5b00e08f5b0002003d0086
:100e50000f0007000c00a2000800be000a01be003f
:100e6000dd0007000203be000002be000c00e0002f
:100e700001003200060007000400be000601be00ab
:100e80004f0678004f05be004f04be00000006006c
:100e90006000b8006011b80004025000858258005c
:100ea000060359008783590000000600889fbe0092
:100eb0008a9fbe00010578000100e00004003500b3
:100ec00008003c000000e000200032000500370070
:100ed00060001000e080180002003b0001f02c00d0
:100ee0001a0037000004be006011b8006b09200032
:100ef0000982cf00020039000882cf000441b0000f
:100f0000694252000e00320008003b0082817100ed
:100f1000610164008904d1000884d3008b05e800d6
:100f20000442e800f9ff3a000500370008044400d5
:100f300089844c008b05e9000442e900fbff3a007c
:100f4000c70007000af0a70001f0a0004f05be008f
:100f50004f04be000000060003f0a200889fbe0000
:100f60008a9fbe008c1f7800e3000700ea00330070
:100f70006450e1004f0032006420e1005200320072
:100f800003826c0007003b000905d0000306d00077
:100f9000820f54000c065d0002003900020032008e
:100fa00089017800030678008582550004003d0021
:100fb0000003fd008103fd008502ea008b854200ed
:100fc000840f720002003b0060001000e0801800f7
:100fd0006011b8000005eb007a28e1000a00390032
:100fe00006007800c75ddd00f707b2008780750056
:100ff0002d003700828171000a01780061056000d0
:101000008180d1000080d3008502e900f9ff3b0018
:10101000060440008784480002003b00600414007e
:10102000e0841c000988a300070032008a81710057
:1010300082817100610164008904d1000884d300b9
:101040008b05e800170037000978a30013003a0069
:101050000b00e000130034008b05e9000804440095
:1010600089844c000a4474000978a3000d003a00fa
:101070000b00e000070034008b05e9000804440081
:1010800089844c0001003a000b0020000978a3007d
:10109000f7ff32000001eb0002003700828171008f
:1010a0000a0178006e0007000cf0a70001f0a00014
:1010b000a20037006420e10002003a00838f6c0038
:1010c000a20033000801be000200be009b003700f2
:1010d000889fbe008a9fbe008c1f78008600070094
:1010e0008d00330003866c006450e1002e00320056
:1010f0006420e100330032006150e1002f00320033
:101100006120e1003100320085855500eb07b00019
:1011100009002000080420000500370008044400ee
:1011200089844c000a0031000603430087834b008a
:101130000001530081815b00f8ff33000203be0011
:101140000800a0000804440089844c00f6ff390020
:10115000c639dd0083017300010032001300200056
:101160008904d1000884d3000998a3000500320047
:101170000800a7000300a0008904d1000884d30060
:101180008b05e8008904d1000884d3000001eb003e
:101190000281d2003200070001f0a1000cf0a7008c
:1011a00001f0a000650037006420e1006700320014
:1011b0000801be000200be00f7ff37006120e10019
:1011c000620032006000b800f3ff3700000020002a
:1011d00001f82700f0ff3700889fbe008a9fbe00fd
:1011e0008c9fbe000404b8000506b80089044600c0
:1011f00060854e000606b8000a054600e0854e00f0
:101200000706b8008b054600040eb80089044600a6
:101210000a854e00e0854d00050eb8000a0546001f
:101220008b854e00060eb8008b0546000416b800ec
:101230000a0546008b854e000516b8008b05460052
:10124000041eb8008b0546000800be000a01be005f
:101250004f06be004f05be004f04be000000060052
:1012600081002000618055000b003d000b00200034
:1012700061fe2f000100e1001d0034008281710039
:10128000610164008904d1000884d3000000e800f3
:10129000faff3a0071002000610064000300700052
:1012a000020060000900320061044400e0844c0048
:1012b0000988a500050032008b05e8006808e100f8
:1012c00002003a008904d1000884d300f20f200004
:1012d0000258e10005003d00c75ddd00f907b200de
:1012e0008980750008007800000006000bf82700d0
:1012f0008b007800000005000004be001600070007
:101300000003be000405be000200be00120007007c
:10131000844f7500000006000200be006450e1002a
:10132000050036006420e100020036000968a300d1
:1013300001003a000800be000160a0004f067800de
:101340004f05be004f04be0000000600f0ff2f0056
:10135000f1ff2700f9ff3700c70ade00f107b200ee
:10136000f50fb20008003200e1cf42000200320067
:101370000170a00024000500810f70000100320000
:101380000408050044000500810f700002003a00c7
:10139000140005008502e9000000400081c04800fb
:1013a000fcff3b000170a000240005002800fa00ab
:1013b000889fbe008a9fbe008c9fbe0003866b0084
:1013c000350207000028a30064003a000128a300aa
:1013d00067003a000008a30062003a000108a30079
:1013e00065003a001e009000be0890008106400093
:1013f000ed3fb100f4805700ee019000111ab800e3
:101400008e099000311bb8009e099000311cb80075
:10141000511db800f485570046000700fe019000fa
:101420003a0007008b85e8003e0007008e09900017
:1014300040000700ee019000340007008b85e800b3
:10144000380007008e099000400007009e099000b8
:101450001b18b800890440000a854800fe0190006e
:10146000340007008b85e80038000700ee0190008b
:10147000300007008e0990001b18b8008904400056
:101480000a8548000a98a30008003a0004024200b6
:1014900085824a0006034b0087834b0008044c00fa
:1014a00089844c000a054d008d06e9008482720093
:1014b000850273004c3add008502720001003200a3
:1014c00015002000443ade001400b2004538de006a
:1014d000cb45dd000b007000c540de00cb4ddd00cc
:1014e0008b8070004549de00cb55dd000b0171009b
:1014f000c551de000d0378000002070003f0a100d3
:101500000cf0a70003f0a000f70137001b18b8008b
:101510008502400006834800e0834b0060044c00d5
:10152000070037001b18b8000603400087834800f7
:10153000faff37001b18b8008703400008844800f2
:10154000e0844c0060054d00000006001b18b80048
:101550000804400089844800faff37000108a3000e
:10156000de013a005800be005801be00e3ff37001c
:101570000008a300d9013a0009047800f9ff3700f8
:101580008103780074ff07000001be006000b8000e
:101590000478a30013003a006220e10015003e0029
:1015a0000d0039008301d1000281d3008180d30076
:1015b0008301d1000281d3008180d3008301d10057
:1015c0000281d3008180d3000538b000c42add0039
:1015d000f300b2008381720007f0a70003f0a000bf
:1015e00000000600f3ff2700f2ff2f006110b90092
:1015f000fbff370003ff2700f7ff37008f1fd100e5
:10160000ea0107008f87e9000000e0000000060003
:10161000801feb00e50107008f87e9000000e00074
:10162000000006001400fa00889fbe008a9fbe00da
:101630008c9fbe000005be000206be006800470089
:101640000c90be000a90be00010207006400e10099
:101650001a00320016003e006100e1001a0032005c
:101660006e049000fe0490000e0b90009e0b900004
:101670006011b8009e0590000b38b100d501200024
:1016800082817100610164008703d1000683d30069
:101690008984d3000884d3008502e900f8ff3a006a
:1016a000effe07000df0a70001f0a0008e0137004b
:1016b000f1ff2700f0ff2f008b01370001f8270012
:1016c00000002000f7ff37006000b800f5ff37008a
:1016d000060207000509780000000600809feb0065
:1016e000b20107008f87e9000000e000000006005b
:1016f0002800fa00889fbe008a9fbe008c9fbe0013
:1017000003866b00640107006400e10044003200be
:101710006408e1004a0032006100e1004600320046
:101720006108e10049003200ec0647006000b800a3
:101730003d02be003d03be00f48657006011b800b4
:101740003d04be003d05be007d0320000b003700b8
:101750000000a0008d06e9001300320004024200e0
:1017600085824a0006034b0087834b00000040003f
:10177000818048000201490083814900080252002b
:1017800089825a000a035b008b835b00f0ff3b00f9
:101790000802420089824a000a034b008b834b00f7
:1017a0008d06e900edff3a008482720086827200a5
:1017b000f707b20087827200010032001500200096
:1017c0001e0490003e0b900006035400e63fb0005c
:1017d0000368a300070032000000a7000500a00076
:1017e0008301d1000281d3008180d3000080d30027
:1017f0000603e8008301d1000281d3008180d30079
:101800000080d3000002eb000482d2003b010700fd
:1018100003f0a1000cf0a70003f0a0003201370094
:10182000640247006408e1002c0132003400be006d
:101830003401be00f6ff37006108e10027013200e5
:101840006011b8006000b800f1ff370003ff270007
:1018500002002000fbff37001400fa00889fbe0042
:101860008a9fbe008c9fbe000004be000205be0021
:10187000680047000a90be000890be00740107008f
:101880000070a7000bf0a1000bf8a30016003a00af
:101890009e0290003043200080825200b0fe2f0054
:1018a0000028e1000d003c00b0fc2f000028e10002
:1018b0000d0034001e0990008e0890007e009000fc
:1018c0000501b0000201d1008180d3000080d30067
:1018d0008502e800fbff3a00030137000100280001
:1018e00000002000000137006000b800fe00370053
:1018f0004f89de0082017800b00037002800fa002e
:10190000889fbe008a9fbe008c9fbe00070678009d
:10191000878669000c003b00030478008704780088
:1019200008f0a10009f0a100840f5000858f580035
:10193000860f5900890f5c00030033000cf0a200f1
:1019400001003a000cf0a100d30007006400e100a0
:101950005f003200780147006408e1006100320056
:101960006c014700748557003200be001201be00b2
:101970003a04be001a05be001e039000be0a900085
:101980008503530006003d000004fd008104fd00b6
:101990000205fd008305fd008703ea0005037800ca
:1019a0000df8a3000400320060041400e0841c0061
:1019b00060051d00e0851d006022b8007d03200049
:1019c0000d38e1008006eb000b0039004433dd00e8
:1019d000f300b20083017300390037008482720083
:1019e0000d027800e10664008b85d1000a85d300e2
:1019f0008984d3000884d3008703e900f7ff3b0004
:101a000008004000898048000a0149008b81490094
:101a100004003b0060001000e08018006001190025
:101a2000e08119000358a300090032008d82720082
:101a300084827200610260008301d1000281d300c0
:101a40008180d3000080d3000603e8001b0037002c
:101a50000348a30017003a000600e0001700340016
:101a60000603e9000d00a300000048008180480043
:101a700002014900838149000348a3000f003a0096
:101a80000600e000090034000603e9000000400001
:101a900081804800020149008381490001003a0029
:101aa0000003eb000348a300f5ff32006022b800fa
:101ab0000200370084827200618266008f00070096
:101ac00003f0a1000cf0a70003f0a000860037008f
:101ad000640147006408e10002003a000df8a30029
:101ae0007e003a003200be001201be007e003700c8
:101af00007f0a20081ff37001400fa00889fbe00a3
:101b00008a9fbe008c9fbe000004be000205be007e
:101b1000680047000a90be000890be00cc00070095
:101b20000070a7000bf0a1000bf8a30020003a0002
:101b30009e0990000e099000fe0090006e0090003b
:101b40009e029000344320008482520066003200de
:101b50000a003c00b4fc2f000428e100140034000b
:101b60008301d1000281d3008180d3000080d300a3
:101b70008502e800faff3a005b003700b40020005d
:101b80000428e10007003c0000004000818048007c
:101b900002014900838149008502e900faff3a0009
:101ba0005100370003002800020020000100370028
:101bb0006011b8006000b8004b003700889fbe007d
:101bc000830478000300e0002c00350003003c0093
:101bd00000827000040271002600320036432000ab
:101be000c50020008383cf000a0039000541b10001
:101bf0008283cf00070039000541b1008183cf0007
:101c0000040039000541b1008083cf000100390094
:101c10000541b10085c353006022b80012003200b4
:101c20000a003b0084827200610260008301d100df
:101c30000281d3008180d3000080d3000603e80036
:101c40008743e800f7ff3a00070037000000400034
:101c50008180480002014900838149000603e900b0
:101c60008743e900f9ff3a002400070009f0a700c4
:101c700003f0a0004f04be0000000600600010004a
:101c8000e080180060011900e0811900d3ff3b00db
:101c9000033e2c00f7ff3700680447000294be00a3
:101ca0000094be00fc0447008694be008494be00ed
:101cb000090078006600070008007800640007004b
:101cc00099007800814f70000b003b000800be00b7
:101cd000930007004f00b10003003700f3ff270017
:101ce000f2ff2f006110b9004f06be004f05be0085
:101cf0004f04be000080fa0000000600180020001b
:101d000057002000080453000d003d00060020008d
:101d100097fc2f000740e1001e003400848272000f
:101d2000610260008301d1000281d3008180d30071
:101d30000080d3000804e800f8ff3a0047002000c4
:101d40006104600005047400040464000d003200a6
:101d500061004000e080480060014900e0814900e6
:101d600003b8a500070032000603e8006538e1006b
:101d700004003a008301d1000281d3008180d300a6
:101d80000080d300f87f20000830e1000300350018
:101d9000080378006000b8006011b8004433dd002b
:101da000f300b2008301730000000600889fbe00ac
:101db0008a9fbe008c9fbe000404be000605be00c4
:101dc000809fbe00829fbe0063000700040678006b
:101dd0000800be000a01be005f000700840678000c
:101de0004f03be004f02be008d4f76007fb09700bc
:101df00013003300f0ff2f008b8f6b0006003b00b9
:101e00000d0666000c00a7000a00370007f0a600c8
:101e1000100020000a003700880f5200898f5a00f6
:101e20008a0f5b008b8f5b000300390010002000dd
:101e300001003e000000200007f0a7000000ea00bb
:101e40004f06be004f05be004f04be000000060056
:101e5000800078005002be005003be004439de000e
:101e6000f700b200f37f2000030161000900320097
:101e70000218e10016003a00850172008301730028
:101e8000838173000008200015003a004000200004
:101e90001300370085017200830173008381730092
:101ea00005003a0004a8be0006a8be0010002000ed
:101eb0000b0037000201e9000402420085824a005b
:101ec00006034b0087834b000748a300f9ff32004d
:101ed0000740a00004a8be0006a8be002000200005
:101ee0008000980092009800000006000003be00e9
:101ef00019fd07006220e100020032000600be006a
:101f000005000500e507b100f107b20004f0230069
:101f10008480700007f0a70001f0a00024000500f5
:101f2000e48240001078a300070032006402400001
:101f30001178a3003400be001401be00040032007a
:101f40000330a700000006003500be001501be00ea
:101f50000330a0000000060005ff27000582610095
:101f6000070032000428e1000100320024000500cf
:101f70000600070001003a004400050004080500bf
:101f800002000700f9ff3a00140005006f826100ab
:101f90008102700085027100850272000000060057
:101fa00021108800301088000000060007e2a90018
:101fb0002208a9002228a9000208a9000228a900d5
:101fc000000006000662a80006c2bf000038a30099
:101fd000fdff3a0008c2a900001080000080fb004d
:101fe0000000060042c7bf000014a0000080fb00f4
:101ff00072052000610420002374200081497800cc
:1020000082497800804978002626ef002746e200c2
:1020100005003d0027c6bf000058a30001003a009c
:102020000300070027e6a90027a6a9000000060074
:1020300021042000914078008180fb00c508de006b
:1020400092028000ff3ffc0000ceb3004260b70068
:10205000920288005005200070398800a00a2000f4
:102060007039880027a6a80092028000ff3ffc007c
:10207000c508dd0042c0bf007f4060000140700025
:1020800042e0b7009202880000000600800078005d
:10209000f2cf2f000001fd002626b6000001fd0052
:1020a000003020002626b70020318000800878000c
:1020b000203180009000980020318000a00098001e
:1020c00020318000b00098000001fd002626b600f7
:1020d0000001fd00003020002626b70024318000da
:1020e000253180002631800027318000614090003a
:1020f000874f5000e7ff3a0000000600889fbe00af
:10210000000478007040900091c5b300814f5000ea
:1021100032003e0068409000814f50002f003e008a
:1021200058409000e64f50002c003e00c840900000
:1021300040c2b30080cf500028003e0038409000dd
:10214000f24f500025003e000004e0002300320062
:10215000a840900010c3b30080cf50001f003e0085
:102160000104e0001d00320027c6bf004500de006c
:10217000e10460000904e00001003a00acff070040
:1021800023c6bf000080fb00c700de000104e000a2
:102190000100320023e6a900f0cf2f002226b6006e
:1021a0002326a80018009000003188002800900025
:1021b0000031880038009000003188000104e00000
:1021c0000100320023e6a800100020000904e0000e
:1021d00003003a0027a6a900010037000000eb0029
:1021e0004f04be0000000600800178000101780065
:1021f00023c6bf000080fb004700de0000427800dd
:102200000004e000070032000100e000020032009c
:1022100023e6a9000300370027c6bf000048a3003b
:10222000fdff3a00e1c06100c608dd0023c6bf0023
:102230000064a1000140700023e6b7000404e00040
:10224000030032000200e0000100320023e6a80093
:10225000000006000001be0023c6bf000080fb0096
:102260004700de00004278000004e0000700320072
:102270000100e0000200320023e6a900030037005d
:1022800027c6bf000048a300fdff3a006f40610071
:102290004200dd00316220009140780032ccb30072
:1022a00082c0600080c070000100780023e6b700a3
:1022b0000404e000030032000300e00001003200eb
:1022c00023e6a800000006008041780023c6bf0076
:1022d0000080fb004700de00004178000004e000c1
:1022e000070032000100e0000200320023e6a900ee
:1022f0000300370027c6bf000048a300fdff3a00d7
:102300000300780022e6b7000204e0000300320078
:102310000100e0000100320023e6a80000000600f2
:10232000889fbe008a9fbe000004780001057800e7
:102330007040900091c5b300814f50005c003e009a
:1023400068409000814f500059003e005840900076
:10235000e64f500056003e00c840900040c2b30017
:1023600080cf500052003e0038409000f24f5000a5
:102370004f003e000004e0004d003200a8409000f5
:1023800010c3b30080cf500049003e000104e000bc
:102390004700320090c9b300984f100044003e003f
:1023a0000a00e0000800320042c0bf000080fb00cd
:1023b000c505de0091028000ff3ffc0000ceb300a7
:1023c0004260b7009102880027c6bf004500de00ca
:1023d000e10460000904e00001003a0014ff070076
:1023e00027c6bf000080fb004700de008040780069
:1023f0000001eb000004e0000400320023c6bf002f
:102400000080fb004701de0027e6a900f0cf2f0087
:102410002626b600003020002626b70027c6bf00bb
:102420000048a300fdff3a00180078002031880022
:10243000180090002031880028009000203188008a
:1024400038009000203188000104e00008003200cc
:1024500027e6a8000200e0000100320023e6a80001
:102460000904e00005003200f1fe07000300370018
:102470000904e00001003a0027a6a900100020008e
:102480000a00e0000b00320092028000ff3ffc00d7
:10249000c558dd0042c0bf007f40600001407000b1
:1024a00042e0b700920288001000200001003700cf
:1024b0000000eb004f05be004f04be000000060008
:1024c00001002000c0778900d177890011c0b300d6
:1024d00060ef2200014878000000060062ef220051
:1024e0001204e00006003a00100020000100200065
:1024f000c0778900d177890010c0b3000049780007
:10250000d2e62400631c2400c0778100d1778100cb
:10251000f6f807000001be00900323000100200030
:102520000200400083804800c0778900d17789008d
:102530004088de00cf80de0000f0a1000000060031
:10254000800078003004e000feff3a0001005000f7
:102550000000e900000006008001eb0002003700e7
:10256000817178008301e800828f5100fcff3a00fe
:10257000000006008001eb000200370061f07900e6
:102580008301e800828f5100fcff3a000000060042
:10259000800178000001780031407800005978000f
:1025a0000004e000fcff3a00030078000000060091
:1025b000889fbe008a9fbe008c9fbe0000017800ed
:1025c000a1ea22001100e0000b003a00e0ea22003c
:1025d00050758900307589007175890041758900d1
:1025e000214090000004a000a040980061409000ad
:1025f0000004a000e0409800e7004100c208de00af
:10260000c20cdd0044758100cdf42200c0f424002a
:102610000d05500022002000811f780011000900e4
:102620000205d80000067800cf007800c308dd005e
:10263000e48540008001eb00c6f42200a5ea2200f8
:102640000100370001027800244090000008a30038
:10265000020032000a003700110a78009400780066
:10266000214090000008a300fbff32000901420056
:10267000828f500002003900840f51004500310064
:1026800094007800848f5000eeff3e00868f50004b
:1026900002003900858f5000eaff39003075810053
:1026a000800f52004e003a00858f50004c003a00d7
:1026b0008301e800e18f5100e2ff36008c8f540067
:1026c000040036008a8f5400020031000b047800a9
:1026d00011003700614ab8006151b900b0ff2f0006
:1026e000010020000200500083805800800f52003b
:1026f000818f5a0002003500090478000600370077
:102700000d805400f1f42400010040001100090084
:102710000a80d8008a04b800080078004ef8070044
:1027200080017800e10f40002d00320030758100fb
:10273000030878003275810064004100a2409000d7
:10274000808f5100020032000104a0000100370018
:102750000104a1002141980008804100640050005c
:102760008009780030758900a2ea2200020878000a
:1027700031758100214090000004a000a040980025
:10278000234090000004a100a041980002027800bc
:10279000a8ff370042758900828f5000090036007b
:1027a0009200780040ea2200a2419000034878009d
:1027b00011758900140978008040eb004075810094
:1027c0002140980040758100000a78002440900064
:1027d0000004a0002042980064004200010037007d
:1027e0000000eb004f06be004f05be004f04be00c8
:1027f000000006006400500040758900a040900071
:102800000104a1002140980000000600889fbe003e
:102810008a9fbe0000057800e401500013001000fc
:10282000c285de00234090000008a30004003200af
:1028300043758900234090000004a100a041980046
:10284000010078005aff0700000478000000e00053
:10285000170032008a0f50001500320060b8970050
:1028600008005000c284de00898f55000100360048
:10287000890578004259dd008a0078000800780058
:102880003cff07008a0f5400090031004248dd0078
:10289000000044008a0f5000050036000a00500076
:1028a0000000440012758100237581000288be007b
:1028b000080078004f05be004f04be00000006006f
:1028c0000c00fa00889fbe0000047800cfb097008b
:1028d000f0ff2700d0bf9f008004eb0099bf9f004e
:1028e00088bf9f00a8bf9f00200c2000b0bf9f00a2
:1028f0007881570070805700480207000fb8970092
:10290000094878000fb897000804500008007800c4
:102910004f04be000080fa0000000600e487470074
:10292000889fbe008a9fbe008c9fbe008e1f7800cd
:102930000005780001077800820578000000eb00b0
:10294000407a89000100e000010032008a08780026
:102950000a047800b84478000900fb00a5f70700d6
:102960000000e0000200320008057800f8ff3700a0
:10297000d0c2b30080cf540005003a0098447800dc
:102980000a84e80010c0b30090f79f0007003700ea
:102990000041eb0092f79f00b0c2b30080cf54001b
:1029a00002003a00984478000a84e80000c3b300ab
:1029b00080cf540017003a0008057800ba44780028
:1029c0000b00e00002003200f08f550009003a00d1
:1029d00080c7b30080cf54000300320080c5b3002d
:1029e00080cf540007003a009a4478000885e80038
:1029f0000b0120006066b8000040eb0080f79f00ec
:102a0000100037000b00e000faff3a008b002000b6
:102a1000f8ff37000b00e00003003a0008057800db
:102a2000ab002000f3ff370008057800f1ff370006
:102a300020022000407a89000205780012c0b3000d
:102a4000240037000904fb000800780071f7070034
:102a50000000e000050032000800780077f707006a
:102a600091ccb300014440000500370001fd2f0068
:102a700001004400e90f500015003e0001c444006d
:102a80000800fb008b0f500011003d006159b90098
:102a90000c00be0095f707000801fb00cf91de0097
:102aa00000004100818049000a01e800800f5600c3
:102ab000818f5e00deff3e009a44780002057800b8
:102ac00012c0b30082f79f000006be00ddff370092
:102ad0000041eb000e00e000030032000ff0970011
:102ae0000004e00004003a009e00780000c3b30038
:102af000914f100001003a000a0fe900e14f510028
:102b000003003a000086eb008086eb0005003700ea
:102b10001ff197000204e000020032006006160078
:102b2000e0861e000c00be004f0778004f06be0076
:102b30004f05be004f04be004f00b100000006006c
:102b4000889fbe008a9fbe008c1f78008005780099
:102b500001057800020678000000eb00407a890049
:102b60000b047800010037000804e800984478005e
:102b70000900fb001ff707000000e000faff3a0021
:102b8000d0c2b30080cf54000500320000c0e9007d
:102b900080cf5400020032008044780001003700ea
:102ba0000804e8000c0178008a007800080078002a
:102bb0005aff07000001be009a0f540001003a00be
:102bc0000b0d78009a8f550003003a00e00f51007a
:102bd000e08f59000f003a00b0c2b30080cf54001c
:102be00004003a00e00f5100e08f590015003d004d
:102bf00008003700d0c2b30080cf540011003a0063
:102c00000000200001002800800f5100818f590032
:102c10000a00360020022000407a890002002000cd
:102c2000030028006b40400080cf540005003200b4
:102c3000f2ff2f00f3ff27000200370060011100b0
:102c4000e08119000200be004f0678004f05be006b
:102c50004f04be00000006000400fa00e0bf9f0021
:102c6000e4815700812978000002eb000f00370053
:102c70006fb89700904078007fb8970010407800b8
:102c80000402e80080cf5000040032008180fb0085
:102c90000080fb0000805000070037006fb89700ed
:102ca0000000e800e0bf9f009309e800820f520097
:102cb000efff3a000000eb000080fa000000060081
:102cc0000003780080027800020278008001eb00a7
:102cd000080037000402e90063c07800805a7800d9
:102ce0008301e8000004e00002003a008000eb00ed
:102cf00006003700828f5100f6ff3a00fbff3700d5
:102d00000040eb0080f07a008100e800848f5000e2
:102d1000fbff3a0006007800000006001041780032
:102d2000b141510003003a000000e8000204e00055
:102d3000faff3a000300fb00000006001041780093
:102d4000814f5100040032000000e8000204e0005e
:102d5000faff3a000000eb000000060000027800d5
:102d6000808f50000a00310082814000808f510026
:102d700007003600020240008000eb00436278004a
:102d80008100e800828f500007003200fbff37000f
:102d90000200e0000400320002814000315a780055
:102da000828f5000fdff3a00000006000000fa008c
:102db0004fb99700e8815700050907000080fa0025
:102dc00000000600810178000002eb000b003700d4
:102dd000e44078000104e000030032000402e8004f
:102de00093cf5000040032008180fb001380fb0071
:102df00000805000000006008301e800820f5200ae
:102e0000f3ff3a00000005008000780000c2b30024
:102e1000010037008100e80011417800804f510027
:102e2000fcff3200e94f5100faff3200d0c2b3007c
:102e3000804f510003003a008100e80014c0b30045
:102e4000050037000042eb00b0c2b300804f5100d4
:102e500001003a008100e8008001eb0005fd2f0031
:102e600004003700ea18b800020040008501400065
:102e70008100e8001101fb0005004100e90f50004e
:102e8000f8ff36000404e000010032008301ea008c
:102e900003007800000006000c00fa00889fbe00c6
:102ea00000047800cfb09700f0ff2700d0bf9f004c
:102eb0008004eb0099bf9f0088bf9f00a8bf9f00c0
:102ec000200c2000b0bf9f00788157007080570011
:102ed000300907000fb89700094878000fb897002d
:102ee00008045000080078004f04be000080fa007b
:102ef000000006000000fa004fb99700e881570073
:102f0000200e07000080fa00000006000c00fa0006
:102f1000889fbe0000047800f0ff2700d0bf9f000c
:102f20008004eb0099bf9f0088bf9f00a8bf9f004f
:102f3000200c2000b0bf9f0070805700b700070032
:102f40000fb89700094878000fb8970008045000a0
:102f5000080078004f04be000080fa000000060060
:102f60000000fa00cfb897006881570009090700f0
:102f70000080fa0000000600889fbe008a9fbe0005
:102f800080407800d0c6b30080cf500029003600c2
:102f90000185fb0042062000110009000285d800cf
:102fa00000017800010478004311dd00ab05220028
:102fb0000b0141006022b8000600200007fe23003c
:102fc0000288900092889000b28990002289900037
:102fd000f6f80700a9002000809fbe00110009003c
:102fe0000984d800000478004f00be004344dd008f
:102ff0000b04440048229000d822900068239000df
:10300000f8239000e9f80700801f7800010278009b
:10301000110009000985d8000102fd004f00780069
:103020004322dd000b0242005403be004402be00f6
:103030001f0037000180fb00a9052200eacf5000e5
:1030400014003600a2002000110009000280d80000
:1030500000017800010478004311dd0009014100fe
:103060006022b8000600200007fe230042209000e6
:10307000d2209000f221900062219000cbf807004e
:103080004344dd00090444003802be002803be00aa
:10309000070037004300dd00090040006022b8004f
:1030a0000600200007fe23005001be004000be00c5
:1030b000bef807004f05be004f04be00000006002a
:1030c000889fbe008a1f7800804078000004e000de
:1030d00021003d008040ea00d0c6b30080cf500000
:1030e000090034008104fb004206200011000900a1
:1030f0008204d80000017800010078004311dd004f
:10310000aa0522001f0037000100fb00a3052200d2
:1031100039003700a2002000110009000200d80089
:1031200000017800010078004311dd000301410037
:103130004300dd00030040003002be002003be005b
:1031400042209000d2209000f22190006221900055
:1031500096f807002e003700d0c6b30080cf50008d
:10316000230034008104fb00420620001100090006
:103170008204d80000017800010078004311dd00ce
:10318000aa1022000a014100a80020001100090035
:103190000800d8004300dd000a00400040229000f3
:1031a000d022900060239000f023900002889000cd
:1031b00092889000b2899000228990007bf80700e5
:1031c000801f780001027800110009008804d800ef
:1031d0000102fd004f0078000402fb004322dd00e5
:1031e0000a0242005403be004402be00d8ff37006a
:1031f0000100fb00a3102200eacf5000c5ff3c00f5
:103200004300dd00030040005001be004000be004e
:103210004f0578004f04be0000000600ef04b00028
:10322000889fbe008a9fbe008c9fbe008e1f7800c4
:103230006022b8006033b800e4a79f00f5a79f00a4
:1032400086af9f0097af9f00a0af9f00b1af9f00d8
:10325000c2af9f008002eb00a5a79f00cf073700f9
:103260000001eb0050c2b30080cf500009003200d3
:103270000100fb00afa897005c0d0700e10f4000c4
:10328000c60732002fa397000603e800a6a79f00f9
:10329000c2073700bfab970097407800b0c2b300b9
:1032a00080cf50001900320007003c006b405000f6
:1032b00080cf5000100032006340400080cf5000ab
:1032c00021003a0016003700d0c2b30080cf500072
:1032d000040032006340400080cf50001a003a00e2
:1032e000140037000230a0003fac97000804e8004b
:1032f000b8af9f00e7ff37000200a000bfac970007
:103300008904e800b9af9f00e2ff37000210a00077
:103310003fad97000a05e800baaf9f00ddff370018
:1033200002b0a000bfad97008b05e800bbaf9f00c7
:10333000d8ff37000220a0003fa897000000e80057
:10334000b0af9f00d3ff37000218a3000100320086
:103350000200a1000238a300010032000220a100f7
:103360000100fb0003fd2f0003004000e90f5000a7
:103370000f003e008000eb00e1979f006f929700e6
:10338000ea20b800bfaa97009500fb0001004000aa
:1033900003004000e0979f005500fb00b5af9f0081
:1033a00003004000e90f50000d003e00f3ff37001e
:1033b0000003eb00e6979f00a0c2b30080cf50004f
:1033c00007003a00cfab970047047800c7af9f00d3
:1033d000e8979f00bfac97008904e800b9af9f0051
:1033e000e0c2b3003fad97009a4f100021003a00b1
:1033f000820678000de0a0008a00e80064405000da
:10340000914f100004003200b1af9f008005eb0027
:10341000bba79f00100037004fa89700c00078009e
:10342000c0af9f00b1a79f003fa997000281e800ad
:10343000b2af9f0013003700bfa19700ea18b80091
:103440000100400002004000b0a79f003faa970083
:103450000402e800b4af9f00bfaa97009500fb00ec
:1034600002fd2f0002804000e90f5000f2ff3600fd
:1034700004003700820678000dc0a0000003eb00b6
:10348000b6a79f00bfab9700b7407800b7af9f00cb
:10349000e1679f0070c6b30080cf50003c0032004f
:1034a00017003c006440500080cf50008f00320075
:1034b0000e003c007c40500080cf500033003200b2
:1034c00006003c000104e0003a07320000c0e900b9
:1034d00080cf5000aa003a002900370080c5b30011
:1034e00080cf5000a6003a002d00370050c6b30030
:1034f00080cf5000230032001f003c00a70037009f
:1035000000c7b30080cf5000250032000a003c0005
:103510006440500080cf50001100320063404000f2
:1035200080cf50001c0032006640500080cf500019
:1035300093003a009900370050c7b30080cf500085
:10354000950032006340400080cf500015003200eb
:103550006540500080cf500089003a0013003700ca
:10356000000028000d48a30001003a0000012000df
:1035700080867600c3ff37000da0a00087003700cb
:103580000d50a0000d80a000840037000d50a00059
:103590000d90a000810037000d60a0007f00370073
:1035a0000d50a0000d70a0007c0037004fac9700bc
:1035b00048007800c8af9f00e0a79f000000e0002f
:1035c00002003a006adc2200eaa79f008005eb00b7
:1035d000fba79f00020037008100e800f1a79f00d1
:1035e000ffa097006fa19700028040001004e00048
:1035f000f9ff3a00bfa197000300e0000400320089
:103600007fa29700848f510001003100f3a79f0033
:103610007fa097000005eb006f939700800f530089
:1036200001003600000553004368de00e10460003d
:1036300019003a000904780009003700afa8970084
:1036400000022000690c0700e10f40000300320077
:10365000afa397008703e800a7a79f000804e8002e
:103660008a0f5400f5ff3a000085eb000a0037008e
:10367000efa097003100fb00e1a79f00afa89700e3
:103680005a0c0700e10f4000030032002fa49700fe
:103690000804e800a8a79f00ffa597000b00e90019
:1036a000f0a79f00e10f4000f1ff3a000004eb009b
:1036b0000900e0000a003a00b8063700afa89700fa
:1036c00000022000490c0700e10f40000300320017
:1036d0002fa197000201e800a2a79f000804e800bc
:1036e0008a0f5400f5ff3a00ac063700cfa99700c7
:1036f00043007800c3af9f00cf80de000101780057
:10370000820178000203be000002be00e0a79f0015
:10371000f1a79f0082af9f0093af9f004822de0079
:10372000482cdd0004027400e4679f000d48a300ec
:103730000c0032000404e0000a003200e14f4200b5
:103740000800320079fa2f000f8044000448780006
:103750004fcd97001a4098002b002000fba79f0038
:1037600003003700f0679f0010002000f0a79f00c3
:1037700071fa2f008f804000e1a79f009dff370066
:1037800062fa2f000f014100e2a79f001300200002
:10379000f3a79f0097ff37000d0cb30000702000c7
:1037a00000826600820432000dc8a30002003200cd
:1037b00064002000b4a79f000d48a3000900320058
:1037c0004fa897004005be004004be00c0af9f0058
:1037d000e89f9f00f99f9f008aa79f009ba79f00db
:1037e000080037004fa997004200be00c2af9f00fb
:1037f00063f70700e09f9f00f19f9f0082a79f0053
:1038000093a79f006022b8006033b8006f989700bc
:10381000ff9897000fa197009fa1970077f70700e7
:103820000000e0000a003d006f9a9700ff9a9700a1
:103830000fa397009fa3970007f0a200e49f9f00ab
:10384000f59f9f0086a79f0097a79f003d00b300ac
:103850000000eb00d0979f006022b8006033b800f2
:103860006f989700ff9897000fa197009fa197006e
:1038700067f707000000e000340032006f989700ff
:10388000ff9897000fa197009fa1970065f7070089
:10389000a5fa2f000f8142008df707005f90970077
:1038a0000000e900e300b800a200200011000900b8
:1038b0000200d8008000fd00d1979f000100e000c9
:1038c00002003d000100e900d0979f005f9497003f
:1038d0000840ea00fafd07006f9a9700ff9a9700e8
:1038e0000fa397009fa39700b0f60700a09f9f002b
:1038f000b19f9f00c29f9f00d39f9f006022b8008e
:103900000600200007ff23003cf707000000e0004e
:1039100002003d000800e9000b0037006022b800fb
:1039200006002000470224002f989700bf989700b8
:103930004f999700df99970068f707000000e000b3
:10394000020035000800e800d0979f005f939700c1
:10395000d6a79f000600e00003003c0010c0b300a3
:10396000e0679f0002003700afcb9700e7679f003a
:103970000d0678000c10b20008003a000d98a30064
:10398000770232005fa49700e40f44000300350083
:10399000bfa49700890f5400f20135003fa597009e
:1039a0000a00e000040032000d98a300020032007b
:1039b0000a05e900baa79f00bfa5970020c1b30080
:1039c000f28f550001003e006fc09700e0679f0036
:1039d0006022b8006033b8006f989700ff98970096
:1039e0000fa197009fa1970009f707000000e000d2
:1039f0006d0032006f659700afc897000ac0500095
:103a0000affd07000002be000203be006f989700e2
:103a1000ff9897000fa197009fa1970034f7070028
:103a2000e09f9f00f19f9f0082a79f0093a79f00a8
:103a300089f707000004be00adf70700e00f54004f
:103a4000e08f5c0004003d006022b800060020000a
:103a5000071f2400a9f707000002be000203be00f2
:103a60006f989700ff9897000fa197009fa197006c
:103a70001ff807006022b8000600200007fe2300a0
:103a800016f707000000e0000c0035006022b800c7
:103a90000600200007fe23006f989700ff9897000c
:103aa0000fa197009fa1970094f70700e09f9f0048
:103ab000f19f9f0082a79f0093a79f006f98970098
:103ac000ff9897000fa197009fa1970062f707004a
:103ad0000002be006033b8000a00fb004304dd00b2
:103ae000698c220009004400d00090006001900021
:103af000f0019000400090000020e10001a8e100ea
:103b000002b0e10003b8e100100039000400200019
:103b100005002a009699290097fb23006f989700cb
:103b2000ff9897000fa197009fa197001ff607002d
:103b3000e09f9f00f19f9f0082a79f0093a79f0097
:103b40005fa197000200e80016003700090044005a
:103b50005001be004000be000020e10001a8e100cd
:103b600002b0e10003b8e1000f0031006022b800ac
:103b700006002000470224006f989700ff989700e6
:103b80000fa197009fa1970008f60700e09f9f00f4
:103b9000f19f9f0082a79f0093a79f00dfa197003e
:103ba0000300e900d0979f004968de0061006000d3
:103bb00080cf9f000004e000400032000080200021
:103bc000008666003d003a00bfa29700f48f5200c5
:103bd0000200340046012000b6a79f006f989700ae
:103be000ff9897000fa197009fa197001af7070071
:103bf0000004be000c0578008c0578000b0037002f
:103c0000bfa397008703e900b7a79f00a400200087
:103c1000050020006033b8000800be000a01be00a5
:103c2000e3f307000205be000004be00e00f5400ed
:103c3000e08f5c00e00f5d00e08f5d000b00320064
:103c4000a4002000050020006033b8000800be007a
:103c50000a01be00ddf30700e00f5000e08f5800be
:103c6000e00f5900e08f5900e5ff3200ef60970048
:103c70000100fb003fa49700800f54000f003d009f
:103c800008c050000efd07000002be000203be0087
:103c90006f989700ff9897000fa197009fa197003a
:103ca00093f60700e09f9f00f19f9f0082a79f006f
:103cb00093a79f00efc49700e9679f006f95970057
:103cc000bfa597000b005500650650000b00e000f3
:103cd00002003a000db8a300010032006606500051
:103ce00063806600010032000c06e9000d28a30085
:103cf00026003200e18066000d18a3000c0032009f
:103d0000d00220000100e00001003a000080e9003c
:103d1000afa89700b50a0700e10f40001800320075
:103d20002fa097000000e800a0a79f001400370014
:103d30000100e00012003200afa89700000220004e
:103d4000aa0a0700e10f40000d003200afa0970063
:103d50008100e800a1a79f0009003700afa89700e5
:103d600000032000a10a0700e10f40000300320019
:103d70002fa197000201e800a2a79f000c06e9000e
:103d80000c00e000f5ff3c002e0037000d38a300ca
:103d90000a0032000b003700afa897000002200095
:103da000920a0700e10f400003003200afa1970024
:103db0008301e800a3a79f000c06e9000c00e000c7
:103dc000f5ff3c00e18066000d18a30013003200ef
:103dd000d00220000100e00001003a000080e9006c
:103de000afa89700810a0700e10f400015003200dc
:103df0002fa297000402e800a4a79f00110037003b
:103e0000e8a79f00f9a79f008aaf9f009baf9f0084
:103e10008042eb00e5679f00800037000100e00072
:103e200008003200afa89700000220006f0a0700c8
:103e3000e10f4000030032002fa397000603e800c3
:103e4000a6a79f006f989700ff9897000fa1970073
:103e50009fa1970080f607000004be006055b800df
:103e6000ef6397000700fb004300dd006e8c22002b
:103e70000e0040003002be002003be000800be005d
:103e80000a01be004af307000003b000afa8970084
:103e9000560a0700e10f4000030032002fa09700f0
:103ea0000000e800a0a79f00ef6097000100fb0062
:103eb0004300dd000e0040003002be002003be00c3
:103ec0000800be000a01be0040f307000205be0064
:103ed0000004be00e0a79f00f1a79f0082af9f00f3
:103ee00093af9f00bfa297000500e00002003a00d8
:103ef0000db8a30049003200afa89700e0022000ef
:103f00003a0a0700e10f4000030032002fa3970098
:103f10000603e800a6a79f00ef6397000700fb00d9
:103f2000bfa0970000805000809f9f0024003700b2
:103f30000fc997000204e00005003200e00f5400b2
:103f4000e08f5c00e00f5d00e08f5d00acff3200b1
:103f50000000fb004300dd006e8c22000e004000dc
:103f60003002be002003be000800be000a01be00f1
:103f70000ff307000003b000afa897001b0a07006b
:103f8000e10f400003003200afa197008301e80079
:103f9000a3a79f006f6297000400fb004300dd00b1
:103fa0000e0040003002be002003be000800be002c
:103fb0000a01be0005f307000205be000004be00b2
:103fc000ef6297000540e900e0679f00e14f400085
:103fd000d7ff3a00e8a79f00f9a79f008aaf9f008c
:103fe0009baf9f000004eb0009003700afa89700cb
:103ff00000032000fd090700e10f4000030032002c
:104000002fa397000603e800a6a79f000804e80076
:104010008f9b9700870f5400f4ff3a000d58a300c0
:1040200009003200afa8970050042000ef090700f4
:10403000e10f40000c0032002fa497000804e800b4
:10404000a8a79f0008003700afa8970050062000df
:10405000e6090700e10f400003003200afa497001b
:104060008904e800a9a79f005f9097000000e00086
:104070000b003d000000ea00d0979f00afa897001a
:10408000d0022000d9090700e10f40000c003200e7
:104090002fa597000a05e800aaa79f00080037008f
:1040a000afa89700b0022000d0090700e10f400040
:1040b00003003200afa597008b05e800aba79f0077
:1040c0005f909700a8002000110009000800d800a8
:1040d0000003b000afa89700c4090700e10f40003b
:1040e000030032002fa097000000e800a0a79f0067
:1040f000df909700110009008800d8008000fd00c3
:104100000003b000afa89700b8090700e10f400016
:1041100003003200afa097008100e800a1a79f0034
:104120000d38a3001d0432000c00e0001b04340015
:104130000004eb00afa8970000022000ab090700c5
:10414000e10f4000030032002fa197000201e800b8
:10415000a2a79f000804e8008c0f54000f0432004f
:10416000f4ff3700dfa197000300e00004003d00ea
:104170003fa29700030052000000e900b0a79f0093
:104180006f989700ff9897000fa197009fa1970045
:1041900059f607000205be000004be000c4278007c
:1041a000658c22000b0037000400fb004300dd009b
:1041b000050040005001be004000be000040e1008c
:1041c00001c8e10002d0e10003d8e100030039009a
:1041d0000442e800f44f5200f3ff3a00e4679f0006
:1041e0000400fb00bfa2970000875200f80f5700a1
:1041f0000d003c000e4078005ffb07000002be008f
:104200000203be006f989700ff9897000fa19700d8
:104210009fa19700b9f50700e09f9f00f19f9f00c5
:1042200082a79f0093a79f000e407800a4fb070081
:10423000d0af9f00e1af9f00f2af9f0083b79f0018
:10424000e00f5400e08f5c00e00f5d00e08f5d0048
:10425000040035000800be000a01be0057f6070042
:104260001300370010002000010020006011b8008a
:1042700008006000898060000a0161008b81610094
:104280008b03d1000a83d3008982d3000882d30034
:10429000000072008180720002017300838173004c
:1042a00046f607000002be000203be0093f50700b9
:1042b0000002be000203be006f989700ff989700af
:1042c0000fa197009fa1970009f607000002be000a
:1042d0000203be005fa89700efa897007fa9970090
:1042e0008fb1970031f4070003f607000205be0006
:1042f0000004be000006eb0008003700a400200008
:10430000050020006033b8000800be000a01be00ae
:1043100027f207000205be000004be000c03570090
:10432000b6a79f008e0f56001d0032000c06e80055
:10433000a4002000050020006033b8000800be0083
:104340000a01be0021f20700e00f5000e08f580084
:10435000e00f5900e08f5900e8ff320010003700ed
:10436000bfa39700f88f53000d003c000740780072
:1043700001fb07000002be000203be006f98970019
:10438000ff9897000fa197009fa197005bf507008a
:10439000e09f9f00f19f9f0082a79f0093a79f002f
:1043a0005fa49700e90f540015003c006022b8009c
:1043b0006033b8006f989700ff9897000fa197009f
:1043c0009fa1970092f407000000e0003600320041
:1043d0006f989700ff9897000fa197009fa19700f3
:1043e000c5f50700e00f5000e08f5800e00f5900be
:1043f000e08f59002c003a00e10f54002a003400ed
:104400000400200005002e00b6e022001701240061
:104410002f989700bf9897004f999700df999700c2
:1044200076f407000000e00003003d00dfa49700e1
:1044300073805400020037005fa59700720055009a
:10444000d0979f002f6897001dfb0700a09f9f003b
:10445000b19f9f00c29f9f00d39f9f000002be009c
:104460000203be006f989700ff9897000fa1970076
:104470009fa197009ef407009ff50700e0a79f000b
:10448000f1a79f0082af9f0093af9f006000b8002c
:104490006011b800d0b79f00e1b79f00f2b79f004e
:1044a00083bf9f00340037006f989700ff989700f4
:1044b0000fa197009fa197008ff50700e0a79f002d
:1044c000f1a79f0082af9f0093af9f00e00f5000c5
:1044d000e08f5800e00f5900e08f590002003500ce
:1044e000b6f507001700370010002000010020007b
:1044f0006011b8006fa29700ffa297000fab970062
:104500009fab970004006000858060000601610099
:10451000878161008703d1000683d3008582d300a1
:104520000482d300000072008180720002017300d7
:1045300083817300a1f507000002be000203be00e4
:10454000eef407000002be000203be006f98970061
:10455000ff9897000fa197009fa1970064f50700af
:10456000d0b79f00e1b79f00f2b79f0083bf9f00c5
:104570000000eb00d0979f0014c0b300658c2200b0
:104580000f0037000400fb004300dd00050340007e
:104590003600be002601be006fa49700ffa497005e
:1045a0000fad97009fad97000040e10001c8e1000a
:1045b00002d0e10003d8e100030039000442e80022
:1045c000f44f5200efff3a00e4679f000400fb0045
:1045d000bfa4970000804400df90970001004000d6
:1045e0006f959700000655004b68de006100600083
:1045f000004778000004e00002003a000900e000f3
:10460000010032000c06e900638066000100320000
:104610000c06e9000d28a30026003200e1806600a8
:104620000d18a3000c003200d00220000100e000b1
:1046300001003a000080e900afa897006b0807006e
:10464000e10f400018003200afa597008b05e8008d
:10465000aba79f00140037000100e00012003200f9
:10466000afa897000002200060080700e10f40009b
:104670000d0032002fa097000000e800a0a79f00c7
:1046800009003700afa89700000320005708070073
:10469000e10f400003003200afa097008100e80066
:1046a000a1a79f000c06e9000c00e000f5ff3c000c
:1046b0003f0037000d38a3000a0032000b0037001e
:1046c000afa897000002200048080700e10f400053
:1046d000030032002fa197000201e800a2a79f006b
:1046e0000c06e9000c00e000f5ff3c00e1806600ec
:1046f0000d18a3000c003200d00220000100e000e1
:1047000001003a000080e900afa8970037080700d1
:10471000e10f400026003200afa197008301e800be
:10472000a3a79f00220037000100e0002000320014
:10473000afa89700000220002c080700e10f4000fe
:104740001b0032002fa297000402e800a4a79f00dc
:10475000170037000000fb004300dd00618c2200e1
:10476000010040003002be002003be006fa0970091
:10477000ffa097000fa997009fa997000cf10700d1
:10478000a4002000050020006033b8000ff10700ee
:104790000003b000afa8970014080700e10f400025
:1047a00003003200afa297008502e800a5a79f0092
:1047b0006f6397000640e900e0679f00e14f40000b
:1047c000e4ff3a000b003700afa897000003200079
:1047d00006080700e10f400003003200afa3970076
:1047e0008703e800a7a79f005f9097000000e900fb
:1047f000d0979f005f9097000000e000f2ff3c0020
:104800003fa49700f20f54000300340020c1b3000e
:10481000e0679f0002003700efc49700e9679f0040
:10482000ef6097000100fb003fa5970000005500d6
:10483000f0979f000104e00002003a000e04e0003f
:1048400008003200afa89700e0022000e707070049
:10485000e10f400003003200afa597008b05e80090
:10486000aba79f006f60970015fa07000002be001b
:104870000203be005fb09700efb097007fb19700d2
:104880008fb99700c9f207009bf407001e0037009c
:104890000000fb004300dd006e8c22000e00400093
:1048a0003002be002003be000800be000a01be00a8
:1048b000bff00700a4002000050020006033b8000e
:1048c000c2f007000003b000afa89700c7070700b9
:1048d000e10f4000030032002fa097000000e80025
:1048e000a0a79f00ef6097000100fb004300dd00e0
:1048f0000e0040003002be002003be000800be00d3
:104900000a01be00b1f007000205be000004be00af
:104910006f6197000240e900e0679f00e14f4000af
:10492000dbff3a00e8a79f00f9a79f008aaf9f002e
:104930009baf9f000004eb0009003700afa8970071
:1049400000032000a9070700e10f40000300320028
:10495000afa197008301e800a3a79f000804e80027
:104960007f929700840f5400f4ff3a000d38a300a3
:104970000a0232000c00e000080234000004eb00e0
:10498000afa897000002200098070700e10f400041
:1049900003003200afa297008502e800a5a79f00a0
:1049a0000804e8008c0f5400fc013200f4ff3700cb
:1049b0000d007800000cb20032003a000d00e0005b
:1049c00009003d004fa897004005be004004be000e
:1049d000c0af9f00e8a79f00f9a79f008aaf9f0084
:1049e0009baf9f00160037000d48a300090032005e
:1049f0004fa997004200be00c2af9f004f89de0062
:104a0000cf91de000002be0002037800820378002e
:104a100007003700cfa9970043007800c3af9f007d
:104a200000027800cfa2de0005037800860378003c
:104a3000e4a79f00f5a79f0086af9f0097af9f0058
:104a40006fa49700ffa497000fad97009fad97004c
:104a5000e00f5400e08f5c00e00f5d00e08f5d0030
:104a600026003d003d00b3006000b8006011b800b2
:104a700008045000898458000a0559008b855900a4
:104a80001a0037000d00e00005003d004faa970016
:104a90004401be004400be00c4af9f0007003700c1
:104aa0000d48a3000a003200cfaa97004500be00bf
:104ab000c5af9f000401780084017800e0a79f0043
:104ac000f1a79f0082af9f0093af9f000b003700bc
:104ad0004fab970046007800c6af9f0000047800f7
:104ae000090020000a0020000b002000e8a79f001a
:104af000f9a79f008aaf9f009baf9f00bfa49700bc
:104b00000900e0000b003a006fa09700ffa097009b
:104b10000fa997009fa99700e00f5000e08f580061
:104b2000e00f5900e08f590002003a001100200008
:104b3000b1a79f000d0678000c0cb2000004200005
:104b4000800f56003700320003003c000c00e000ec
:104b5000070032004b00370000082000800f56008d
:104b600018003200000c2000800f560045003a006b
:104b700014c0b300658c22000f0037000400fb0056
:104b80004300dd00050040005001be004000be00b3
:104b90006fa49700ffa497000fad97009fad9700fb
:104ba0000040e10001c8e10002d0e10003d8e100cb
:104bb000330039000442e800f44f5200efff3a009e
:104bc0002f00370000012000010020006011b80014
:104bd00014c0b3006fa49700ffa497000fad970017
:104be0009fad97000040e10001c8e10002d0e10064
:104bf00003d8e10022003900490020000000d00065
:104c00008180d2000281d2008381d2008904e90030
:104c1000faff3a000442e800f04f5200edff3a007c
:104c20001700370080002000010020006011b8004c
:104c300014c0b3006fa49700ffa497000fad9700b6
:104c40009fad97000040e10001c8e10002d0e10003
:104c500003d8e1000a003900390020000000d0002c
:104c60008180d2000281d2008381d2008904e900d0
:104c7000faff3a000442e800f54f5200edff3a0017
:104c8000e4679f006f6597000a00fb00bfa59700cf
:104c90008b0f500002003d00eb679f0004003700bf
:104ca000bfa09700808f500001003d00b0a79f007b
:104cb0006f9197000200e0000400320063806600fc
:104cc000020032000201e900e2979f000de8a30014
:104cd0000b003200ef9197003fa29700848f5100a4
:104ce00003003c008002eb00e5979f0004003700c2
:104cf0006f939700bfa3970007035300e6979f00a9
:104d0000408c20000080660001842000810f50004c
:104d100006003a006f9497000800e000110032008e
:104d20000804e900e8979f000e003700008c20007f
:104d30000080660001882000810f500009003a00c1
:104d4000ef949700e28f540003003c000005eb0055
:104d5000ea979f0003003700ef9597008b85e900e5
:104d6000eb979f00ef6097000100fb000007eb004e
:104d70006f919700800f510001003400000751002f
:104d80000d28a3004b003200e18066000d18a3003f
:104d90000c003200d00220000100e00001003a00c7
:104da0000080e900afa8970090060700e10f4000df
:104db00027003200afa197008301e800a3a79f005e
:104dc000230037000100e00009003200afa897007f
:104dd0000002200085060700e10f40001c003200a1
:104de0002fa297000402e800a4a79f001800370034
:104df000008c20000080660001882000810f500098
:104e000013003a00afa897000003200077060700c0
:104e1000e10f400003003200afa297008502e800d6
:104e2000a5a79f00800520000d58a30001003a00af
:104e300080072000afa897006c060700e10f400034
:104e4000030032002fa397000603e800a6a79f00e7
:104e50000e00e0000d0032000004eb00afa8970048
:104e60000003200061060700e10f4000030032004c
:104e7000afa397008703e800a7a79f000804e800f6
:104e80008e0f5400f5ff3a000007eb003fa4970097
:104e90004340dd00e18b2200810540004240dd00ff
:104ea00064055000e340b800909f9f0063045000e9
:104eb000a20037000e00e0000f003200688066009c
:104ec0000d003a0000047800afa89700000220000f
:104ed00046060700e10f400003003200afa0970034
:104ee0008100e800a1a79f000804e8008e0f54008d
:104ef000f5ff3a000007eb00e18066000d18a30003
:104f00000c003200d00220000100e00001003a0055
:104f10000080e900afa8970034060700e10f4000c9
:104f20000e0032002fa197000201e800a2a79f0007
:104f30000a0037000100e00008003200afa8970027
:104f40000002200029060700e10f400003003200a4
:104f5000afa197008301e800a3a79f00008c200069
:104f60008080660000842000808f500009003a0095
:104f7000afa89700000320001c060700e10f4000c7
:104f8000c2ff32002fa297000402e800a4a79f00ee
:104f9000beff370000882000808f5000bbff3a0022
:104fa000afa897000003200010060700e10f4000a3
:104fb00003003200afa297008502e800a5a79f007a
:104fc000800520000d58a30001003a008007200052
:104fd000afa8970005060700e10f4000abff3200c5
:104fe0002fa397000603e800a6a79f00a7ff37009e
:104ff00000042000800f56003100320003003c0006
:105000000c00e000070032004000370000082000dc
:10501000800f560012003200000c2000800f560056
:105020003a003a003b02be002b03be006fa097007f
:10503000ffa097000fa997009fa99700dcee07003b
:10504000a4002000050020006033b800dfee070058
:1050500007c3b30087434000e7679f002b0037007a
:10506000d9dc22000d58a30001003a00e9dd22003e
:1050700014002000050020006033b8000a0078000a
:105080000000e900050033000402d0008582d20050
:105090000683d2008783d200f9ff37006fa0970004
:1050a000ffa097000fa997009fa99700c0ee0700e7
:1050b0006f006000e9447800e9679f001300370043
:1050c00014002000050020006033b800880078003c
:1050d0008100e900050033000402d0008582d2007f
:1050e0000683d2008783d200f9ff37006fa09700b4
:1050f000ffa097000fa997009fa99700acee0700ab
:10510000674060000043b000e0679f006f61970058
:105110000200fb00afa89700b4050700e10f4000b4
:1051200003003200afa197008301e800a3a79f000e
:10513000e88555006405550063045400d0ff2f0036
:105140003fa297008020b8001f9b970000004300fb
:1051500063005000800f5400a5ff3a000d38a300f3
:105160000e0032000e00e0000c0034000004eb00e2
:10517000afa89700000220009c050700e10f400047
:1051800003003200afa397008703e800a7a79f00a2
:105190000804e8008e0f5400f5ff3a003fac97007a
:1051a000b8407800b8af9f00e1679f000104e000bd
:1051b0002bf83a002fa097004f0778004f06be004b
:1051c0004f05be004f04be00ef04b1000000060012
:1051d0000c00fa00881f7800000278008202780034
:1051e000030178008001eb00e18f50000e003600d3
:1051f0000100e900e0bf9f000004eb00a8bf9f0092
:1052000094bf9f00b4bf9f00200c2000c0bf9f0030
:10521000850078006e8057005e00070080017800ee
:105220001fb8970008487800030078004f04780002
:105230000080fa0000000600889fbe008a1f7800e8
:10524000804078000004e00021003d008040ea003a
:10525000d0c6b30080cf5000090034008104fb00a9
:1052600042062000110009008204d80000017800e5
:10527000010078004311dd00aa0522001f0037005d
:105280000100fb00a305220039003700a200200026
:10529000110009000200d800000178000100780028
:1052a0004311dd00030141004300dd000300400025
:1052b0003002be002003be0042209000d2209000a9
:1052c000f22190006221900038f007002e00370094
:1052d000d0c6b30080cf5000230034008104fb000f
:1052e00042062000110009008204d8000001780065
:1052f000010078004311dd00aa1022000a014100dc
:10530000a8002000110009000800d8004300dd00bb
:105310000a00400040229000d022900060239000bc
:10532000f02390000288900092889000b28990004b
:10533000228990001df00700801f7800010278008c
:10534000110009008804d8000102fd004f00780018
:105350000402fb004322dd000a0242005403be00a7
:105360004402be00d8ff37000100fb00a31022005a
:10537000eacf5000c5ff3c004300dd0003004000c1
:105380005001be004000be004f0578004f04be0033
:10539000000006008f03b000889fbe008a9fbe00f9
:1053a0008c9fbe008e1f7800e0b79f00f1b79f0072
:1053b00082bf9f000000eb00a0b79f00e40437000d
:1053c0000001eb0050c2b30080cf50000900320052
:1053d0000100fb00efb0970004050700e10f40005b
:1053e000db043200afb097008100e800a1b79f0056
:1053f000d7043700ffb1970093407800d0c2b300c4
:1054000080cf50000c00320007003c006d4050007f
:1054100080cf50000d0032006b40400080cf500024
:1054200019003a000e00370000c3b30080cf5000cf
:1054300015003a000f0037000230a0007fb297003d
:105440000402e800f4b79f00eaff37000200a00062
:10545000ffb297008502e800f5b79f00e5ff37002f
:105460000210a0007fb697000c06e800fcb79f0072
:10547000e0ff37000220a0007fb097000000e800a6
:10548000f0b79f00dbff37000218a30001003200d5
:105490000200a1000238a300010032000220a10096
:1054a0000100fb0003fd2f0003004000e90f500046
:1054b0000f003e008000eb00c1b79f004fb2970085
:1054c000ea20b800ffb297009500fb000100400001
:1054d00003004000c0b79f005500fb00f5b79f00d8
:1054e00003004000e90f50000d003e00f3ff3700bd
:1054f0000006eb00ccb79f00a0c2b30080cf5000e5
:1055000007003a000fb89700c000780080bf9f00e6
:10551000c1b79f00ffb197008301e800f3b79f0078
:10552000e0c2b3007fb29700944f100021003a0010
:10553000820678000de0a0008400e800644050007e
:10554000914f100004003200f1b79f008002eb0081
:10555000b5b79f00100037000fbe97004c007800d1
:105560008cbf9f00b0b79f00ffb097008180e8001c
:10557000f1b79f0013003700bfb19700ea18b800d9
:105580000100400002004000b0b79f007fb29700ca
:105590000402e800f4b79f00ffb297009500fb00fb
:1055a00002fd2f0002804000e90f5000f2ff36009c
:1055b00004003700820678000dc0a0000006eb0052
:1055c000bcb79f007fb09700b0407800f0b79f0055
:1055d000c17f9f00c0c6b30080cf500027003200bb
:1055e00014003c006840500080cf50009d00320005
:1055f00009003c006c40500080cf50002900320070
:105600006b40400080cf5000720032000104e00087
:10561000550432008e00370060c6b30080cf5000c2
:105620001c0032006340400080cf500088003a00e8
:105630008c00370030c7b30080cf50001c00320010
:1056400007003c006440500080cf5000130032003f
:105650000040e80080cf50007d003a001100370084
:1056600050c7b30080cf50007d003200634040003f
:1056700080cf500076003a000b0037000000280071
:105680000d48a30001003a0000012000808676004a
:10569000ccff37000da0a000720037000d60a00005
:1056a000700037000d50a0000d70a0006d00370095
:1056b0008fb897004100780081bf9f0000047800f8
:1056c0000000e00001003a0008df22008004eb0047
:1056d000010037008104e800890078000880440058
:1056e0001004e000fbff3a003fb197000200e00029
:1056f00003003200890f510001003100820478005c
:105700000007eb00cfb19700898f510001003600f0
:10571000098751004368de00e106600019003a0085
:105720000d06780009003700efb097000002200056
:105730002e040700e10f4000030032002fb2970053
:105740000402e800a4b79f000c06e8008e0f560084
:10575000f5ff3a000087eb000a0037008800780068
:105760003100fb0001047800efb097001f04070030
:10577000e10f400003003200afb297008502e8005d
:10578000a5b79f000900e90080047800e10f400000
:10579000f2ff3a000006eb000d00e0000a003a00bc
:1057a000eb033700efb09700000220000f04070062
:1057b000e10f4000030032002fb097000000e80026
:1057c000a0b79f000c06e8008e0f5600f5ff3a00c8
:1057d000df0337008fb897004100780081bf9f003a
:1057e000cf80de0001017800820178000205be0052
:1057f0000004be000203be000002be004822de001c
:10580000482edd0004027600c47f9f000d48a300ef
:105810000a0032000404e00008003200e14f4200b8
:1058200006003200d1fb2f000f80400004487800b2
:10583000184098002900200002003700d07f9f0008
:1058400019002000d2fb2f000f044100a6ff3700f3
:10585000c3fb2f000f84410019002000a2ff370076
:105860000d0cb30000702000008266002702320099
:105870000dc8a3000200320064002000b4b79f00ee
:105880000d48a300050032000fba97004401be0086
:105890004400be0084bf9f00040037008fba970009
:1058a0004500be0085bf9f0035ef0700e0af9f00b9
:1058b000f1af9f0082b79f0093b79f006022b800ae
:1058c0006033b8006fa89700ffa897000fb197004a
:1058d0009fb1970049ef07000000e0000a003d007b
:1058e0006fa89700ffa897000fb197009fb197008e
:1058f00003f0a200e0af9f00f1af9f0082b79f00ce
:1059000093b79f003d00b3000000eb0080a79f000d
:105910006022b8006033b8006fa89700ffa8970016
:105920000fb197009fb1970039ef07000000e0002a
:10593000340032006fa89700ffa897000fb19700be
:105940009fb1970037ef070003fc2f000f81410044
:105950005fef07000fa097000000e900e300b80028
:10596000a2002000110009000200d8008000fd0004
:1059700081a79f000100e00002003d000100e90056
:1059800080a79f000fa497000840ea002afe0700a6
:105990006faa9700ffaa97000fb397009fb39700d5
:1059a00082ee0700a0af9f00b1af9f00c2af9f0083
:1059b000d3af9f006022b8000600200007ff23003d
:1059c0000eef07000000e00002003d000800e900c3
:1059d0000b0037006022b8000600200047022400b8
:1059e0002fa89700bfa897004fa99700dfa997009d
:1059f0003aef07000000e000020035000800e80070
:105a000080a79f003fb29700f80f520057003c005c
:105a1000d0c6b300804f5200290036000485fb0039
:105a200042062000110009000285d800000178001c
:105a3000010478004311dd00ab0522000b01410099
:105a40006022b8000600200007fe230002889000b4
:105a500092889000b28990002289900053ee07004e
:105a6000a9002000809fbe00110009000984d80011
:105a7000000478004f00be004344dd000b044400e6
:105a800048229000d822900068239000f8239000cc
:105a900046ee0700801f780001027800110009001f
:105aa0000985d8000102fd004f0078004322dd0087
:105ab0000b0242005403be004402be001f00370028
:105ac0000480fb00a9052200ea4f520014003600b2
:105ad000a2002000110009000280d8000001780017
:105ae000010478004311dd00090141006022b80083
:105af0000600200007fe230042209000d2209000e4
:105b0000f22190006221900028ee07004344dd005e
:105b1000090444003802be002803be000700370015
:105b20004300dd00090040006022b80006002000ac
:105b300007fe23005001be004000be001bee070020
:105b40000002be000203be006fa89700ffa89700e6
:105b50000fb197009fb1970068ef0700e0af9f007b
:105b6000f1af9f0082b79f0093b79f000fa49700eb
:105b7000e90f540015003c006022b8006033b80003
:105b80006fa89700ffa897000fb197009fb19700eb
:105b90009fee07000000e000320032006fa897007f
:105ba000ffa897000fb197009fb19700d2ef0700b1
:105bb000e00f5000e08f5800e00f5900e08f5900cf
:105bc00028003a00e10f54002600340004002000b1
:105bd00005002e00b6e02200170124002fa8970030
:105be000bfa897004fa99700dfa9970083ee070091
:105bf0000000e00002003d00730054000100370087
:105c00007200540080a79f000fc097008afd070014
:105c1000a0af9f00b1af9f00c2af9f00d3af9f0066
:105c20000002be000203be006fa89700ffa8970005
:105c30000fb197009fb19700adee0700aeef0700e0
:105c40000205be000004be006000b8006011b8008c
:105c5000a0a79f00b1a79f00c2a79f00d3a79f0046
:105c60002e0037006fa89700ffa897000fb197008c
:105c70009fb19700a0ef07000205be000004be0020
:105c8000e00f5000e08f5800e00f5900e08f5900fe
:105c900002003500c9ef0700130037001000200094
:105ca000010020006011b8000800600089806000d9
:105cb0000a0161008b8161008b03d1000a83d3004c
:105cc0008982d3000882d3000000720081807200b4
:105cd0000201730083817300b8ef07000002be0069
:105ce0000203be0005ef07000002be000203be0073
:105cf0006fa89700ffa897000fb197009fb197007a
:105d00007bef0700a0a79f00b1a79f00c2a79f003d
:105d1000d3a79f000000eb0080a79f0014c0b30032
:105d2000659622000b0037000400fb004300dd00f5
:105d3000050040005001be004000be000040e100f0
:105d400001c8e10002d0e10003d8e10003003900fe
:105d50000442e800f44f5200f3ff3a00c47f9f0072
:105d60000400fb00bfb09700008040008fa09700a8
:105d7000010040004fb1970000075100bfb19700ec
:105d80000300e000010032000e07e90063806600b6
:105d9000010032000e07e9000d28a30026003200a2
:105da000e18066000d18a3000c003200d002200034
:105db0000100e00001003a000080e900efb0970028
:105dc0008a020700e10f4000180032002fb297004e
:105dd0000402e800a4b79f00140037000100e000af
:105de00012003200efb09700000220007f0207008f
:105df000e10f40000d003200afb297008502e800cd
:105e0000a5b79f0009003700efb0970000032000fe
:105e100076020700e10f4000030032002fb6970022
:105e20000c06e800acb79f000e07e9000e00e0008a
:105e3000f5ff3c003d0037000d38a3000a0032009a
:105e40000b003700efb09700000220006702070048
:105e5000e10f4000030032002fb097000000e8007f
:105e6000a0b79f000e07e9000e00e000f5ff3c0020
:105e7000e18066000d18a3000c003200d002200063
:105e80000100e00001003a000080e900efb0970057
:105e900056020700e10f400024003200afb0970027
:105ea0008100e800a1b79f00200037000100e0005a
:105eb0001e003200efb09700000220004b020700e6
:105ec000e10f4000190032002fb197000201e800f5
