:020000040000fa
:080000001015040000000000cf
:020000040000fa
:102a20000fe422000e7f24000e0188000000000049
:102a30000c000700209a2e00010020001100070062
:102a4000000020000000e000020032000000020050
:102a500000000000f4ca0200000000000040da009c
:102a60000000fe004440a900e03021000000e0002a
:102a70000300320000002000a00188004440a800ac
:102a80000000060091018800800078000000eb0043
:102a900015003700e280400032a0b4009101ba0076
:102aa000e280400032a0b4009102ba00e28040000f
:102ab00032a0b4000002eb00472bde00f507b200a5
:102ac000602ce10004003a000059eb008301e900aa
:102ad000fdff3e00040037006128e10001003200e4
:102ae0000082eb00040007001101ba000200e000c0
:102af000e8ff3a00000006003159ba008301e900fe
:102b00000c0032002159ba008301e90008003200ac
:102b10000400e00003003a00e280400032a0b4006c
:102b2000f5ff370011d9ba008301e900faff3a0036
:102b30008100e800e180400032a0b40000000600ff
:102b40008af404000000000054fa040000000000b1
:102b5000d0f9040000000000cef9040000000000dd
:102b6000c0f904000000000012fa04000000000098
:102b7000d6f9040000000000f2f904000000000093
:102b80008ae1040000000000889fbe008a1f7800d0
:102b90000105780082047800326f81000200e000b5
:102ba00002003a000204780008003700890078002b
:102bb0000a00780002000100060037006a407c002d
:102bc0008af20200000000000804e800890f5400a7
:102bd000faff3a00090078004f0578004f04be0064
:102be00000000600020ab900001bb9000200b8008c
:102bf0008100420081004300000006008000780050
:102c00001106b100030035009101b10001003c0044
:102c10000050a10000000600800078001104b100ff
:102c2000030035009101b10001003c000050a000fc
:102c300000000600839f68000100e00002003d00e4
:102c400060001000e08018000300e00002003d007a
:102c500060011100e0811900050007004f00e0004d
:102c600002003b0060001000e08018000000060039
:102c70006022b800060220000000d0008180d2004f
:102c80000482d2008582d2000000a000020252001d
:102c900083825a00030031000202420083824a000c
:102ca0000000a1000603e900f3ff3a00000006005f
:102cb000efff07000400be0000000600881f780038
:102cc000000478005001be004000be000400400037
:102cd000858048000601490087814900009cbe00ac
:102ce0000294be000400e1000588e1000690e100c6
:102cf0000798e10002003100680044001008e80075
:102d00004f04780000000600f4874700889fbe004b
:102d10008a9fbe008c9fbe008e1f78000205be00f9
:102d20000004be00d4b79f00e5b79f00f6b79f0030
:102d300087bf9f000000eb00c0b79f00b0b79f00a7
:102d4000a0b79f0090b79f0080b79f000d042000a0
:102d5000bfb097004fb09700000140000000e000b6
:102d60000f003d004f08de0000007100c0b79f005b
:102d70009e00070001003d0012002000a100070096
:102d800001003d0012002000a6000700b10007006e
:102d9000b60007000f004000c8ff07002200370000
:102da0004f08de0000067100ccb79f008f000700bf
:102db00001003d00120020009200070001003d00cc
:102dc0001200200097000700a20007000fb2970032
:102dd0009fb297002fb39700bfb39700a9000700d9
:102de0000000520081805a0002015b0083815b0079
:102df00080b79f0091b79f00a2b79f00b3b79f0015
:102e00000007eb009f0007000020e10001a8e1009f
:102e100002b0e10003b8e100010031001e00200013
:102e20000e005600c0b79f004fb297000400e000ac
:102e30000700350010002000010020006011b800dc
:102e400008047000898470000a0571008b85710088
:102e50008d06e900beff3a000400e00003003d00db
:102e6000820007000f00400094ff07004fa8970062
:102e70000000e00004003a000fb497009fb49700f0
:102e80002fb59700bfb59700940007004f07780053
:102e90004f06be004f05be004f04be004f01b100fb
:102ea00000000600881f780018002000881f7800a6
:102eb00095ff07008f87e9004f04780000000600a7
:102ec000801feb0090ff07008f87e90000000600dd
:102ed000889fbe008a9fbe008c1f78006e0007008e
:102ee00007003d0073000700e00f5b00e08f5b0010
:102ef00007003d00320007000006eb000400370029
:102f00003400070002003d002a0007001c002000da
:102f100072000700e3ff07000203be000002be00cc
:102f20000c00e00001003200220007000400be0097
:102f30000601be004f0678004f05be004f04be00dc
:102f400000000600889fbe008a9fbe008c1f78008c
:102f50005100070005003d0056000700e00f5b0030
:102f6000e08f5b0006003d000400370019000700f9
:102f700003003d006000b8006011b80010000700b9
:102f800056000700ceff07000203be000002be008d
:102f90000c00e00001003200060007000400be0043
:102fa0000601be004f0678004f05be004f04be006c
:102fb000000006006000b8006011b8000000370093
:102fc0000402500085825800060359008783590087
:102fd000000006000006eb00e00f5200e08f5a00f0
:102fe000e00f5b00e08f5b00000006000180400006
:102ff00090b79f000001eb008fb097000100e00048
:10300000000006000200700090b79f0001804000a1
:1030100080b79f000001eb00ffa897000100e000cf
:10302000000006000200700080b79f000180400091
:103030006faa9700cf20de0001007000f0af9f0064
:1030400004024200250007004f18de000002720053
:1030500000000600e4af9f000804440089844c008f
:103060000a054d008b854d00000006003fb2970019
:10307000cfb297005fb39700efb3970000fe2f0029
:10308000000006003fb09700cfb097005fb19700f7
:10309000efb19700000006000205be000004be006c
:1030a000e00f5000e08f5800e00f5900e08f59000a
:1030b000000006006000b8006011b800080450006d
:1030c000898458000a0559008b8559001c0020008e
:1030d000e00f5200e08f5a00000006000800be001a
:1030e0000a01be0000000600210420009140780083
:1030f0008180fb00c508de0092028000ff3ffc00db
:1031000000ceb3004260b700920288005005200054
:10311000303b8800a00a2000303b880027a6a8008a
:1031200092028000ff3ffc00c508dd0042c0bf00e6
:103130007f4060000140700042e0b70092028800ca
:1031400000000600889fbe000004780070409000d8
:1031500091c5b300814f500032003e00684090009e
:10316000814f50002f003e0058409000e64f500025
:103170002c003e00c840900040c2b30080cf5000f9
:1031800028003e0038409000f24f500025003e00dd
:103190000004e00023003200a840900010c3b300f8
:1031a00080cf50001f003e000104e0001d003200ef
:1031b00027c6bf004500de00e10460000904e0000e
:1031c00001003a00c8ff070023c6bf000080fb00d3
:1031d000c700de000104e0000100320023e6a90080
:1031e000f0cf2f002226b6002326a800180090005a
:1031f00000318800280090000031880038049000d9
:10320000083188000104e0000100320023e6a80034
:10321000100020000904e00003003a0027a6a900de
:10322000010037000000eb004f04be000000060064
:10323000800178000101780023c6bf000080fb00f8
:103240004700de00004278000004e0000700320082
:103250000100e0000200320023e6a900030037006d
:1032600027c6bf000048a300fdff3a00e1c061008f
:10327000c608dd0023c6bf000064a1000140700045
:1032800023e6b7000404e000030032000200e0007f
:103290000100320023e6a800000006000001be0085
:1032a00023c6bf000080fb004700de00004278001c
:1032b0000004e000070032000100e00002003200dc
:1032c00023e6a9000300370027c6bf000048a3007b
:1032d000fdff3a006f4061004200dd0031622000d6
:1032e0009140780032ccb30082c0600080c0700092
:1032f0000100780023e6b7000404e0000300320078
:103300000300e0000100320023e6a80000000600f0
:103310008041780023c6bf000080fb004700de002c
:10332000004178000004e000070032000100e000e6
:103330000200320023e6a9000300370027c6bf00c1
:103340000048a300fdff3a000300780022e6b70022
:103350000204e000030032000100e000010032003e
:1033600023e6a80000000600889fbe008a9fbe00da
:1033700000047800010578007040900091c5b3000a
:10338000814f500059003e0068409000814f50002e
:1033900056003e0058409000e64f500053003e005b
:1033a000c840900040c2b30080cf50004f003e00a4
:1033b00038409000f24f50004c003e000004e00006
:1033c0004a003200a840900010c3b30080cf5000e4
:1033d00046003e000104e0004400320090c9b30002
:1033e000984f100041003e000a00e0000800320043
:1033f00042c0bf000080fb00c505de0091028000d6
:10340000ff3ffc0000ceb3004260b700910288008d
:1034100027c6bf004500de00e10460000904e000ab
:1034200001003a0030ff070027c6bf000080fb0004
:103430004700de00804078000001eb000004e0005f
:103440000400320023c6bf000080fb004701de00fd
:1034500027e6a900f0cf2f002626b6000030200076
:103460002626b70018007800203188001800900048
:103470002031880028009000203188003804900016
:10348000283188000104e0000800320027e6a80087
:103490000200e0000100320023e6a8000904e00079
:1034a0000500320010ff0700030037000904e000a8
:1034b00001003a0027a6a900100020000a00e00041
:1034c0000b00320092028000ff3ffc00c558dd0077
:1034d00042c0bf007f4060000140700042e0b70082
:1034e0009202880010002000010037000000eb006d
:1034f0004f05be004f04be0000000600103a8000d9
:103500000010a00072052000610420002374200038
:103510008149780082497800804978002626ef00aa
:103520002746e20005003d0027c6bf000058a30063
:1035300001003a00ecfe070027e6a90027a6a90033
:103540000000060080007800f2cf2f000001fd008f
:103550002626b6000001fd00003020002626b70018
:103560002031800080087800203180009000980091
:1035700020318000a000980020318000b000980029
:103580000001fd002626b6000001fd0000302000ed
:103590002626b700243180002531800026318000a6
:1035a0002731800061409000874f5000e7ff3a00cc
:1035b0000000060010128800211288000212880004
:1035c000000006009540a90041e2a9008540a9003d
:1035d0000000060095a0a90021e3a90085a0a9008c
:1035e0000000060063198800630262005419880015
:1035f00085198800630363009619880022198800e2
:1036000011198800001988000000d1006140600095
:103610000040400001322000914078000114a100d8
:1036200080c070000100780020e3b70000000600b1
:103630000080fb0000004000013020006080780026
:10364000000006008001eb00020037008171780065
:103650008301e800828f5100fcff3a000000060061
:10366000800178000001780031407800005978002e
:103670000004e000fcff3a000300780000000600b0
:103680000c00fa00889fbe0000047800cfb09700bd
:10369000f0ff2700d0bf9f008004eb0099bf9f0080
:1036a00088bf9f00a8bf9f00200c2000b0bf9f00d4
:1036b0007881570070805700720007000fb897009c
:1036c000094878000fb897000804500008007800f7
:1036d0004f04be000080fa000000060000027800df
:1036e000808f50000a00310082814000808f51009d
:1036f00007003600020240008000eb0043627800c1
:103700008100e800828f500007003200fbff370085
:103710000200e0000400320002814000315a7800cb
:10372000828f5000fdff3a00000006008000780004
:103730003004e000feff3a00010050000000e90004
:10374000000006000000fa00cfb89700688157001b
:10375000a0d122004b0007000080fa000000060004
:10376000889fbe000004be00060037000804e80081
:103770000000fb0089007800f7020700e10f40001d
:1037800004003200184078000004e000f7ff3a001f
:103790000000eb004f04be0000000600881f780008
:1037a000a1d12200eeff070000047800a1d1220081
:1037b000a0002000e8020700080078004f0478000d
:1037c000000006008001eb000200370061f0790084
:1037d0008301e800828f5100fcff3a0000000600e0
:1037e000a1d12200dc02370010417800814f510046
:1037f000040032000000e8000204e000faff3a0092
:103800000000eb0000000600000378008002780052
:10381000020278008001eb00080037000402e90092
:1038200063c07800805a78008301e8000004e0005b
:1038300002003a008000eb0006003700828f510042
:10384000f6ff3a00fbff37000040eb0080f07a0003
:103850008100e800848f5000fbff3a0006007800ea
:103860000000060010417800b141510003003a0009
:103870000000e8000204e000faff3a000300fb0049
:1038800000000600fe874700889fbe008a9fbe009a
:103890008c9fbe008e1f7800f0b79f000107780054
:1038a00082bf9f000000eb00a0b79f009f0237007f
:1038b0008006eb0050c2b30080cf500009003200f8
:1038c0000100fb00ffb09700a3020700e10f4000da
:1038d00096023200afb097008100e800a1b79f00c8
:1038e000920237009e407800d0c2b30080cf5000d3
:1038f0000c00320007003c006d40500080cf5000ab
:103900000a0032006b40400080cf50000e003a00a9
:103910000800370000c3b30080cf50000a003a000f
:10392000060037000d30a000050037000d00a00094
:10393000030037000d10a000010037000d20a0008b
:103940000e07e800e7ff37000d18a3000100320062
:103950000d00a1000d38a300010032000d20a100d0
:103960000100fb0002fd2f0002004000e90f5000a3
:103970000e003e000002eb00c4b79f0082017800f9
:10398000cfb297006a28b9001e01fb000001410078
:1039900003014100c2b79f005e00fb00030040002e
:1039a000e90f50000b003e00f5ff37000006eb006a
:1039b000ccb79f00a0c2b30080cf500005003a00f2
:1039c0000fb89700c000780080bf9f00c1b79f006c
:1039d0000e07e8000001eb00b2b79f00e0c2b300a1
:1039e0009e4f100018003a000de0a0008e00e80085
:1039f00064405000914f100002003200010778002f
:103a00000c0037000fba9700c402780084bf9f00f3
:103a1000b5b79f000e87e8000b0037003fb6970050
:103a20006a60b9000000410003004000b0b79f0089
:103a30000e07e8001e01fb0003fd2f0003004100fc
:103a4000e90f5000f5ff3600be407800e1d79f0037
:103a5000c0c6b30080cf5000220032000f003c00ef
:103a60006940500080cf50007700320004003c00d5
:103a70000104e000310232006b4050000f003700bb
:103a800040c6b30080cf5000930032006540400034
:103a900080cf50008b003a008f00370030c7b30052
:103aa00080cf50001a00320007003c0064405000f4
:103ab00080cf5000110032000040e80080cf50005d
:103ac00080003a000f00370050c7b30080cf50008d
:103ad000800032006340400080cf500079003a00ff
:103ae00009003700000028000d48a30001003a003b
:103af0000001200080867600d3ff37000d60a00013
:103b0000750037000d50a0000d70a0007200370046
:103b10008fb897004100780081bf9f0000047800b3
:103b20000000e00001003a0028ce22008004eb00f3
:103b3000010037008104e800890078000880440013
:103b40001004e000fbff3a003fb197000200e000e4
:103b500003003200890f5100010031008204780017
:103b60000002eb00e4af9f00cfb29700898f5200b4
:103b70000200360009805200e0af9f004368de007b
:103b8000e10660001b003a000d06780009003700ce
:103b9000ffb0970000022000ef010700e10f400096
:103ba000030032002fb097000000e800a0b79f008c
:103bb0000c06e800efa89700810f5600f4ff3a00ca
:103bc0000081eb00e2af9f000a0037008800780018
:103bd0003100fb0001047800ffb09700de01070010
:103be000e10f4000030032002fb297000402e8000a
:103bf000a4b79f000900e90080047800e10f4000ad
:103c0000f2ff3a000006eb000d00e0000a003a0067
:103c1000c6013700ffb0970000022000ce01070068
:103c2000e10f400003003200afb297008502e800c8
:103c3000a5b79f000c06e8006fa89700800f5600fc
:103c4000f4ff3a00b90137008fb8970041007800bf
:103c500081bf9f00cf80de000101780082017800e3
:103c60000205be000004be000203be000002be004a
:103c70004822de00482edd0004027600e4d79f00d3
:103c80000d48a3000a0032000404e00008003200de
:103c9000e14f42000600320071fd2f000180470015
:103ca00004487800184098002900200002003700de
:103cb000f0d79f001900200072fd2f0002844700fa
:103cc000a1ff370064fd2f00048447001900200085
:103cd0009dff37000d0cb3000d007800000cb20002
:103ce00028003a000d00e00005003d008fba970063
:103cf0004505be004504be0085bf9f001400370087
:103d00000d48a3000b0032000fbe97004c00be0010
:103d10008cbf9f004f89de00cf91de000002be0005
:103d200002037800820378000605be000404be008a
:103d3000070037008fb897004100780081bf9f00cf
:103d400000047800cfc4de00090578008a057800f9
:103d5000e00f5400e08f5c00e00f5d00e08f5d003d
:103d60001f003d003d00b3006000b8006011b800c6
:103d700008045000898458000a0559008b855900b1
:103d8000170037000d00e00005003d000fb9970057
:103d90004205be004204be0082bf9f0010003700f3
:103da0000d48a300070032000fba97004400be0080
:103db00084bf9f006011b8000205be000004be0071
:103dc000070037008fba97004500780085bf9f0035
:103dd00000047800090020000a0020000b002000e9
:103de0003fb697000c00e00007003a00e00f5400d7
:103df000e08f5c00e00f5d00e08f5d0002003a00a4
:103e000010002000b0b79f008d007800010cb200b8
:103e1000e1b79f0000042000808f50003000320086
:103e200003003c000100e0000800320040003700c1
:103e3000000820006fb19700800f5100140032007d
:103e4000000c2000800f510039003a0014c0b3006c
:103e500005ad22000b0037000400fb004300dd002d
:103e6000050040005001be004000be000040e100df
:103e700001c8e10002d0e10003d8e1002b003900c5
:103e80000442e800f44f5200f3ff3a0027003700e5
:103e900000012000010020006011b80014c0b30030
:103ea0000040e10001c8e10002d0e10003d8e100d8
:103eb0001e003900450020000000d0008180d200a3
:103ec0000281d2008381d2008502e900faff3a0024
:103ed0000442e800f04f5200f1ff3a0013003700af
:103ee00080002000010020006011b80014c0b30061
:103ef0000040e10001c8e10002d0e10003d8e10088
:103f00000a0039003c0020000000d0008180d2006f
:103f10000281d2008381d2000c06e900faff3a0048
:103f20000442e800f54f5200f1ff3a00e4d79f0049
:103f3000efd097000100fb003fb19700820f5000c7
:103f400002003d00e2d79f00040037003fb2970017
:103f5000800f520001003d00b0b79f00cfb2970024
:103f60000500e000040032006380660002003200b9
:103f70008502e900c5b79f000de8a3000b003200e1
:103f80004fb697003fb09700800f560003003c00eb
:103f90008000eb00c1b79f00040037004fb19700cd
:103fa0003fb2970004015100c2b79f00efd29700c3
:103fb0000500fb000006eb00dcaf9f00cfb09700d0
:103fc000808f50000200340000805000d0af9f006e
:103fd0000d28a30037003200e18066000d18a30011
:103fe0000c003200d00220000100e00001003a0085
:103ff0000080e900ffb09700d7000700e10f400004
:104000000e0032002fb197000201e800a2b79f0016
:104010000a0037000100e00008003200ffb09700fe
:1040200000022000cc000700e10f40000300320036
:104030002fb297000402e800a4b79f00dfaa970000
:104040000500e0000f0032000006eb00ffb0970013
:1040500000032000c0000700e10f40000300320011
:104060002fb097000000e800a0b79f000c06e80002
:10407000dfa89700810f5600f4ff3a000001eb0023
:10408000d2af9f003fb29700c320dd0080ac22007a
:104090008080400091b79f004220dd006400500006
:1040a00080b79f006320b900f0af9f006306500007
:1040b00084003700dfaa97000500e00011003200fd
:1040c000688066000f003a0000067800ffb0970095
:1040d00000022000a0000700e10f400003003200b2
:1040e0002fb097000000e800a0b79f000c06e80082
:1040f000dfa89700810f5600f4ff3a000001eb00a3
:10410000d2af9f00e18066000d18a3000c003200c2
:10411000d00220000100e00001003a000080e90028
:10412000ffb097008c000700e10f4000d5ff320080
:104130002fb297000402e800a4b79f00d1ff370018
:104140000100e000cfff3200ffb097000002200026
:1041500081000700e10f4000caff3200afb29700b4
:104160008502e800a5b79f00c6ff370000042000c5
:10417000efb09700808f50003100320003003c0008
:104180000100e000080032003e0037000008200077
:104190006fb19700800f510011003200000c200019
:1041a000800f510037003a001fb097003002be0068
:1041b0002003be000800be000a01be0039fb070054
:1041c000a4002000050020006033b8003cfb07007d
:1041d00004c3b30004424000e4d79f002900370025
:1041e00095ce2200d5b79f000d58a30002003a00db
:1041f000a0cf2200d0b79f001400200005002000af
:104200006033b8008fb097008100e90005003300eb
:104210000402d0008582d2000683d2008783d200b8
:10422000f9ff37000800be000a01be001dfb0700b1
:104230006f0060005fb197006240780010003700a7
:1042400014002000050020006033b8000c00780046
:104250000000e900050033000402d0008582d2008e
:104260000683d2008783d200f9ff37000800be0022
:104270000a01be000bfb0700674060000043b0006e
:10428000e0d79f00efd097000100fb00ffb0970040
:1042900031000700e10f4000030032002fb197000a
:1042a0000201e800a2b79f001fb297006802520007
:1042b00094b79f008fb29700e482520085b79f00a9
:1042c00063065600d0ff2f003fb197000090b90061
:1042d0007faa97000000420063005000800f560044
:1042e000a2ff3a000d38a30010003200dfaa9700a9
:1042f0000500e0000d0034000006eb00ffb0970061
:104300000002200014000700e10f4000030032000b
:104310002fb097000000e800a0b79f000c06e8004f
:10432000dfa89700810f5600f4ff3a00be407800e6
:10433000e1d79f000104e0005dfd3a002fb0970037
:104340004f0778004f06be004f05be004f04be0069
:10435000ef01b10000000600889fbe000001780058
:1043600001047800b10090000118a3003d00320064
:104370000198a30003003a00180090000000e0003c
:1043800038003a000190a0003104980082047800bf
:10439000f90fb200180090000000e00002003a009f
:1043a00028009000000c7800ea8f540006003a00c4
:1043b000380090000078a30003003a0088007800dd
:1043c000d0002000e4ff0700980090005800900003
:1043d000808f50000b0032000100e80010049800ac
:1043e0001800780009587800000c780011c0b3005c
:1043f00040de220001487800ea8f540006003200b7
:10440000190037008800780009407800190007007b
:104410008004780014003700380090000088a30062
:104420001100320018019000a80090004800900090
:10443000d5f9070098009000810f50000400320069
:10444000380090000003b300300498008084eb0033
:104450000000eb001004980028009000000c780089
:10446000010037008084eb00090078004f04be0093
:10447000000006000200fa00889fbe00a0ff9f0017
:1044800001047800b1009000810478000904b200b2
:10449000020032000000fb00360037000118a300c4
:1044a00005003a000103b300310498001904980094
:1044b0000080eb002f003700580090000000e00063
:1044c00006003a004800900012002000e6805700e5
:1044d000adf9070019049800240037002800900067
:1044e0000000e00008003a0000de220020049800ee
:1044f000000c780020002000500498001004980060
:104500000130a0003104980018019000a80090002c
:10451000480090009cf9070028009000000c7800eb
:104520000080eb001004980018007800aff89700a6
:1045300001587800000c78002ff89700ea4f5000df
:104540000a003a00380090000088a30007003200fb
:1045500018019000a8009000480090008af9070018
:1045600019049800a8009000010c7800aff897009b
:104570000100fb004f04be000080fa0000000600ae
:020000040000fa
:020000040005f5
:0457f8000f1000008e
:020000040000fa
:020000040005f5
:0457fc004a3f000020
:020000040000fa
:10280000101504000000000078c40400000000005f
:1028100078c404000000000078c404000000000038
:1028200078c404000000000078c404000000000028
:1028300078c404000000000078c404000000000018
:1028400078c40400000000001ec504000000000061
:1028500078c404000000000078c4040000000000f8
:1028600078c404000000000078c4040000000000e8
:1028700078c404000000000078c4040000000000d8
:1028800078c404000000000078c4040000000000c8
:1028900078c404000000000078c4040000000000b8
:1028a00078c404000000000078c4040000000000a8
:1028b0003cc5040000000000dac404000000000071
:1028c00078c404000000000078c404000000000088
:1028d00078c404000000000078c404000000000078
:1028e00078c404000000000078c404000000000068
:1028f000fcc404000000000078c4040000000000d4
:1029000078c404000000000078c404000000000047
:1029100078c404000000000078c404000000000037
:1029200078c404000000000078c404000000000027
:1029300078c404000000000078c404000000000017
:1029400078c404000000000078c404000000000007
:1029500078c404000000000078c4040000000000f7
:1029600078c404000000000078c4040000000000e7
:1029700078c404000000000078c4040000000000d7
:102980009cc404000000000078c4040000000000a3
:1029900078c404000000000078c4040000000000b7
:1029a00078c404000000000078c4040000000000a7
:1029b00078c404000000000078c404000000000097
:1029c00078c404000000000078c404000000000087
:1029d00078c40400000000002ab4040000000000d5
:1029e00078c404000000000078c404000000000067
:1029f00078c404000000000078c404000000000057
:102a000078c404000000000078c404000000000046
:102a100078c404000000000078c404000000000036
:020000040000fa
:1000080004140000081400000c1400001014000070
:10001800141400000c1500000c1500000c1500004d
:10002800181400001c140000201400002414000000
:100038000c150000281400002c14000030140000d7
:1000480034140000381400003c1400004014000070
:1000580044140000481400000c1500000c150000a2
:100068004c140000501400005414000058140000f0
:100078005c1400000c1500006014000064140000fb
:100088000c150000681400006c14000070140000c7
:1000980074140000781400007c1400008014000020
:1000a80084140000881400000c1500000c150000d2
:1000b8000c1500008c14000090140000941400002b
:1000c800981400009c140000a0140000a414000060
:1000d800a8140000ac1400000c1500000c1500005a
:1000e8000c150000b0140000b41400000c1500003a
:1000f8000c150000b8140000bc1400000c1500001a
:100108000c1500000c1500000c1500000c15000063
:100118000c1500000c150000c01400000c150000a0
:100128000c150000c4140000c8140000cc14000012
:100138000c1500000c1500000c1500000c15000033
:10014800d01400000c1500000c1500000c15000060
:100158000c150000d41400000c1500000c1500004c
:100168000c150000d8140000dc140000e014000096
:10017800e4140000e8140000ec140000f01400007f
:10018800f4140000f8140000fc140000001500002e
:1001980004150000081500000c1500000c150000df
:1001a8000c1500000c1500000c1500000c150000c3
:1001b8000c1500000c1500000c1500000c150000b3
:1001c8000c1500000c1500000c1500000c150000a3
:1001d8000c1500000c1500000c1500000c15000093
:1001e8000c1500000c1500000c1500000c15000083
:0801f8000c1500000c150000bd
:020000040000fa
:1045800043570000412d0000444100005441000009
:104590002e43000057410000002000004d4e000057
:1045a0005400000000200000564f00004c000000a6
:1045b000204600004d540000002000004d42000045
:1045c0005200000077690000706500002f000000b5
:1045d000706c0000616900006e2d00000045000055
:1045e000525200004f5200003a200000507200006a
:1045f0006f6200006c6500006d20000064750000b3
:10460000726900006e6700002025000073660000dc
:104610006f7200006d6100007420000028300000ff
:104620007825000030320000782e0000202700009e
:104630007374000061740000757300002033000083
:1046400027200000666f0000722000004e4100002d
:104650004e44000020680000656100006c7400009a
:10466000682900002c20000066610000696c0000d1
:10467000656400003a2500007325000073250000e2
:1046800073250000730d00000a000000464f000073
:10469000524d0000415400003a200000436f0000da
:1046a0006d7000006c650000746500002e0d000048
:1046b000004300004f4d00004d490000540d000024
:1046c00000450000525200004f5200003a20000006
:1046d000507200006f6200006c6500006d200000e9
:1046e00064750000726900006e67000020630000be
:1046f0006f6d00006d690000740000000000000094
:104700000000000000000000686500006c70000000
:1047100000480000454c0000503a000020680000ae
:10472000656c0000707c000065630000686f00002d
:104730007c72000065730000657400000d000000cd
:1047400065630000686f00000045000043480000fa
:104750004f3d0000256400000d0a000000690000c4
:1047600064000000494400003d4300005741000040
:104770002c250000782c0000257500002c25000059
:10478000752c0000256c0000750d00000a0000006b
:10479000736100006d7000006c6500000024000073
:1047a00042410000545400003d0000002575000007
:1047b0002c250000752c00006d5600002c250000f3
:1047c000642c0000256400000d0a00000024000095
:1047d0004c440000523d000000250000752c0000f4
:1047e000257500000d0a000000240000544500005b
:1047f0004d5000003d000000257500002c250000f4
:10480000642c0000302e000031640000430d0000d5
:104810000a00000024540000494d0000453d0000fe
:10482000257300002e25000030330000640d0000c9
:104830000a0000002441000043430000454c0000f2
:104840003d000000256400002c250000642c0000c1
:10485000256400000d0a00000024000047590000f4
:10486000524f00003d0d0000007300007461000015
:10487000747500007300000054450000535400009c
:104880003d25000030340000780d00000a000000d3
:10489000424100005454000048450000414c0000d3
:1048a000544800003d250000750d00000a0000007e
:1048b000465400004c3d0000257300000d0a000026
:1048c0000043000048450000434b000053550000e2
:1048d0004d3d000025300000347800000d0a000036
:1048e00000520000455300005441000052540000a3
:1048f0003d250000750d00000a0000004e4100003b
:104900004e4400003d25000030340000780d0000ca
:104910000a0000004e4100004e44000049440000df
:104920003d25000030320000783a000025300000bc
:10493000327800003a25000030320000783a00005a
:1049400025300000327800003a25000030320000a7
:10495000783a000025300000327800002c25000055
:10496000640d00000a00000074650000737400000c
:104970005f72000065730000756c000074730000c6
:104980000052000065730000756c00007473000035
:10499000206e00006f740000206600006f7500003c
:1049a0006e6400000d000000570000005769000011
:1049b00070650000207300006368000065640000fb
:1049c000756c0000656400000d00000052000000de
:1049d000526500002d740000657300007420000013
:1049e0007363000068650000647500006c6500007a
:1049f000640d000000740000696d00006500000097
:104a000045520000524f0000523a0000204c000076
:104a10006f6300006b650000642e00000d00000055
:104a200024540000494d0000453d0000257300005e
:104a30000d0a000000450000525200004f520000d5
:104a40003a200000507200006f6200006c650000a8
:104a50006d2000007061000072730000696e00003c
:104a600067200000746900006d6500002e0d0000d5
:104a7000007400007a6f00006e65000000540000b2
:104a80005a4f00004e4500003d0d0000005400004c
:104a90005a4f00004e4500003d250000642c0000e8
:104aa0002563000025300000326400003a25000034
:104ab00030320000750d00000a0000006869000037
:104ac00062650000726e0000617400006500000005
:104ad0004849000042450000524e00004154000089
:104ae000453d0000257300000d0a00000073000022
:104af000746f000070000000535400004f5000001d
:104b00003d250000730d00000a0000006c610000ec
:104b10007374000063680000616e00006765000048
:104b2000640000004c410000535400004348000062
:104b3000414e000047450000443d00002573000041
:104b40000d0a0000006d0000617800007361000034
:104b50006d7000006c650000730000004d410000a6
:104b600058530000414d0000504c000045530000d8
:104b70003d2500006c7500000d0a00000064000077
:104b800065620000756700000044000045420000b7
:104b9000554700003d250000640d00000a0000009c
:104ba0007365000073730000696f00006e00000001
:104bb0005345000053530000494f00004e3d000094
:104bc000256c0000750d00000a00000072610000f5
:104bd000746500000052000041540000453d000093
:104be000257500002c250000750d00000a0000004e
:104bf000636c00006561000072000000636c0000df
:104c000065610000722000006461000074610000b2
:104c1000006300006c65000061720000206100000c
:104c20006c6c0000004300004c4500004152000045
:104c30003a20000055730000652000002763000043
:104c40006c65000061720000206400006174000067
:104c500061270000206f0000722000002763000021
:104c60006c65000061720000206100006c6c000047
:104c7000272e00000d000000434c000045410000bd
:104c8000523a000020440000656c00006179000089
:104c90006564000020610000637400006976000014
:104ca00061740000696f00006e2e00000d000000ae
:104cb000434c000045410000520d0000006300001d
:104cc0006f6d00006d69000074000000434f00002c
:104cd0004d4d0000495400003a200000446500009a
:104ce0006c610000796500006420000061630000d1
:104cf0007469000076610000746900006f6e000046
:104d00002e0d00000064000065760000696300005d
:104d1000650000004445000056490000434500007e
:104d20003d250000752c0000257500000d0a0000cf
:104d3000006100006e6e00006f740000617400007e
:104d400065000000414e00004e4f0000544100003d
:104d50005445000025300000326400003d00000092
:104d60000d00000045520000524f0000523a000072
:104d7000204900006e760000616c0000696400004c
:104d8000206100006e6e00006f740000617400000e
:104d9000696f00006e20000069640000202500009b
:104da000640d00000a00000045520000524f000050
:104db000523a000020550000736100006765000052
:104dc0002069000073200000414e00004e4f00009b
:104dd0005441000054450000232300003d0d000015
:104de0000072000065610000646c00000045000076
:104df000525200004f5200003a2000005072000052
:104e00006f6200006c6500006d200000726500009c
:104e100061640000696e0000672000006c6f000094
:104e200067690000636100006c200000736500008a
:104e3000637400006f720000202500006c75000094
:104e40000d0a0000002c000049440000454e0000ff
:104e500054490000434100004c0000002c53000066
:104e600045510000554500004e54000049410000e6
:104e70004c00000045520000524f00005225000037
:104e8000730d00000a00000052450000414400007c
:104e90004c3d0000256c0000750d00000a0000006c
:104ea0004f4b0000257300000d0a00000052000067
:104eb00045410000443a00002053000070650000a6
:104ec0006369000066790000206c00006f670000d5
:104ed00069630000616c00002073000065630000de
:104ee000746f0000720d000000770000726900000e
:104ef000746500006c00000045520000524f000035
:104f0000523a000020500000726f0000626c0000f6
:104f1000656d000020770000726900007469000070
:104f20006e670000206c00006f670000696300007e
:104f3000616c00002073000065630000746f000066
:104f400072200000256c0000750d00000a000000b2
:104f50005752000049540000454c00003d25000018
:104f60006c7500000d0a0000005700005249000057
:104f7000544500003a2000005370000065630000b3
:104f800069660000792000006c6f0000676900000e
:104f9000636100006c200000736500006374000012
:104fa0006f7200000d000000726500006164000077
:104fb000726100007700000045520000524f00006f
:104fc000523a000020500000726f0000626c000036
:104fd000656d0000207200006561000064690000da
:104fe0006e6700002070000068790000736900009f
:104ff000636100006c2000007365000063740000b2
:105000006f720000202500006c7500000d0a000082
:10501000005200004541000044520000415700008a
:105020003d2500006c7500000d0a000000520000d4
:105030004541000044520000415700003a20000062
:10504000537000006563000069660000792000006d
:105050007261000077200000736500006374000037
:105060006f7200000d000000464900004c45000032
:10507000424c00004f4300004b0000004649000036
:105080004c450000424c00004f4300004b3d0000e7
:10509000257500000d0a0000004500005252000076
:1050a0004f5200003a200000507200006f62000072
:1050b0006c6500006d200000666900006e640000f1
:1050c000696e000067200000746800006520000021
:1050d000706800007973000069630000616c000073
:1050e000206200006c6f0000636b0000206600000f
:1050f0006f7200002074000068650000206c0000e2
:105100006f67000069630000616c0000207300009d
:1051100065630000746f0000722e00000d00000037
:1051200045520000524f0000523a0000205000004b
:10513000726f0000626c0000656d00002066000068
:10514000696e0000646900006e6700002074000052
:1051500068650000206c00006f6700006963000054
:10516000616c00002073000065630000746f000034
:1051700072200000666f000072200000746800005a
:1051800065200000666900006c650000206f00006b
:105190006666000073650000742e00000d000000bc
:1051a000464900004c450000424c00004f430000bf
:1051b0004b3a0000204400006174000061200000b0
:1051c000666900006c650000206f000066660000e4
:1051d00073650000742000006e6f000074200000f2
:1051e0007370000065630000696600006965000077
:1051f000642e00000d000000424100004442000007
:105200004c4f0000434b00000042000041440000ae
:10521000424c00004f4300004b3d0000257500004c
:105220002c3100000d0a0000004200004144000043
:10523000424c00004f4300004b3d0000257500002c
:105240000d0a000000450000525200004f520000bd
:105250003a200000507200006f6200006c65000090
:105260006d2000006d610000726b0000696e00002f
:1052700067200000626c00006f6300006b2000007c
:105280006173000020620000616400002e0d0000c8
:105290000042000041440000424c00004f43000027
:1052a0004b3a00002050000068790000736900004c
:1052b000636100006c200000626c00006f630000fe
:1052c0006b2000006e6f00007420000073700000ff
:1052d000656300006966000069650000642e0000d7
:1052e0000d00000077720000697400006572000014
:1052f0006177000000450000525200004f5200004c
:105300003a200000507200006f6200006c650000df
:105310006d2000007772000069740000696e000063
:1053200067200000726100007720000073650000b4
:10533000637400006f720000202500006c7500008f
:105340000d0a0000005700005249000054450000bb
:1053500052410000573d0000256c0000750d000013
:105360000a0000004f4b00002c2000006275000076
:10537000742000007468000065200000465400009e
:105380004c20000073740000617400006520000070
:1053900069730000207500006e73000070650000e6
:1053a0006369000066690000656400002061000018
:1053b0006e64000020740000686500002064000036
:1053c000697300006b200000776900006c6c0000be
:1053d00020700000726f000062610000626c0000cb
:1053e000792000006e650000656400002061000007
:1053f000204600004f5200004d410000540d0000b7
:10540000005700005249000054450000524100007e
:10541000573a0000205300007065000063690000e7
:1054200066790000207200006177000020730000a0
:1054300065630000746f0000722000005b5600007e
:105440004552000059200000444100004e47000032
:10545000455200004f550000532100005d0d000033
:105460000065000072610000736500007261000059
:105470007700000045520000524f0000523a0000f1
:1054800020500000726f0000626c0000656d00002b
:105490002065000072610000736900006e67000003
:1054a00020700000687900007369000063610000eb
:1054b0006c200000626c00006f6300006b20000035
:1054c00025750000206600006f7200002072000049
:1054d000617700002073000065630000746f0000b6
:1054e00072200000256c0000750d00000a0000000d
:1054f0004552000041530000453d0000256c00006e
:10550000752c0000257500000d0a00000045000004
:1055100052410000534500003a2000005370000043
:1055200065630000696600007920000061200000ca
:105530007261000077200000736500006374000052
:105540006f720000206900006e2000007468000087
:1055500065200000626c00006f6300006b2000009b
:10556000746f000020650000726100007365000028
:10557000205b000056450000525900002044000006
:10558000414e000047450000524f000055530000b7
:10559000215d00000d00000073740000616e0000ca
:1055a000646200007900000053540000414e000086
:1055b00044420000593d0000300d0000007300001f
:1055c00074720000656100006d00000064610000fd
:1055d000746100006d6f000064650000004300000e
:1055e0005356000000430000574100002f70000098
:1055f000616300006b650000640000004357000019
:10560000412f0000756e000070610000636b0000a8
:1056100065640000004e00006f6e00006500000031
:10562000736900006e6700006c6500002d66000065
:10563000696c00006500000061750000746f000077
:105640002d6e0000756d00006265000072000000a4
:1056500044410000544100004d4f0000444500000b
:105660003d250000752c0000257300002c2500004e
:10567000730d00000a0000006d6f0000756e0000e1
:10568000740000004d4f0000554e0000543d0000d6
:10569000256400000d0a0000006c00006564000035
:1056a000004c0000454400003d250000640d000052
:1056b0000a000000666f0000726d00006174000057
:1056c000004600004f5200004d410000543a0000d7
:1056d0002044000065730000747200006f790000c0
:1056e0002e0d0000004600004f5200004d4100000a
:1056f000543a0000204400006573000074720000fa
:105700006f7900002c200000696e0000636c0000bf
:1057100075640000696e000067200000757300006a
:10572000657200002d6d0000617200006b65000065
:10573000642000006261000064200000626c0000d0
:105740006f6300006b7300002e0d00000046000028
:105750004f5200004d410000543a00002044000028
:10576000656c000061790000656400002061000044
:10577000637400006976000061740000696f0000c6
:105780006e2e00000d00000045520000524f000038
:10579000523a0000204d0000757300007420000094
:1057a00073700000656300006966000079200000e6
:1057b000274600004f5200004d41000054200000d9
:1057c00051270000206600006f7200002071000069
:1057d00075690000636b0000206f000072200000fc
:1057e000274600004f5200004d41000054200000a9
:1057f00057270000206600006f720000207700002d
:1058000069700000652c0000202b00002743000079
:1058100027200000666f000072200000434f000048
:105820004d4d0000495400002e0d0000006c00009a
:105830006f670000666900006c6500000061000091
:10584000004c00004f4700002e5400005854000048
:1058500000250000732e0000253000003364000096
:105860002c250000730d00000a00000045520000c6
:10587000524f0000523a000020430000616e0000c9
:105880006e6f00007420000077680000696c0000f3
:10589000652000006174000074610000636800000e
:1058a00065640000206100006e640000206d00004f
:1058b0006f7500006e740000656400002e0d00001e
:1058c000006c00006f670000004c00004f470000b4
:1058d0002c250000642c00003078000025300000ea
:1058e000347800002c250000732c00002573000084
:1058f0000d0a0000004f00004b0d0000006c00007e
:105900006f6300006b0000004c4f0000434b000031
:105910003d250000640d00000a000000696c0000d5
:105920006f6300006b000000494c00004f43000013
:105930004b3d0000300d0000004900004c4f0000be
:10594000434b00003d3100000d000000756e00006b
:105950006c6f0000636b0000004c00004f430000c0
:105960004b3d0000300d0000006500006363000047
:1059700000450000434300003d250000640d000089
:105980000a00000066720000616300007469000094
:105990006f6e0000616c0000004600005241000084
:1059a00043540000494f00004e4100004c3d0000b0
:1059b000256400000d0a00000072000065730000fd
:1059c000657400000052000045530000455400007b
:1059d0000d000000657800006974000000490000b7
:1059e0004e4600004f3a0000205900006f7500003d
:1059f000276c00006c2000006861000076650000e4
:105a0000207400006f200000636c00006f730000c2
:105a100065200000746800006520000074650000c7
:105a2000726d0000696e0000616c0000207700005c
:105a3000696e0000646f000077200000796f00003d
:105a400075720000736500006c660000210d000097
:105a5000004100005400000045520000524f000079
:105a6000523a0000205500006e6b00006e6f00007f
:105a7000776e0000206300006f6d00006d61000014
:105a80006e6400003a200000257300000d0a00003b
:105a9000007200000000000055550000565500003f
:105aa000595500005a550000655500006655000024
:105ab000695500006a550000955500009655000094
:105ac000995500009a550000a5550000a655000004
:105ad000a9550000aa550000555600005656000072
:105ae000595600005a5600006556000066560000e0
:105af000695600006a560000955600009656000050
:105b0000995600009a560000a5560000a6560000bf
:105b1000a9560000aa560000555900005659000029
:105b2000595900005a590000655900006659000093
:105b3000695900006a590000955900009659000003
:105b4000995900009a590000a5590000a659000073
:105b5000a9590000aa590000555a0000565a0000e1
:105b6000595a00005a5a0000655a0000665a00004f
:105b7000695a00006a5a0000955a0000965a0000bf
:105b8000995a00009a5a0000a55a0000a65a00002f
:105b9000a95a0000aa5a0000556500005665000089
:105ba000596500005a6500006565000066650000e3
:105bb000696500006a650000956500009665000053
:105bc000996500009a650000a5650000a6650000c3
:105bd000a9650000aa650000556600005666000031
:105be000596600005a66000065660000666600009f
:105bf000696600006a66000095660000966600000f
:105c0000996600009a660000a5660000a66600007e
:105c1000a9660000aa6600005569000056690000e8
:105c2000596900005a690000656900006669000052
:105c3000696900006a6900009569000096690000c2
:105c4000996900009a690000a5690000a669000032
:105c5000a9690000aa690000556a0000566a0000a0
:105c6000596a00005a6a0000656a0000666a00000e
:105c7000696a00006a6a0000956a0000966a00007e
:105c8000996a00009a6a0000a56a0000a66a0000ee
:105c9000a96a0000aa6a0000559500005695000008
:105ca000599500005a950000659500006695000022
:105cb000699500006a950000959500009695000092
:105cc000999500009a950000a5950000a695000002
:105cd000a9950000aa950000559600005696000070
:105ce000599600005a9600006596000066960000de
:105cf000699600006a96000095960000969600004e
:105d0000999600009a960000a5960000a6960000bd
:105d1000a9960000aa960000559900005699000027
:105d2000599900005a990000659900006699000091
:105d3000699900006a990000959900009699000001
:105d4000999900009a990000a5990000a699000071
:105d5000a9990000aa990000559a0000569a0000df
:105d6000599a00005a9a0000659a0000669a00004d
:105d7000699a00006a9a0000959a0000969a0000bd
:105d8000999a00009a9a0000a59a0000a69a00002d
:105d9000a99a0000aa9a000055a5000056a5000087
:105da00059a500005aa5000065a5000066a50000e1
:105db00069a500006aa5000095a5000096a5000051
:105dc00099a500009aa50000a5a50000a6a50000c1
:105dd000a9a50000aaa5000055a6000056a600002f
:105de00059a600005aa6000065a6000066a600009d
:105df00069a600006aa6000095a6000096a600000d
:105e000099a600009aa60000a5a60000a6a600007c
:105e1000a9a60000aaa6000055a9000056a90000e6
:105e200059a900005aa9000065a9000066a9000050
:105e300069a900006aa9000095a9000096a90000c0
:105e400099a900009aa90000a5a90000a6a9000030
:105e5000a9a90000aaa9000055aa000056aa00009e
:105e600059aa00005aaa000065aa000066aa00000c
:105e700069aa00006aaa000095aa000096aa00007c
:105e800099aa00009aaa0000a5aa0000a6aa0000ec
:105e9000a9aa0000aaaa000000550000590c0000a1
:105ea000653000003c690000693c0000306500007e
:105eb0000c5900005500000095c00000cc9900006e
:105ec000f0a50000a9fc0000fca90000a5f000005e
:105ed00099cc0000c095000099cc0000c09500004e
:105ee000fca90000a5f00000f0a50000a9fc00003e
:105ef00095c00000cc9900000c590000550000002e
:105f0000693c000030650000653000003c6900001d
:105f100000550000590c0000a5f00000fca900008d
:105f2000c095000099cc0000cc99000095c00000fd
:105f3000a9fc0000f0a5000030650000693c0000ed
:105f4000550000000c590000590c000000550000dd
:105f50003c690000653000003c69000065300000cd
:105f6000590c000000550000550000000c590000bd
:105f700030650000693c0000a9fc0000f0a50000ad
:105f8000cc99000095c00000c095000099cc00009d
:105f9000a5f00000fca90000a9fc0000f0a500008d
:105fa000cc99000095c00000c095000099cc00007d
:105fb000a5f00000fca900003c690000653000006d
:105fc000590c000000550000550000000c5900005d
:105fd00030650000693c000030650000693c00004d
:105fe000550000000c590000590c0000005500003d
:105ff0003c69000065300000a5f00000fca900002d
:10600000c095000099cc0000cc99000095c000001c
:10601000a9fc0000f0a500000c590000550000008c
:10602000693c000030650000653000003c690000fc
:1060300000550000590c000099cc0000c0950000ec
:10604000fca90000a5f00000f0a50000a9fc0000dc
:1060500095c00000cc99000095c00000cc990000cc
:10606000f0a50000a9fc0000fca90000a5f00000bc
:1060700099cc0000c095000000550000590c0000ac
:10608000653000003c690000693c0000306500009c
:106090000c59000055000000000100000102000042
:1060a00001020000020300000102000002030000e0
:1060b00002030000030400000000000000000000d4
:1060c000000000000c530000454c0000462000007a
:1060d0005445000053540000204600004f52000079
:1060e0004d410000543a0000203100002e300000e5
:1060f0000d000000485700003a2000002530000045
:10610000315800002e25000030310000582c0000ce
:1061100020460000573a000020250000750d0000c1
:106120000a0000004241000054540000203d0000dd
:1061300020250000752000006d5600000d0a0000ab
:10614000004c00004947000048540000203d00007a
:1061500020250000750d00000a00000054450000d5
:106160004d500000455200004154000055520000bf
:10617000452000003d200000256400002e25000081
:106180007520000025630000430d00000a00000098
:1061900052540000432000004652000045510000c8
:1061a000203d000020250000754800007a0d000009
:1061b0000a00000052450000442000004c45000049
:1061c00044200000534300004f52000045200000cf
:1061d0003d200000257500000d0a0000004700006a
:1061e00052450000454e0000204c00004544000090
:1061f00020530000434f000052450000203d0000a6
:1062000020250000750d00000a000000424c00002f
:1062100055450000204c000045440000205300007c
:10622000434f000052450000203d000020250000a3
:10623000750d00000a00000045520000524f00009a
:10624000523a0000204e00004f2000004e41000056
:106250004e4400000d0000004e4100004e4400007e
:1062600020490000443a00002025000030320000a0
:10627000583a000025300000325800003a2500004e
:1062800030320000583a000025300000325800003b
:106290003a25000030320000580d00000a000000ce
:1062a000415800003325000063250000635f0000b3
:1062b0002530000035750000004600004f520000f8
:1062c0004d4100005420000046410000494c0000b0
:1062d000454400000d0a00000d000000464f00007c
:1062e000524d000041540000204f00004b0d0000b3
:1062f000004c00004f4700002054000045530000b0
:10630000542000005343000048450000445500005d
:106310004c450000440d0000004c00004f570000a9
:106320002042000041540000542000005445000069
:1063300053540000204e00004f5400002053000032
:106340004348000045440000554c0000454400000f
:106350000d000000464900004c450000205300009d
:1063600059530000544500004d200000464f0000e6
:10637000554e0000442000004f4b00000d0000006f
:10638000465400004c2000003d2000002573000012
:106390000d0a000000450000525200004f5200005c
:1063a0003a2000004e4f000020410000434300000f
:1063b000454c00000d000000414300004345000033
:1063c0004c2000004c41000053540000203d0000d0
:1063d00020250000642c000020250000642c000013
:1063e00020250000640d00000a0000004143000069
:1063f000434500004c2000004d41000058200000a3
:106400003d200000256400002c20000025640000d1
:106410002c200000256400000d0a0000004100004f
:1064200043430000454c0000204d0000494e000051
:10643000203d000020250000642c000020250000e5
:10644000642c000020250000640d00000a000000fc
:1064500041430000434500004c2000004d45000032
:10646000414e0000203d000020250000642c00006b
:1064700020250000642c000020250000640d000091
:106480000a00000041430000434500004c2000008a
:1064900044450000562000003d2000002575000006
:1064a0002c200000257500002c2000002575000020
:1064b0000d0a000000770000007400006573000002
:1064c000742e000074780000740000003230000068
:1064d000303000002f3100002f3100002c30000040
:1064e000303a0000303000003a3000003000000048
:1064f00043570000412d000044410000544100007a
:106500002e43000057410000000000000010000072
:106510001112000013140000151600004041000085
:106520004243000044450000535400004f50000017
:106530005f4e00004f4e0000450000005354000025
:106540004f5000005f4900004e54000045520000cb
:10655000564100004c000000535400004f50000012
:106560005f530000414d0000504c0000455f0000ab
:106570004c4900004d490000540000004e4f0000ff
:10658000545f000053540000415200005445000085
:10659000445f00004e4f00005f4900004e54000071
:1065a00045520000564100004c0000004e4f0000d4
:1065b000545f000053540000415200005445000055
:1065c000445f00004146000054450000525f000057
:1065d000494e00005445000052560000414c000056
:1065e000004e00004f5400005f5300005441000073
:1065f00052540000454400005f530000414d00002c
:10660000504c0000455f00004c4900004d4900001f
:10661000540000004e4f0000545f0000535400002f
:106620004152000054450000445f00005741000003
:10663000495400005f550000534200000053000021
:10664000544f0000505f000055530000420000000e
:106650004e4f0000545f00005354000041520000b0
:1066600054450000445f0000494e000049540000ba
:10667000494100004c5f00004241000054540000ba
:1066800045520000590000004e4f0000545f0000ca
:10669000535400004152000054450000445f000084
:1066a00057410000495400005f420000415400007f
:1066b000544500005259000000530000544f0000a0
:1066c000505f000042410000545400004552000059
:1066d000590000004e4f0000545f0000535400006a
:1066e0004152000054450000445f0000464900004c
:1066f0004c4500005f4f0000504500004e00000078
:10670000535400004f5000005f4c00004f47000002
:10671000474900004e4700005f5700005249000003
:10672000544500005f450000525200000053000035
:10673000544f0000505f00004c4f000047470000de
:10674000494e0000475f0000534100004d500000db
:106750004c4500005f45000052520000002500003b
:10676000642c0000256400002c250000640d00004e
:106770000a00000043570000412d00004441000082
:10678000544100002e430000574100000053000018
:1067900045540000544900004e470000532e0000ad
:1067a000494e000049000000008000000402000083
:1067b00020000000000000004158000033200000cd
:1067c000202000002020000041580000332000005d
:1067d0004d6100007373000020530000746f0000cf
:1067e0007261000067650000303000003137000042
:1067f0006cb400003a0300004100000058000000a3
:106800003300000020000000430000006f00000083
:106810006d000000700000006f00000073000000b9
:106820006900000074000000650000002000000006
:1068300044000000650000007600000069000000d0
:10684000630000006500000020000000310000002f
:106850002e00000037000000200000002000000093
:106860000000000000000000340300004e000000a3
:106870006500000077000000630000006100000078
:1068800073000000740000006c0000006500000050
:1068900020000000550000006e00000069000000ac
:1068a0007600000065000000720000007300000028
:1068b0006900000074000000790000002000000062
:1068c0002000000020000000200000002000000048
:1068d0000403000009040000090200006200000037
:1068e0000301000002c00000fa09000004000000db
:1068f000000200000806000050000000070500002c
:1069000081020000400000000107000005010000b6
:106910000240000000010000080b0000010200001e
:106920000202000001000000090400000100000054
:106930000102000002010000000500002400000028
:1069400020010000042400000202000005240000d1
:106950000601000002050000240100000002000002
:1069600007050000820300000a0000000209000081
:1069700004020000000200000a0000000000000005
:1069800007050000030200004000000000070000af
:10699000058300000240000000000000120100001a
:1069a00000020000ef02000001080000d80400000f
:1069b0005700000017000000010200000301000062
:1069c00072000000722b0000000d00000a6e000033
:1069d0006f200000666900006c6500002c2000003c
:1069e0006372000065610000746900006e6700005a
:1069f000007700002b0000000d0a00006f700000ff
:106a0000656e000020660000616900006c200000d7
:106a100025640000000d00000a6600007369000094
:106a20006e690000742000006f6b000000770000aa
:106a3000000d00000a660000616900006c20000083
:106a4000256400000061000000540000696d000032
:106a5000652c0000417800002a3200003536000025
:106a60002c410000792a000032350000362c00004d
:106a7000417a00002a320000353600000d0a00007d
:106a800000250000732e0000253000003364000054
:106a90002c250000642c0000256400002c2500003b
:106aa000640d00000a00000001dc00009095000069
:106ab000540000002cdc000000950000d60000000f
:106ac0002cd30000902e000064000000addc00001c
:106ad0000000000000000000addc00001095000088
:106ae0005400000000000000000000000000000052
:106af0000000000000000000000000004144000011
:106b0000584c00003a2000000030000078250000ba
:106b100030320000783d0000307800002530000061
:106b2000327800002c0000000d0000003031000021
:106b300032330000343500003637000038390000a9
:106b4000616200006364000065660000002e0000c2
:106b50002e00000025300000347800003a200000ac
:106b600000250000303200007820000000200000e6
:106b700020200000000d000000000000001f0000a9
:106b80001d1f00001e1f00001e1f00001f1e000012
:0c6b90001f1e00001f000000720000002b
:020000040000fa
:106b9c00881f7800000478000202be00e10f51004b
:106bac00e08f59000d003e00a04890008180fb0052
:106bbc00304890004800dd0001017000c84890008a
:106bcc008180fb00584890004800dd008101700076
:106bdc000200420083804a0013003700620051001b
:106bec00e0805900186190000281fb000300200036
:106bfc00f215020000000000e84990008381fb00c0
:106c0c00784990004811dd00030271008851900012
:106c1c008381fb00185190004811dd008302710044
:106c2c000000420081804a004f04780000000600fa
:106c3c00614078000080fb000000060081004000ed
:106c4c00114090004800dd009180fb0001007000b5
:106c5c0000000600889fbe008a9fbe00800478005a
:106c6c00010478008180e800f4ff07000100200097
:106c7c00c005dd000a0020008800780009007800bb
:106c8c00eeff0700010020000000750081807500f8
:106c9c004f05be004f04be00000006008000eb0054
:106cac002108980050089000010020000000060008
:106cbc00889fbe00796c810019047800390190001e
:106ccc00c901900008007800b1ff07000002be0067
:106cdc001880fb00184190004811dd000001710084
:106cec005900900000004200e0804a008041eb0017
:106cfc00daf9020000000000910020000004e0001e
:106d0c000300320090d822000048eb008000eb001a
:106d1c00010078004f04be0000000600e687470023
:106d2c00889fbe008a9fbe008c9fbe008e1f78007d
:106d3c000006be00f2b79f0083bf9f00e00f50001b
:106d4c00e08f5800a2003200e10f5100e08f590093
:106d5c009f00360061005100e0805900800f560002
:106d6c00818f5e009a003e0090d822001004e00053
:106d7c0003003200ceff07000004e00094003a004c
:106d8c00c8532200022020008000eb00080078008d
:106d9c00221b0200000000000807780012ec230000
:106dac00030020000c00be0038160200000000009a
:106dbc000004be004e48dd00c244de0089047000b1
:106dcc004e44dd0012ec2300030020000c00be003a
:106ddc0058160200000000000005be00f20320005f
:106dec000300200038160200000000004609dd00f8
:106dfc00ca00de00810071004600dd000004740052
:106e0c0081847400f2032000030020000a00be00fd
:106e1c00581602000000000061004000e0804800ad
:106e2c0000047400818474004048de0001002000de
:106e3c00b26f220000497800c849dd004840de00ee
:106e4c0000807100c848de00c26f22000049780043
:106e5c00d06f2200084878007fb097008fb8970059
:106e6c000c0150008d81580022cf9b004810de0091
:106e7c0030cf9b0043cf9b004818de0050cf9b00c7
:106e8c0010c0b30081032100810f5100e08f590025
:106e9c0006003600f0d52f00f1032000800f5100c2
:106eac00818f59004a003e0060c0b30020c79b0090
:106ebc006cc79b004860de0070c79b000dcf9b0029
:106ecc004868de0010cf9b007fb197008fb9970008
:106edc000c0441008d84490061045400e0845c0082
:106eec0012ec2300030020000800be00381602003c
:106efc0000000000ce09dd00c205de008b857100ac
:106f0c004e05dd0012ec2300030020000800be003b
:106f1c0058160200000000000004be00f20320001e
:106f2c000300200038160200000000004609dd00b6
:106f3c00ca00de00810071004600dd00000575000e
:106f4c0081857500f2032000030020000800be00bc
:106f5c00581602000000000061004000e08048006c
:106f6c0000057500818575004058de000100200089
:106f7c00f26f220000497800c859dd004850de004d
:106f8c0000807100c858de000270220000497800b1
:106f9c00107022000a4878000040eb00607f9b00d4
:106fac0050c5b30060ff9b00a0cab30070ff9b00ec
:106fbc0013c0b300c25322006000b800daf902001b
:106fcc00000000008000eb00e14f50000100320097
:106fdc008080eb00010078004f0778004f06be0060
:106fec004f05be004f04be006f00b100000006004c
:106ffc00889fbe008a1f78008c9fbe00100478000a
:10700c00101e9000a01e90001100780001002000be
:10701c00885a90008582fb00185a90004822dd00a7
:10702c0005017200a85a90008582fb00385a900026
:10703c004822dd00850172004b1add004511de008f
:10704c0002017200c519de003816020000000000b3
:10705c0080447800286090000040e900e14f500027
:10706c000b003e00304d8100414d8100800f5600d9
:10707c00818f5e00060032000980fb0018619000d1
:10708c000281fb00110009000280d80081447800c5
:10709c001880fb0098409000c808dd000085700047
:1070ac000c01be0008007800b9fe07000981fb0046
:1070bc000300200000004100818049008041eb006a
:1070cc000a017800daf90200000000000080fb00e1
:1070dc000000e9004f00de000004a2000080fb006d
:1070ec004f06be004f0578004f04be00000006009e
:1070fc00ee874700889fbe008a9fbe008c9fbe0013
:10710c008e1f7800000678000203be00d4b79f00e3
:10711c00e5b79f00206090000040e900e14f50006f
:10712c00f2003e0070d822000048eb000104e000a1
:10713c001e003200986c8100a96c81000005eb00e8
:10714c00140037008041eb00c23322000800be005f
:10715c00daf90200000000000a05e8000004e00073
:10716c00e2003200cc5890008180fb005c5890000b
:10717c004800dd0001017000ec5890008180fb009c
:10718c007c5890004800dd0081017000080441002b
:10719c00898449000c6090008a4f5000e9ff3e0042
:1071ac0000d922000048eb00ce0037002c60900084
:1071bc00e14f500009003a0032002000030020008b
:1071cc000600be00f21502000000000061476000de
:1071dc008102d1000082d30003003700020241007b
:1071ec0083824900014778008c5890008180fb0015
:1071fc001c5890004800dd0001047000ac58900051
:10720c008180fb003c5890004800dd008104700038
:10721c00ec4090008180fb007c4090004800dd0039
:10722c00010570008c4890008180fb001c48900088
:10723c004800dd00810570000801be000400be009e
:10724c00f4b79f0085bf9f003816020000000000b5
:10725c000a0540008b854800bab79f00cbb79f004a
:10726c0061045400e0845c007fb297008fba9700f1
:10727c0084006400058064008001780001017800be
:10728c000205be00986c8100a96c81003fb097008c
:10729c00cfb09700800f5400818f5c002900320022
:1072ac008006eb0000d922001004e00015003a0023
:1072bc00190037008041eb00c23322000800be00e9
:1072cc00daf90200000000008d06e8000004e0007e
:1072dc0086003200cc5890008180fb005c589000f6
:1072ec004800dd0001017000ec5890008180fb002b
:1072fc007c5890004800dd008101700008044100ba
:10730c00898449000c6090008d4f5000e9ff3e00cd
:10731c0000d922000048eb00c23322003fb0970096
:10732c00cfb097000afa0200000000000004e00051
:10733c004b0032003fb19700cfb19700926c89009f
:10734c00a36c89002c609000e24f50000e003a00b4
:10735c00c0332200afea97000575780000f02f00cb
:10736c00dfb0970001006000010020004809dd003b
:10737c004800de0000007100c808de00d233220095
:10738c000075790054003700e14f500052003a006c
:10739c00c033220000014500124078000e04e000ca
:1073ac0005003200afe99700c418dd006f406000a3
:1073bc0000c07000010037002fe8970000497800ea
:1073cc0061024500e0824d008c5990008381fb00e6
:1073dc001c5990004811dd0003007100ac5990005d
:1073ec008381fb003c5990004811dd008300710043
:1073fc0061005000e08058000401600005806000ce
:10740c0080007800020078000004be00e00f5400f9
:10741c00e08f5c0019003a0011c0b3000802be00f6
:10742c000801be000c00780031ff0700e00f50008f
:10743c00e08f58002d003a003fb09700cfb0970076
:10744c0061054000e0854800c23322000a00be00fe
:10745c000afa0200000000000004e00005003a00f7
:10746c00f0ff2f0001002000906c8900a16c8900b6
:10747c00200037009a6c8900ab6c8900c033220065
:10748c0000024400144378000e04e00007003200b0
:10749c005fb19700efb19700cc1add004410de000d
:1074ac0000807200c418de000a0037005fb197003c
:1074bc00efb19700c81add004810de0000807200a2
:1074cc00c818de006f40600002cfb30002416300b9
:1074dc0002407000004a780011c0b30000d92200ad
:1074ec00014878006000b80002003700f0ff2f0060
:1074fc00010020004f0778004f06be004f05be006c
:10750c004f04be00ef00b10000000600ee874700fc
:10751c00889fbe008a9fbe008c9fbe008e1f780085
:10752c00000678000202be0070d822000048eb0072
:10753c00ac669000e1cf56000d003a0032002000fe
:10754c00030020000400be00f21502000000000041
:10755c00614760008102d1000082d30080ff2000cf
:10756c0001002000b0b79f00c1b79f000700370093
:10757c0002024100838249000047eb0082ff2f008a
:10758c0003002000b2b79f00c3b79f008c58900037
:10759c008180fb001c5890004800dd000104700045
:1075ac00ac5890008180fb003c5890004800dd00f6
:1075bc0081047000ec4090008180fb007c409000c6
:1075cc004800dd00010570008c4890008180fb00b4
:1075dc001c4890004800dd00810570000801be00c9
:1075ec000400be00f4b79f0085bf9f003816020050
:1075fc00000000000a0540008b854800610454001f
:10760c00e0845c000803be007fb297008fba97003d
:10761c00840064000580640080017800010178001a
:10762c000204be00906c8100a16c81008a0f500096
:10763c008b8f580047003a00e2cf560060003200b2
:10764c00e1cf560094003a00c333220068c07900a1
:10765c000081fb0003002000d2b79f00e3b79f001e
:10766c000e04e000060032004c18dd004411de0070
:10767c0002017000c419de00d2b79f00e3b79f006f
:10768c0061004400e0804c00000163000180630055
:10769c0080007800020078000004be00e00f540067
:1076ac00e08f5c0015003a0000d922001004e000c5
:1076bc00080032008d4078000802be000801be00b0
:1076cc000c0078008afe0700e00f5000e08f580095
:1076dc0079003a0061054500e0854d00c233220077
:1076ec000a00be000afa0200000000000004e000dc
:1076fc00290032009a6c8900ab6c8900c0332200df
:10770c00684078000080fb00010020000e04e000bf
:10771c00050032004409dd00cc00de008100710060
:10772c004400dd00060037006f00600001002000ff
:10773c00c808dd000080fd00804078000040eb00b0
:10774c005fb19700efb197000200400083804800c2
:10775c005200370000d922001004e000080032006b
:10776c0011c0b3006022b8000401be000c00780008
:10777c005ffe0700e00f5000e08f58004e003a000b
:10778c00c23322000a00be000afa02000000000008
:10779c000004e00005003a00f0ff2f00010020007b
:1077ac00906c8900a16c8900450037009a6c8900a7
:1077bc00ab6c89002c609000e24f500004003a0042
:1077cc00c03322006800780001002000330037002d
:1077dc00e14f500030003a00ca33220068407d006f
:1077ec000083fb00070020000e04e00004003200c0
:1077fc00cc39dd004433de0006837100c43bde006f
:10780c0061024400e0824c008c5990008381fb00a3
:10781c001c5990004811dd0003007100ac59900018
:10782c008381fb003c5990004811dd0083007100fe
:10783c0061005000e0805800040160000580600089
:10784c0080027800020278000400be0060407d00d7
:10785c000080fb00010020000e04e0000500320057
:10786c004409dd00cc00de00810071004400dd0025
:10787c00060037006f00600001002000c808dd0022
:10788c000080fd00804078000040eb0006004000c6
:10789c0087804800010037006000b8003fb19700b6
:1078ac00cfb19700820f5000838f5800040039002d
:1078bc000200be0002003700f0ff2f000100200084
:1078cc004f0778004f06be004f05be004f04be00a8
:1078dc00ef00b10000000600e8874700889fbe005b
:1078ec008a9fbe008c9fbe008e1f78000006780019
:1078fc00f1b79f0082f79f009005780070129000fe
:10790c00801a9000101c9000a01c900011037800ad
:10791c008b5890008180fb001b5890004800dd00c4
:10792c0001017000ab5890008180fb003b58900027
:10793c004800dd00810170004b18dd004511de00b0
:10794c0002017000c519de000281fb00e2b79f0046
:10795c00110009000283d8008101780000477800eb
:10796c00e00f5200e08f5a00060032000080fb004e
:10797c001b6190000281fb00110009000280d800fd
:10798c00014778000ff197000204e00002003a0072
:10799c006f0063007e003a000e04e00003003a0022
:1079ac00efb19700830f5300030031000ff09700e5
:1079bc000004e0001c003200e00f5200e08f5a007f
:1079cc0002003a000404be001a0037000ff19700c1
:1079dc000204e000090032001b6190000281fb00f0
:1079ec006fb2970002a1b900110009000283d80000
:1079fc000001780002457800090037001ac0b30076
:107a0c000801be000b007800c0fe07000004be0099
:107a1c00e90f4000e08f580058003e000a45e9008d
:107a2c000a04e000f6ff3a00e90f4400e08f5c0026
:107a3c0052003e00181e9800291e98000801be0036
:107a4c000b00780052fc07000006be00304d810090
:107a5c00414d8100800f5400818f5c0015003a006d
:107a6c000e82fb00050020000c0242008d824a00b1
:107a7c00eb4890008180fb007b4890004800dd00c3
:107a8c00010170008b5090008180fb001b50900016
:107a9c004800dd0081017000820f5200838f5a0074
:107aac00040039002b6090000001eb00e34f500004
:107abc003d003a0090d822001004e000040032008f
:107acc007bfc07000001eb000004e00036003a00ec
:107adc000004eb00786c890070d82200084878000c
:107aec001b80fb001b4190004811dd000001710060
:107afc000e80fb00010020000c0040008d8048002f
:107b0c000afa020000000000e14f500002003200af
:107b1c0008017800140037001b4090009b80fb008c
:107b2c000ff197000204e0000d0032004800dd0068
:107b3c0001007000ffb19700930078006fb29700be
:107b4c00801f7800110009008480d80001017800a2
:107b5c004f0078004511dd000201400002003700a3
:107b6c004800dd00010170000080eb008080eb001c
:107b7c00506c8900616c89000b00370011c0b30098
:107b8c0080d82200014878000001eb000600370085
:107b9c001b80fb009b409000c808dd0080807000bb
:107bac004518dd0000814000020078004f07780086
:107bbc004f06be004f05be004f04be008f00b10043
:107bcc00000006000800fa00889fbe008a9fbe00d5
:107bdc008c1f78008005780092bf9f00a3bf9f0088
:107bec00100578002a60900082ff2000030020001e
:107bfc00f2b79f0083bf9f00e14f5000040032009a
:107c0c0080ff2f0001002000f0b79f0081bf9f0074
:107c1c001fbc9700afbc97000046eb003b019000e7
:107c2c00cb0190000a00780038fe07000002be006d
:107c3c00e10f4000e08f580002003a008cc0b30006
:107c4c0019003700ca5090008180fb005a509000f8
:107c5c004800dd0001017000ea5090008180fb00bb
:107c6c007a5090004800dd008101700062004100f4
:107c7c00e0804900800f5200818f5a0004003900c7
:107c8c00820f5200838f5a0001003900acc0b30040
:107c9c007fb197008fb99700820f5200838f5a00e3
:107cac0001003900ccc3b300b4059800c505980099
:107cbc0061045400e0845c00020032000c04e0001b
:107ccc00d6ff32000c80fb004f0678004f05be003b
:107cdc004f04be000080fa00000006000400fa0009
:107cec00889fbe008a9fbe008c9fbe000005be0010
:107cfc00820678002260900082ff200003002000a2
:107d0c0082bf9f0093bf9f00e14f500004003200e0
:107d1c0080ff2f000100200080bf9f0091bf9f00bb
:107d2c00e10f5500e08f5d001d0036000a01be001a
:107d3c000d007800f5fd07000004be00e10f4000c7
:107d4c00e08f580018003200e10f5000e08f58000f
:107d5c00130036002c0020000fb997009fb9970034
:107d6c00820f5000838f5800010031000006eb0099
:107d7c008040eb006022b8000a01be000d007800c4
:107d8c00dbfc0700e10f4000e08f580006003200da
:107d9c000805be000c00e00004003a00e3ff3700c9
:107dac002c002000010037001c00200011c0b30083
:107dbc006022b8000401be000d007800ccfc070066
:107dcc000c10a2000c00ea004f00de006100100055
:107ddc004f06be004f05be004f04be000080fa00e7
:107dec0000000600889fbe00800478000104780023
:107dfc008018900070109000901c9800a11c9800a6
:107e0c0012c0b3008800780009007800b2fe0700a9
:107e1c000000e00011003200904078000104e00006
:107e2c000e003200fbcf40000c0032000700370080
:107e3c00180ce8000041eb0088007800090078007d
:107e4c00a5fe07000000e00004003200b0489000de
:107e5c00efcf5000f6ff3200010037000000eb00be
:107e6c004f04be0000000600881f780071622000dd
:107e7c009140780027c6bf00624060002706a8002a
:107e8c002726a80022318000253180002731800070
:107e9c00263180000108a300010032002706a8004b
:107eac000004e000010032002726a8006f006100ea
:107ebc00020fb2004411de006a11b900020040004a
:107ecc00740040004901dd000000210000806200c8
:107edc00a100200001003a0080007800489b22009d
:107eec0004f0200084816200c819de008381400008
:107efc00c519dd008301710005007800000fb20088
:107f0c004400de006a00b9006f816200000141008c
:107f1c0082817100834d8900534d8900734d890016
:107f2c0007007800000fb2004400de006a00b900c0
:107f3c006f816300000141004b11dd004c30de000d
:107f4c006a00b900040263004822de00000242000d
:107f5c004522dd008401710006007800000fb2009c
:107f6c004400de006a00b9006f016300800041002c
:107f7c00618060000100320040c6b300004c780004
:107f8c000100d10000807100904d8900604d890086
:107f9c004f04780000000600889fbe008a9fbe0038
:107fac0080047800010578008245780080189000e4
:107fbc0070109000901c9800a11c980012c0b30087
:107fcc008a0078000900780043fe0700000478005e
:107fdc00b00120000800e00035003200fc804400b5
:107fec00b200200008007800041c02000000000011
:107ffc0000c1b300f2cf55000100320000c2b30043
:10800c00304c98000040eb00404c98008005eb0091
:10801c002b0c98005b0c98006000b800600c98006a
:10802c00710c980090ff0700409b220010407800d4
:10803c00504c9800914d810071049800804d810046
:10804c00000c9800714d8100110c9800604d81005e
:10805c00300c9800514d8100410c9800680890003c
:10806c00f8089000900c9800a10c9800914d81009c
:10807c00c10c980008089000d00c9800384890006b
